:020000040000fa
:080000000002040000000000f2
:020000040000fa
:100400000fd120000e7f24000e01880000000000a4
:100410000c0007006070220001002000110007009e
:10042000000020000000e000020032000000020096
:1004300000000000b0130200000000000040da00dd
:100440000000fe004440a900200f20000000e00052
:100450000300320000002000a00188004440a800f2
:100460000000060091018800800078000000eb0089
:1004700015003700e280400032a0b4009101ba00bc
:10048000e280400032a0b4009102ba00e280400055
:1004900032a0b4000002eb00472bde00f507b200eb
:1004a000602ce10004003a000059eb008301e900f0
:1004b000fdff3e00040037006128e100010032002a
:1004c0000082eb00040007001101ba000200e00006
:1004d000e8ff3a00000006003159ba008301e90044
:1004e0000c0032002159ba008301e90008003200f3
:1004f0000400e00003003a00e280400032a0b400b3
:10050000f5ff370011d9ba008301e900faff3a007c
:100510008100e800e180400032a0b4000000060045
:1005200098020400000000000040da000000fe0015
:10053000881f780002047800470407000800400084
:100540004f047800000006000000fa00881f7800c1
:10055000000478003fb99700ea81570080007800d6
:100560008029200009000700800078000000e000da
:10057000020035000040eb0000f478000100780034
:100580004f0478000080fa00000006006200fa00c4
:10059000889fbe008a9fbe000004be00020578004e
:1005a0008300780060f92f000f0040002504070049
:1005b00088979f0099979f000000eb00a09f9f00e5
:1005c0009a4578000b80fb000000ea00cf04de00b3
:1005d00050c2b30080cf55000200320009047800f9
:1005e000010037000904e9000800e0000b003400b6
:1005f0001f909700080178008a0078008f9197007b
:100600000300010090979f000000e000930032007b
:100610002f98970000004400a09f9f000905450007
:1006200050c2b30080cf5500040032000b04e0003c
:10063000e3ff3a002f989700890037000000eb0095
:10064000809f9f00f0979f00e0979f00d0979f00aa
:10065000c0979f00b0979f00c09f9f000900370080
:1006600020d02000008050000000400061cf20001a
:10067000e10078004f98970001007000c09f9f0034
:100680000a05e8001a4478008800fb0020d020000a
:100690009a010700800078000000e000f0ff3a00b7
:1006a000a0c2b300804f54000e003a00bf889700ec
:1006b0000180e900b08f9f0010007800b09f9f007c
:1006c0000000e00005003d000000ea00b09f9f0030
:1006d0004f9897000020a000c09f9f000a05e800e7
:1006e00010003700b19f9f0003fd2f00f4ff27008b
:1006f000080037003f989700840f50000400320034
:100700006a00b9000000410003004000b09f9f0054
:100710000a05e8001a01fb0003004100e90f500040
:10072000f4ff3600e0c2b3009a4f1000040032001c
:100730000080eb00909f9f008a0478001c00370027
:100740008a04e800a0c2b300994f100007003a00e5
:10075000bf8897000180e900b08f9f0010007800eb
:10076000909f9f008a84e800110037000000eb0092
:10077000909f9f0003fd2f00f4ff27000800370023
:100780001f989700840f5000040032006a00b900df
:100790000000410003004000909f9f008904e80092
:1007a0001901fb0003004100e90f5000f4ff36007f
:1007b000194478008800fb0080d020004f0107001a
:1007c0000000e00002003a00004478000100370019
:1007d0008904e800a87f9f0080c6b300804f5400c2
:1007e00004003a00994f14000a003a006640500095
:1007f00006003700c0c6b300804f540005003a0021
:10080000994f140003003a0065404000a07f9f000c
:100810008904e8000905e800cbfb2f008b85470021
:100820001901fb0060f92f000f0040000084e80070
:100830008b01780080007800080078000c00070029
:100840000000e00005003a008b0078000800780006
:10085000be0207000000e00059ff3d000080eb00f1
:100860004f05be004f04be000080fa0000000600e5
:10087000889fbe008a1f780000047800010278007b
:100880008244780003057800e0c6b300804f510031
:10089000c600320010003c006b405000804f5100f9
:1008a0001800320005003c0050c2b300804f5100d8
:1008b0000301320080c5b3000f00370040c6b3000b
:1008c000804f51001400320065404000804f5100bd
:1008d000fe003a001000370000c7b300804f5100ff
:1008e000e80032005e00350065404000804f510056
:1008f0005b0032006340400080cf5400f3003a00b8
:10090000570037009180e900010a780078009000d4
:1009100091717800f3003700a8609000c0c6b30062
:1009200080cf50000a003a009400780064805000a4
:10093000000a78001000be004f89de00cf91de0073
:100940000002be0002037800820378001300370023
:1009500010c7b30080cf500003003200a0c6b30020
:1009600080cf500006003a00940078006880500064
:10097000000a78003002be002003be0007003700e6
:100980001480e900000a7800100078000002780066
:10099000cfa2de000503780086037800049cbe0029
:1009a0000694be00a860900080c6b30080cf5000bf
:1009b0000e00320020c6b30080cf500005003a0080
:1009c0000400fb00cf80de00010178008201780086
:1009d0000a00370040c7b30080cf50000300320048
:1009e0006640400080cf500006003a0004007800c6
:1009f000cf80de000101780082017800009cbe00fb
:100a00000294be003800be002801be00e00f500076
:100a1000e08f5800e00f5900e08f590003003d00bf
:100a200078009000d1c2b3000a003700081090008f
:100a30000018a3000300320078009000b1c2b30098
:100a4000040037000008a300530032007800900033
:100a500001c2b300017578000000e8004d003700c6
:100a6000a8609000c0c6b30080cf500006003a00d6
:100a70009400780064805000000a78001002be00e4
:100a80006033b8001300370010c7b30080cf5000a8
:100a900003003200a0c6b30080cf500006003a0029
:100aa0009400780068805000000a78003002be0090
:100ab0002003be00070037001480e900000a780018
:100ac00010007800000278000500200006002000d9
:100ad00007002000049cbe000694be00a8609000a1
:100ae00080c6b30080cf50000e00320020c6b30095
:100af00080cf500005003a000480fb000100200078
:100b000002002000030020000a00370040c7b300a5
:100b100080cf5000030032006640400080cf50007c
:100b200006003a00040078000100200002002000c6
:100b300003002000009cbe000294be00081090003c
:100b40000038a300140032003800be002801be00a7
:100b5000e00f5000e08f5800e00f5900e08f59007f
:100b60000d00320080c7b30080cf54000300320074
:100b700080c5b30080cf540007003a007800900091
:100b800001c3b300017578008000e80009f5780022
:100b90000080e80070049800780090000000450094
:100ba000600498008940780042003700a8609000f7
:100bb000c0c6b30080cf5000250032000a003c00c0
:100bc0006440500080cf50002800320000c0e80090
:100bd00080cf5000140032006840500080cf500099
:100be00022003a000a00370040c7b30080cf50000f
:100bf0001e0032006640400080cf50001b003200d3
:100c00006940500080cf500018003a0006003700bd
:100c10001480e900000a780010007800485c900019
:100c200008487800310037001480e900000a780095
:100c30001002780068089000cf80de000101780083
:100c400082017800009abe000292be0027003700a1
:100c50001480e900000a780010017800680890000c
:100c6000cf80de000089be00200037001480e9003c
:100c7000000a780010007800680c900008087800de
:100c80001a0037001180e900800878001000780011
:100c9000cf80de000101780082017800009cbe0058
:100ca0000294be00780090000000450060049800a7
:100cb00081c7b30008007800190007000b00370057
:100cc00078009000027578000600370078009000e8
:100cd000800045000904e00001003a0059c2b30059
:100ce000894878000000e800700498000000eb00dc
:100cf0004f0578004f04be000000060004003700d6
:100d00000204e00001003a00000005000000e800d5
:100d100010417800814f5100f9ff3a0000000600b1
:100d20002f03b000889fbe008a9fbe008c9fbe002c
:100d30008e1f78000007780050ce2000c0b79f00bb
:100d400080c5b30080cf50000800320042cd2000a3
:100d5000c2b79f007740400080cf500003003a00a8
:100d600083002000b3b79f000a00370080c7b3009c
:100d700080cf500005003200a4002000b4b79f00cf
:100d800080c5b30080cf500002003a00050120006a
:100d9000b5b79f003e04be002e05be0040c6b3009e
:100da00080cf5000030032006540400080cf5000eb
:100db0000b003a00e00f5400e08f5c00e00f5d0094
:100dc000e08f5d0006003d006000b8006011b800d3
:100dd00008045000898458000a0559008b85590081
:100de000bfb39700e88f530003003200f08f530029
:100df00045003a00020037003600200001003700ad
:100e000046002000e00f5400e08f5c00e00f5d0022
:100e1000e08f5d0005003a005e089000810120002f
:100e2000a1b79f000000e000080032003fb197002a
:100e30000200e90008006000cfb19700634078002d
:100e400090df9f0074012000a4b79f008602780005
:100e50008502e900050033008b05d1000a85d30027
:100e60008984d3000884d300f9ff3700089fbe00af
:100e70000a97be00afb397000700e90021fc2f00de
:100e80008f804000008240003fb197008202e9005d
:100e900012003700afb397008703e900a7b79f00a0
:100ea00000806200cfb09700615278003e00be0023
:100eb0002e01be00860378008703e9000500330099
:100ec0008381d1000281d3008180d3000080d300d0
:100ed000f9ff3700009fbe000297be003e00be0033
:100ee0002e01be00e00f5000e08f5800e00f5900c7
:100ef000e08f5900d6003400afb397000700e00040
:100f0000e4ff3c00d2003700ae60900080c6b30022
:100f100080cf50000b00320006003c000104e000ce
:100f2000080032006640500080cf500073003a0045
:100f300004003700c0c6b30080cf50006f003a00f5
:100f400031003700080178000800e00005003a0091
:100f50005e08900081012000a1b79f000000e00022
:100f600009003200bfb19700110009000381d800c9
:100f70008000fd004fb297006440780090df9f0032
:100f800075012000a5b79f00bfb3970011000900ad
:100f90000781d80080017800afb097000100e90018
:100fa00022fc2f000f014100000241000c0037001d
:100fb000bfb29700110009008501d8000001780038
:100fc000afb397008703e900a7b79f000590b9006a
:100fd00000805100cfb09700615278008201780004
:100fe0000300e000030034002fb197000200e0008e
:100ff000efff3c0003007800cf80de0001017800a5
:10100000820178003a0037000806be00e00f540065
:10101000e08f5c0005003a005e089000830120002c
:10102000a3b79f000000e000090032003fb2970024
:101030006121b9000c00be00ad010700cfb29700de
:101040006540780090df9f0077012000a7b79f00e0
:101050003fb297006121b9000c00be009401070067
:101060000006be00afb297000500e90027fc2f0084
:101070008f8343008083430097b79f0011003700a0
:101080003fb197006114b9000801be000c00be001a
:10109000780107000005be00afb197008301e900a9
:1010a000a3b79f000801be0094010700000056008e
:1010b0001fb29700cfb297006552780094b79f0097
:1010c0000a06be00e00f5600e08f5e000300340009
:1010d000afb397000700e000e9ff3c004feade00f5
:1010e000cfa2de000c00be0004017800840178006d
:1010f000009fbe000297be0055003700e00f54006d
:10110000e08f5c00e00f5d00e08f5d0005003a00bd
:101110005e08900081012000a1b79f000000e00060
:101120000d0032003fb1970002027800cfa2de002e
:1011300005037800860378000800be000a01be009f
:10114000220207004fb297006440780090df9f00b2
:1011500075012000a5b79f003fb1970002027800fb
:10116000cfa2de0005037800860378000800be00e9
:101170000a01be000e020700009fbe000297be00db
:10118000afb197000300e90024fc2f000f024200da
:101190000006420020003700bfb297000504780027
:1011a000cfc4de00090578008a0578000802be0079
:1011b0000a03be005fa89700efa897007fa99700d9
:1011c0008fb1970005020700d0b79f00e1b79f00dd
:1011d000f2b79f0083bf9f00afb397008703e9007a
:1011e000a7b79f000802be000a03be006502070001
:1011f0005faa970000005200cfb2970065567800b2
:101200005fb09700efb097007fb197008fb997005c
:10121000009fbe000297be003e00be002e01be0031
:10122000d0af9f00e1af9f00f2af9f0083b79f0058
:10123000e00f5000e08f5800e00f5900e08f590098
:1012400003003400afb097000100e000d2ff3c0083
:101250003fb19700e80f510013003a000e109000c4
:101260000038a30010003200afb19700f78f510093
:1012700006003e0024fc2f000f02420083004200c3
:1012800000c3b300914f100007003200afb29700c7
:101290008502e900a5b79f0000c3b30027fc2f001b
:1012a0008f83430080f37a00afb1970078811100fb
:1012b000120f98006e009000cf91de0024fc2f00ea
:1012c0000f024200afb2970085004200e200070023
:1012d0001e0990005e089000800f510006003d003e
:1012e00002005000000f98000e1090000040a10076
:1012f000001798000f0037000000e0000d003d00cf
:101300000e10900074006000f00f500009003a00c9
:101310007e089000fe009000010050008e089000b2
:1013200001005000020050004240a90001003400ba
:10133000000f98004f0778004f06be004f05be0013
:101340004f04be002f03b100000006000400fa00a5
:10135000889fbe008a9fbe008c1f78000004780022
:101360000106780070089000f8009000010050001d
:10137000880890000100500098089000010050007b
:10138000a808900001005000b8089000010050002b
:10139000c8089000810550000002220090bf9f0005
:1013a00000032300a0bf9f00081090000028a300a6
:1013b00015003a000b00e000130034008b047800a5
:1013c0002a0020008a8f540001003e0009057800a1
:1013d0006151b9005800900048029000ee8057001b
:1013e00004000100500498000000e0008d0032006d
:1013f0006808900000004500600c98008a84540042
:101400004240a900eeff3c00780090000000e000a0
:101410000c0034006101b9005800900048029000af
:101420008c00780004000100500498000000e000e7
:101430007c00320068089000f80090000100400035
:10144000600c9800880c90000900e0001200340045
:101450002a0020008a8f540001003e000905780010
:101460006151b9005800900048029000ec8057008c
:1014700004000100500498000000e0006900320000
:101480006808900000004500600c98008a845400b1
:101490004240a900eeff3c00180890000000e00068
:1014a0000c0034006101b900e80090005800900081
:1014b0004802900004000100500498000000e00081
:1014c0005800320068089000980890000100400021
:1014d000600c9800a80c90000900e0001200340095
:1014e0002a0020008a8f540001003e000905780080
:1014f0006151b9005800900048029000ec805700fc
:1015000004000100500498000000e0004500320093
:101510006808900000004500600c98008a84540020
:101520004240a900eeff3c00380890000000e000b7
:101530000e0034006101b900e80090001808900026
:101540008080400058009000480290000400010094
:10155000500498000000e00032003200680890005b
:10156000b808900001004000600c9800c80c900082
:101570000900e000120034002a0020008a8f540085
:1015800001003e00090578006151b9005800900043
:1015900048029000ec8057000400010050049800bd
:1015a0000000e0001f0032006808900000004500c5
:1015b000600c98008a8454004240a900eeff3c0071
:1015c000081090000028a300180032000b00e00073
:1015d000160034008b0478002a0020008a8f540003
:1015e00001003e00090578006151b90058009000e3
:1015f00048029000ee80570004000100500498005b
:101600000000e0000700320068089000000045007c
:10161000600c98008a8454004240a9000300340002
:10162000edff37000080eb00010037000000eb0009
:101630004f0678004f05be004f04be000080fa0040
:10164000000006000200fa00f1bf9f0001087800c8
:101650000080fa00000006008001eb000200370065
:1016600061f079008301e800828f5100fcff3a00ad
:1016700000000600839f68000100e00002003d00ba
:1016800060001000e08018000300e00002003d0050
:1016900060011100e0811900050007004f00e00023
:1016a00002003b0060001000e0801800000006000f
:1016b0006022b800060220000000d0008180d20025
:1016c0000482d2008582d2000000a00002025200f3
:1016d00083825a00030031000202420083824a00e2
:1016e0000000a1000603e900f3ff3a000000060035
:1016f000efff07000400be0000000600020ab90068
:10170000001bb9000200b8008100420081004300c4
:1017100000000600881f7800000478005001be0019
:101720004000be00040040008580480006014900da
:1017300087814900009cbe000294be000400e100c5
:101740000588e1000690e1000798e1000200310001
:10175000680044001008e8004f047800000006000c
:10176000f4874700889fbe008a9fbe008c9fbe0002
:101770008e1f78000205be000004be00d4b79f0093
:10178000e5b79f00f6b79f0087bf9f000000eb0002
:10179000c0b79f00b0b79f00a0b79f0090b79f0051
:1017a00080b79f000d042000bfb097004fb0970096
:1017b000000140000000e0000f003d004f08de0087
:1017c00000007100c0b79f004d00070001003d0000
:1017d000120020005000070001003d001200200010
:1017e0005500070061000700660007000f00400079
:1017f000c8ff0700220037004f08de000006710016
:10180000ccb79f003e00070001003d001200200001
:101810004100070001003d001200200046000700c3
:10182000520007000fb297009fb297002fb39700a6
:10183000bfb39700590007000000520081805a0092
:1018400002015b0083815b0080b79f0091b79f001e
:10185000a2b79f00b3b79f000007eb004f0007003f
:101860000020e10001a8e10002b0e10003b8e100be
:10187000010031001e0020000e005600c0b79f007e
:101880004fb297000400e000070035001000200070
:10189000010020006011b800080470008984700005
:1018a0000a0571008b8571008d06e900beff3a00c4
:1018b0000400e00003003d00320007000f0040007c
:1018c00094ff07004fa897000000e00004003a00d2
:1018d0000fb497009fb497002fb59700bfb597003e
:1018e0000800be000a01be004f0778004f06be0088
:1018f0004f05be004f04be004f01b10000000600be
:101900000180400090b79f000001eb008fb097006e
:101910000100e000000006000200700090b79f0088
:101920000180400080b79f000001eb00ffa89700f6
:101930000100e000000006000200700080b79f0078
:10194000018040006faa9700cf20de0001007000e8
:10195000f0af9f00040242000800be000a01be0072
:101960004f18de000002720000000600e4af9f0086
:101970000804440089844c000a054d008b854d0005
:10198000000006003fb29700cfb297005fb3970008
:10199000efb3970000fe2f00000006003fb0970055
:1019a000cfb097005fb19700efb19700000006003d
:1019b000881f780018002000881f780068ff070043
:1019c0008f87e9004f04780000000600801feb00bd
:1019d00063ff07008f87e90000000600889fbe00b4
:1019e0008a9fbe008c1f78000205be000004be0066
:1019f000e00f5000e08f5800e00f5900e08f5900d1
:101a00000c003d006000b8006011b80008045000f0
:101a1000898458000a0559008b8559001c00200054
:101a20001f00070008003d00180007000006eb003b
:101a3000050037000006eb001900070002003d001a
:101a40000f0007001c0020000800be000a01be00b5
:101a5000d7ff07000203be000002be000c00e0003a
:101a600001003200060007000400be000601be00af
:101a70004f0678004f05be004f04be000000060070
:101a80006000b8006011b800000037000402500088
:101a9000858258000603590087835900000006001c
:101aa000e00f5200e08f5a00e00f5b00e08f5b0018
:101ab00000000600889fbe008a9fbe008c1f780031
:101ac0000205be000004be00e00f5000e08f580089
:101ad000e00f5900e08f59000a003d006000b80097
:101ae0006011b80008045000898458000a055900a4
:101af0008b8559001c0020001800070007003d00de
:101b0000050037000006eb001400070003003d004d
:101b10006000b8006011b800150007000800be00a2
:101b20000a01be00a9ff07000203be000002be00ba
:101b30000c00e000030032006000b8006011b80043
:101b40000b0007000400be000601be004f0678002f
:101b50004f05be004f04be0000000600e00f52001b
:101b6000e08f5a00e00f5b00e08f5b000000060092
:101b700004025000858258000603590087835900eb
:101b800000000600889fbe008a9fbe008c1f780060
:101b90000205be000004be000006eb00e00f50008e
:101ba000e08f5800e00f5900e08f590007003d001a
:101bb0006000b8006011b800080450008984580023
:101bc0000a0559008b8559001c002000e00f5200c7
:101bd000e08f5a00e00f5b00e08f5b0002003d00e9
:101be0000f0007000c00a2000800be000a01be00a2
:101bf000120007000203be000002be000c00e0005d
:101c000001003200060007000400be000601be000d
:101c10004f0678004f05be004f04be0000000600ce
:101c20006000b8006011b8000402500085825800be
:101c3000060359008783590000000600889fbe00f4
:101c40008a9fbe008c9fbe000404b8000506b80041
:101c50008904460060854e000606b8000a05460065
:101c6000e0854e000706b8008b054600040eb8005c
:101c7000890446000a854e00e0854d00050eb80037
:101c80000a0546008b854e00060eb8008b054600ff
:101c90000416b8000a0546008b854e000516b800ec
:101ca0008b054600041eb8008b0546000800be00e8
:101cb0000a01be004f06be004f05be004f04be0025
:041cc000000006001a
:020000040000fa
:020000040002f8
:04aff800bf7900001d
:020000040000fa
:020000040002f8
:04affc007fbf000013
:020000040000fa
:10000800940200008a13000090130000a41300005b
:10001800aa13000094020000940200009402000059
:10002800940200009402000094020000a42700003b
:1000380094020000940200009402000028220000ac
:10004800401c00009402000094020000841f00007d
:10005800ee1f0000940200009402000094020000c9
:10006800940200007228000094020000940200002c
:100078009402000094020000940200009402000020
:100088009402000094020000940200004e1e00003a
:100098009402000094020000302300009623000020
:1000a80094020000940200009402000094020000f0
:1000b80094020000940200009402000094020000e0
:1000c80094020000940200009402000094020000d0
:1000d80094020000940200009402000094020000c0
:1000e80094020000940200009402000094020000b0
:1000f80094020000940200009402000094020000a0
:10010800940200009402000094020000940200008f
:10011800940200009402000094020000940200007f
:10012800940200009402000094020000940200006f
:10013800940200009402000094020000940200005f
:10014800940200009402000094020000940200004f
:10015800940200009402000094020000940200003f
:100168009402000094020000541d0000001e0000cc
:10017800940200009402000094020000940200001f
:100188009402000024280000940200009402000059
:1001980094020000940200009402000094020000ff
:1001a80094020000940200009402000094020000ef
:1001b80094020000940200009402000094020000df
:1001c80094020000940200009402000094020000cf
:1001d80094020000940200009402000094020000bf
:1001e80094020000940200009402000094020000af
:0801f8009402000094020000d3
:020000040000fa
:10020800940200008a13000090130000a413000059
:10021800aa13000094020000940200009402000057
:10022800940200009402000094020000a427000039
:1002380094020000940200009402000028220000aa
:10024800401c00009402000094020000841f00007b
:10025800ee1f0000940200009402000094020000c7
:10026800940200007228000094020000940200002a
:10027800940200009402000094020000940200001e
:100288009402000094020000940200004e1e000038
:10029800940200009402000030230000962300001e
:1002a80094020000940200009402000094020000ee
:1002b80094020000940200009402000094020000de
:1002c80094020000940200009402000094020000ce
:1002d80094020000940200009402000094020000be
:1002e80094020000940200009402000094020000ae
:1002f800940200009402000094020000940200009e
:10030800940200009402000094020000940200008d
:10031800940200009402000094020000940200007d
:10032800940200009402000094020000940200006d
:10033800940200009402000094020000940200005d
:10034800940200009402000094020000940200004d
:10035800940200009402000094020000940200003d
:100368009402000094020000541d0000001e0000ca
:10037800940200009402000094020000940200001d
:100388009402000024280000940200009402000057
:1003980094020000940200009402000094020000fd
:1003a80094020000940200009402000094020000ed
:1003b80094020000940200009402000094020000dd
:1003c80094020000940200009402000094020000cd
:1003d80094020000940200009402000094020000bd
:1003e80094020000940200009402000094020000ad
:0803f8009402000094020000d1
:020000040000fa
:101cc400206900004e6500007200000043680000b7
:101cd40061720000676900006e6700000043000045
:101ce4006f6e00006e65000063740000696f000091
:101cf4006e200000546f00002047000035200000d3
:101d040065720000726f0000722000006f630000b3
:101d140063750000727200006564000000570000e3
:101d24007269000074650000203000002e3200004b
:101d340041680000205400006f2000004735000077
:101d4400206300006f6d0000706c0000657400007b
:101d540065000000577200006974000065200000ef
:101d640041680000205400006f2000004735000047
:101d740020650000727200006f720000206f000086
:101d84006363000075720000726500006400000067
:101d94005772000069740000652000005768000055
:101da4006f6c0000652000004168000020540000b2
:101db4006f20000047350000206300006f6d0000b5
:101dc400706c00006574000065000000577200002c
:101dd4006974000065200000576800006f6c000003
:101de4006520000041680000205400006f200000be
:101df4004735000020650000727200006f72000019
:101e0400206f0000636300007572000072650000bb
:101e140064000000566f00006c74000061670000ed
:101e2400653a000000560000002000002020000059
:101e340020200000202000000043000075720000f4
:101e4400726500006e7400003a0000002d0000006e
:101e54002b000000410000004e6f0000774100009d
:101e6400683a0000004100006800000020200000e3
:101e74002020000020200000202000000046000058
:101e8400756c00006c410000683a000000200000fe
:101e9400202000002000000025640000002e000027
:041ea400000000003a
:020000040000fa
:101ea8000200fa00000f780010c0b30021090700f3
:101eb80090658000e30f500003003e0010002000f2
:101ec8009e0f100004003a00270007000000eb00f6
:101ed8009065880022003700806580000000e000df
:101ee80004003a003065800070658800100020000a
:101ef800806588003165800070658000808f5000a3
:101f08001700320080658000e10f500014003a008d
:101f1800e4c2bf000080fb004500de0061406000b5
:101f280000c0ea0061406000614060004501dd00da
:101f3800412e200091407800f0cdb30000c0600031
:101f480002407000e4e2b700640007000000eb0004
:101f580080658800906580000000e8009065880032
:101f68000080fa00000006000000fa00e0c4b30098
:101f78002701070020c0b300ee080700c2f02800c0
:101f880011c0b30010c0b3007e000700c25a800021
:101f980091c0b30010c0b3008b00070052f12800b5
:101fa800d1c0b30010c0b3007600070072f128005a
:101fb800e1c0b30010c0b3007200070010c0b30046
:101fc800dc080700f2f1280011c0b30020c0b300fc
:101fd8006c000700b15a8000000f200000806000ec
:101fe800f00f500005003a0082f2280091c0b300bb
:101ff80020c0b3006300070004003700a2f22800e5
:1020080091c0b30020c0b3005e000700d25a800020
:10201800a1c0b30020c0b3006b000700c2f22800c3
:10202800e1c0b30020c0b3005600070072f12800d9
:10203800f1c0b30020c0b3005200070010c0b300c5
:10204800bc080700e2f2280011c0b30030c0b3009a
:102058004c000700e25a800071c0b30030c0b300e2
:102068005900070052f32800b1c0b30030c0b300d4
:102078004400070082f32800d1c0b30030c0b30089
:102088004000070010c0b300aa08070012f4280097
:1020980011c0b30040c0b3003a000700f25a8000f4
:1020a80081c0b30040c0b3004700070052f32800c6
:1020b800c1c0b30040c0b3003200070072f128006d
:1020c800e1c0b30040c0b3002e00070020c0b30039
:1020d800980807000080fa00000006000000fa00d7
:1020e80010c0b30093080700c25a800091c0b30023
:1020f80010c0b30034000700b15a8000000f200060
:1021080000806000f00f500005003a0082f22800bd
:1021180091c0b30020c0b3001a00070004003700c4
:10212800a2f2280091c0b30020c0b3001500070038
:1021380090f4280000017800a1c0b30020c0b300cb
:1021480021000700d25a8000a1c0b30020c0b3000c
:102158001d000700e25a800071c0b30030c0b30010
:1021680019000700f25a800081c0b30040c0b300d4
:102178001500070010c0b3006e0807000080fa00c1
:10218800000006000400fa00004f7800114798008c
:1021980012079800010037000942a90009c2bf00d0
:1021a800644060000004e000fbff3a009e4090009d
:1021b8001e4078000f0107001e009000f60007007f
:1021c8000080fa00000006000c00fa00004f98009a
:1021d800114f9800520798000e4890000080fb00ad
:1021e800200798001e4890000080fb001007980008
:1021f800010037000942a90009c2bf00644060001d
:102208000004e000fbff3a001e00900080407800c8
:102218002e009000f70007005e009000a20020004a
:10222800110009000280d800e6004700801f7800ee
:10223800e0f42800801f780001007800c0f807004b
:10224800e487570066004700d3000700de009000cf
:1022580030062000808f500003003e001000200050
:10226800000f78000200370020002000000f7800df
:102278001e009000804078001e00780000c04000da
:10228800804078002e009000da00070010f5280042
:10229800c10007001e009000804078001e007800f2
:1022a80000c040000040e800804078002e00900008
:1022b800d00007005e009000a20020001100090075
:1022c8000280d8008000fd00e6004700801f7800eb
:1022d800e0f42800801f78000100780098f80700d3
:1022e800e487570066004700ab0007000080fa004b
:1022f800000006000000fa000000370006c2bf0018
:10230800614060000004e000fcff3a0006c2bf0024
:10231800644060000004e000f8ff3a0006c2bf0015
:10232800684060000004e000f4ff3a0006c2bf0005
:10233800704060000004e000f0ff3a0009c2bf00ee
:102348000044b2000004e000ecff3a000080fa000c
:10235800000006000000fa00e6ff07000602a800d9
:102368000080fa00000006000000fa00e1ff070004
:102378000622a8000080fa00000006000000fa000b
:10238800dcff07000642a8000080fa0000000600f3
:102398000000fa0006a2a900d6ff07000682a800de
:1023a8000080fa00000006000000fa0006a2a8005b
:1023b800d0ff07000682a8000080fa00000006008f
:1023c8000200fa00004f78001e407800bcecb7000d
:1023d800ba0ca900ba2ca90008c2bf00614060006d
:1023e8000004e0000400320086c0bf0062406000c4
:1023f8000004e000f8ff3a0009c2bf000080fb00bb
:102408004700de000080fb000080fa0000000600a4
:102418000200fa00004f78001e407800beecb700ba
:102428000040eb0024000700e0012000a607070099
:1024380030c0b3003900070050002000a207070091
:1024480030c0b30035000700500020009e07070089
:1024580030c0b30031000700500020009a07070081
:1024680020c0b3002d000700500020009607070089
:1024780080c2b3002900070020032000920707004c
:10248800c0c0b30025000700200320008e07070006
:1024980010c0b30021000700200320008a070700ae
:1024a80060c0b3001d000700200320008607070056
:1024b8000080fa00000006000200fa00004f7800d1
:1024c800a4ff0700beccbf00bdff0700acccbf0017
:1024d8001e407000baff0700a8ff07000080fa003e
:1024e800000006000200fa00004f7800bdccbf00d3
:1024f8001e4f70001e4078000024a000eeff070069
:10250800b0cfb3001e406000ebff070010002000b2
:102518006d0707000080fa00000006000200fa00bc
:10252800004f78000040eb00bdecb70000cfb300cf
:102538001e406000ebff07001e80fb004400dd002a
:102548008040780000cfb30000c06000e5ff0700be
:102558000080fa00000006000200fa00004f780030
:1025680010c0b300bdecb7009e40780000cfb300a8
:1025780000c06000dbff07001e00fb004400dd0018
:102588008040780000cfb30000c06000d5ff07008e
:102598000080fa00000006000400fa001007980006
:1025a8000000eb00000f78000000eb00000f78003f
:1025b800070037001e007800800078001e00900099
:1025c8000080400010407800e3ff07001e0fe8007d
:1025d8001e007800800078001e00900000804000f7
:1025e800104078000004e000f2ff3a000080fa0092
:1025f800000006000400fa00004f78001147980018
:102608001e80fb00100798001e009000e30f50008a
:102618000c0032001e009000e40f50000e00320043
:102628001e009000e20f5000010032000f0037003a
:102638009e409000f0cbb30000c04000b7ff0700f9
:102648000d0037009e40900030c9b30000c0400024
:10265800b2ff0700080037009e40900030cdb3005d
:1026680000c04000adff0700030037001e40900087
:10267800f047b000a9ff07000080fa00000006003c
:102688000000fa0080c0b300acecb7000040eb00db
:1026980089ff07000080fa00000006000000fa0029
:1026a8000040eb00acecb7000040eb0082ff0700f5
:1026b8000080fa00000006000000fa0080c1b300a4
:1026c80096ff070010002000ff0607000080fa00b0
:1026d800000006000000fa00c0c1b3008fff070029
:1026e80010002000f80607000080fa00000006002d
:1026f8000000fa0010c0b30088ff07001000200097
:10270800f10607000080fa00000006000000fa0049
:102718008020a900ffff3700801f78000200fa0020
:1027280010c0b300004f78008060a9001e04e000cc
:10273800feff3a000080fa004f00780000400600d3
:102748000000fa008040a900ffff37000000fa00ef
:102758008080a900ffff37000800fa000000eb00a6
:10276800300798000000eb00200798000000eb00fd
:10277800100798000000eb00000f7800080307001e
:10278800803e200020658800800720004065880082
:10279800aa2ca900aa0ca900aa4ca9004c2ba90094
:1027a8004e0ba9004c4ba9004c6ba9004c0ba9007f
:1027b8000b0307002b030700640307009d030700b2
:1027c80018030700fd030700e0c4b30010ff07006b
:1027d800e4e2a800e4a2a90010c0b300d5060700ef
:1027e800e4e2a900e4a2a80030c0b300d1060700c3
:1027f80022e6280011c0b30010c0b30061fe070034
:1028080022e6280011c0b30020c0b3005dfe070017
:1028180022e6280011c0b30030c0b30059fe0700fb
:1028280022e6280011c0b30040c0b30055fe0700df
:1028380000003700e2c2bf000044b2000004e0001c
:102848000b003a0006003700fc030700aa0ca8009a
:10285800e4e2a80010c0b300b6060700e4e2a9004d
:10286800e2c2bf000044b2000004e000f6ff3200fc
:1028780050658000610060000000e00072003200d6
:1028880050658000620060000000e0006e003a00c1
:1028980070608000680060000000e0006a003a0094
:1028a8003e009000e30f500067003e005065800036
:1028b800620060000000e00063003a00c6080700fc
:1028c80010c0b3009b0607000508070010c0b3003e
:1028d80098060700ba070700000f7800905a800092
:1028e800e10f500033003a00c05b8000e10f500058
:1028f80030003a001e00e0002e003200e482a900f9
:10290800411f2000500020007708070030c0b300a6
:1029180088060700b00807000e6ca90020c0b300a5
:1029280084060700f15a8000401f2000808f500065
:10293800f3ff3a0001192000600020006a08070030
:1029480030c0b3007b060700a30807000e6ca9007f
:1029580020c0b30077060700a15b800000192000a3
:10296800808f5000f3ff3a003125200060002000de
:102978005d08070030c0b3006e0607009608070020
:102988000e6ca90020c0b3006a060700a15b800096
:1029980030252000808f5000f3ff3a00aa2ca800b1
:1029a8000000eb00406588000000eb00300798004d
:1029b80025003700860607000004e00009003a00f9
:1029c800e482a8004aff070010c0b30059060700b8
:1029d80082e6280011c0b30010c0b300e9fd07006b
:1029e80019003700e482a9003e0090000000e800ca
:1029f800300798003eff070010c0b3004d060700df
:102a08003e009000e30f50000f003600e482a9005a
:102a1800aa2ca900aa0ca900e4e2a800e462a90073
:102a2800e442a80032ff070010c0b30041060700c7
:102a380012e7280011c0b30010c0b300d1fd070091
:102a48000000eb00300798005065800062006000cd
:102a58000000e000fd0032000000eb0010fd070060
:102a680050658000640060000000e000b7003a0094
:102a7800b0598000e10f5000b4003a00605a80005d
:102a88006c006000e80f500002003200fa000700f6
:102a9800ae003700605a8000610060000000e0006e
:102aa8001d003a0070668000e10f50001a003200e5
:102ab800005a800001102000010060000000e000c2
:102ac800a2003a0080c0eb000040eb00b101070013
:102ad80010c0b30017060700705a8000610060003c
:102ae8000000e000f7ff32006d01070010c0b300de
:102af80010060700005a8000011020000100600045
:102b08000000e0009100320010002000706688008c
:102b18004c2ba9008d003700c05980000000e00050
:102b280029003200401f2000406588008040eb00eb
:102b380010c0b3009701070010c0b300fd050700df
:102b4800705a8000610060000000e000f7ff32006a
:102b580022c0b3008040eb000040eb00ce0107002c
:102b680010c0b300f3050700705a800061006000d0
:102b78000000e000f6ff32004901070020c0b30062
:102b8800ec050700c05980000000e0000f003a0083
:102b9800e482a80040c1b300e60507000000eb008e
:102ba800905a88000c08070010c0b300e105070020
:102bb800905a8000e10f5000faff3a00e482a90021
:102bc8004c0ba800010037004c2ba900605a80006c
:102bd800610060000000e0005c0032000119200084
:102be80060002000c007070030c0b300d10507000f
:102bf800f907070020c0b300ce0507000e6ca90036
:102c080010c0b300cb050700a15b800000192000ad
:102c1800808f5000f1ff3a0031252000600020002d
:102c2800b107070030c0b300c2050700ea07070074
:102c380020c0b300bf0507000e6ca90010c0b30088
:102c4800bc050700a15b800030252000808f500064
:102c5800f1ff3a00d05a80000000e0003b003a0043
:102c6800c15a800060222000808f500037003e004b
:102c78004c0ba80021002000700020009a070700d4
:102c880030c0b300ab050700d307070020c0b3006e
:102c9800a80507000e6ca90010c0b300a505070021
:102ca800e05a8000e20f5000f2ff3e00e05a800038
:102cb800e20f500011003e00aa4ca800e4e2a80070
:102cc80050c0b3009b050700e4e2a900e0c4b300cc
:102cd800cffd070020c0b3009605070012e92800c1
:102ce80011c0b30010c0b30026fd07004c2ba8008c
:102cf8000000eb0040658800030037002e009000bc
:102d08000000e800200798002e009000e40f500013
:102d18000e003600e442a900e4e2a80030c0b30087
:102d280084050700e0c4b300b9fd070020c0b30064
:102d380080050700c2ea280011c0b30010c0b30024
:102d480010fd070050c0b3007a05070050658000e9
:102d5800640060000000e0003c003200e482a8004b
:102d6800d05a8000ea0f500038003e00c15a800057
:102d780060222000808f500034003600e482a900d1
:102d8800315c8000900020005707070030c0b30076
:102d980068050700900707000e6ca90020c0b30063
:102da80064050700815b8000305c8000808f5000e4
:102db800f3ff3a00815b8000e05a8000808f50006a
:102dc8000f003a00100020006066880050c0b30071
:102dd80058050700e4e2a900e0c4b3008cfd070031
:102de80020c0b30053050700a2ec280011c0b300af
:102df80010c0b300e3fc0700aa0ca90003003700c9
:102e08001e0090000000e800100798001e009000c7
:102e1800e20f50000d003600e442a900e4e2a800e9
:102e280030c0b30043050700e442a800e0c4b30083
:102e380077fd070020c0b3003e05070082ee28009a
:102e480011c0b30010c0b300cefc07007060800052
:102e5800680060000000e000010032000e6ca9006c
:102e680000638000680060000000e00071fe32002e
:102e7800606ca9006ffe37000000fa004c4ba800f8
:102e88004c6ba90022c0b3008040eb000040eb006f
:102e98000101070010c0b30026050700705a800022
:102ea800610060000000e000f6ff32000041eb0026
:102eb8008040eb0040c0b300f700070010c0b3002b
:102ec8001c050700705a8000610060000000e000e7
:102ed800f6ff32000041eb008040eb0050c0b30029
:102ee800ed00070010c0b30012050700705a8000fb
:102ef800610060000000e000f6ff320002cab30083
:102f0800f1c0b30070c0b300e300070010c0b30005
:102f180008050700705a8000610060000000e000aa
:102f2800f6ff320042c6b3008040eb0080c0b30019
:102f3800d900070010c0b300fe040700705a8000d3
:102f4800610060000000e000f6ff32005400070056
:102f580020c0b300f704070040cbbf000004e00026
:102f68000e003a00105a80000000e0000b003a0002
:102f7800315a800000fa2000808f500007003a0084
:102f8800415a800040062000808f500003003a001c
:102f98004c4ba9004c6ba800020037004c4ba80012
:102fa8004c6ba9000080fa00000006000400fa003b
:102fb80010c0b30012ecb70010c0b30013ecb70098
:102fc8000040eb0014ecb7000040eb0015ecb70034
:102fd8000040eb0016ecb70010c0b30017ecb700c8
:102fe8001a0ca9001a2ca80060c0b3001cecb7008a
:102ff8000040eb001decb700606ca9001a4ca9005a
:10300800c1c120009140780020c120001a040700a7
:10301800100798001e009000004f78001e407800ae
:1030280018ecb7009e00900000f02f0000806000b0
:103038004800de00004f78001e40780019ecb70009
:103048001cccbf0000c0e8001cecb70033c2bf00b6
:10305800644060000004e00004003a003342a80025
:103068000200370087e0a90097e0a80087c0bf00ea
:1030780001c8b300014060000004e000f9ff3a0015
:1030880012ccbf000080fb00a01188001dccbf003f
:103098000040e8001decb7000080fa0000000600c0
:1030a8000400fa0010c0b30012ecb70040c0b3002f
:1030b80013ecb7000040eb0014ecb7000040eb0045
:1030c80015ecb7000040eb0016ecb700a0c0b30049
:1030d80017ecb7001a0ca9001a2ca80060c0b3009e
:1030e8001cecb7000040eb001decb700c1c120008c
:1030f8009140780020c12000df03070010079800e6
:103108001e009000004f78001e40780018ecb700b1
:103118009e00900000f02f00008060004800de0054
:10312800004f78001e40780019ecb7001cccbf0097
:1031380000c0e8001cecb70033c2bf006440600068
:103148000004e00004003a003342a80002003700ff
:1031580087e0a90097e0a80087c0bf0001c8b300b6
:10316800014060000004e000f9ff3a00606ca9002b
:103178001a4ca90012ccbf000080fb00a0118800e7
:103188001dccbf000040e8001decb7000080fa002d
:10319800000006000600fa004047980051479800d2
:1031a8004c2ba80010c0b30012ecb70050c0b300fd
:1031b80013ecb7000040eb0014ecb7004e40900051
:1031c80015ecb7005e40900016ecb7000040eb002d
:1031d80017ecb7001a0ca8001a2ca9004e0ba9006e
:1031e80060c0b3001cecb7000040eb001decb7005a
:1031f800c1c120009140780020c120009e03070033
:10320800100798001e009000004f78001e407800bc
:1032180018ecb7009e00900000f02f0000806000be
:103228004800de00004f78001e40780019ecb70017
:103238001cccbf0000c0e8001cecb70033c2bf00c4
:10324800644060000004e00004003a003342a80033
:103258000200370087e0a90097e0a80087c0bf00f8
:1032680001c8b300014060000004e000f9ff3a0023
:10327800606ca9001a4ca90012ccbf000080fb00aa
:10328800a01188001dccbf000040e8001decb7006d
:103298000080fa00000006000800fa004047980085
:1032a80051479800624798004c2ba80010c0b30003
:1032b80012ecb70060c0b30013ecb7000040eb009d
:1032c80014ecb7004e40900015ecb7005e4090003b
:1032d80016ecb7006e40900017ecb7001a0ca80067
:1032e8001a2ca9004e0ba90060c0b3001cecb70053
:1032f8000040eb001decb700c1c1200091407800f0
:1033080020c120005c030700100798001e009000f1
:10331800004f78001e40780018ecb7009e0090001f
:1033280000f02f00008060004800de00004f7800a9
:103338001e40780019ecb7001cccbf0000c0e800a4
:103348001cecb70033c2bf00644060000004e0001a
:1033580004003a003342a8000200370087e0a900c1
:1033680097e0a80087c0bf0001c8b3000140600013
:103378000004e000f9ff3a00606ca9001a4ca900ab
:1033880012ccbf000080fb00a01188001dccbf003c
:103398000040e8001decb7000080fa0000000600bd
:1033a8000000fa0045c7bf0081cfb30001406000ac
:1033b80045e7b7004567a90043c7bf000047b2000b
:1033c800f04f5000fcff3a0042c7bf000042b20075
:1033d8000004e000fcff32000080fa000000060054
:1033e8000000fa00e042a900e062a900e082a9001a
:1033f800e0e2a900e0a2a900e0c2a8000080eb007a
:10340800601988000080eb0050198800e4e2a800e9
:10341800e482a900e842a800e862a9000080fa0056
:10342800000006000000fa000000eb0020088800f9
:103438009460a8004110200091407800f0ccb300bf
:1034480000c060000044a00004e1b7000421a90006
:1034580005e1a800007d2000100888000080fa001f
:10346800000006000000fa0080002000001188001b
:10347800004422001011880022c2bf00f043b200ad
:1034880001c4b3000140700022e2b700f019200027
:1034980040118800416a20009140780000ccb300b8
:1034a80000c06000e041b300a4e6b700016d200051
:1034b8009140780000ccb30000c060003040b300f9
:1034c800d0e6b7008560a9008580a9009560a800ae
:1034d8009580a800910a200091407800f0c8b300b8
:1034e80000c0600001c6b30001407000a9e0b70049
:1034f800a10a20009140780080cfb30000c060008e
:103508006040b300aae0b70021e2a8002342a80067
:103518000000eb00f00888009760a800e111200087
:1035280091407800f0ccb30000c060000044a000d7
:103538001ee1b7001e21a90080a92300d008880039
:103548001fe1a8000080fa00000006000000fa0051
:10355800a0002000801188000044220090118800fb
:1035680032c2bf00f043b20001c4b3000140700092
:1035780032e2b700f0192000c0118800616a20000b
:103588009140780000ccb30000c06000a040b300b8
:10359800a6e6b700116d20009140780000ccb3007a
:1035a80000c060005040b300d1e6b70087c0a90052
:1035b80087e0a90097c0a80097e0a800310b200079
:1035c8009140780080cfb30000c060005040b30045
:1035d800b3e0b700310b200091407800f0c8b30089
:1035e80000c0600001c5b30001407000b3e0b7003f
:1035f8003342a80031e2a8000000eb0080088800f0
:1036080094e0a8000111200091407800f0ccb300ac
:1036180000c060000044a00010e1b7001021a9001c
:1036280080a923006008880011e1a8000080fa0042
:10363800000006000000fa008000200080128800c8
:10364800004422009012880052c2bf00f043b2002a
:1036580001c4b3000140700052e2b700200220000c
:10366800c0128800316a20009140780000ccb30075
:1036780000c060007040b300a3e6b700616c200092
:103688009140780000ccb30000c06000c041b30096
:10369800c6e6b7008e40a9008e60a9009e40a8002b
:1036a8009e60a800cdc0bf007040b300cde0b70059
:1036b800d10c20009140780000c7b30000c0700012
:1036c800cde0b7005342a80051e2a8000000eb008b
:1036d800900888009500a8002111200091407800ea
:1036e800f0ccb30000c060000044a00012e1b700b5
:1036f8001221a900204e20007008880013e1a800bc
:103708000080fa00000006000000fa008000200097
:10371800801588000044220090158800b2c2bf00be
:10372800f043b20001c4b30001407000b2e2b70038
:10373800f0192000c0158800616b200091407800c6
:1037480000ccb30000c060000014a000b6e6b700cb
:10375800416c20009140780000ccb30000c06000ac
:10376800e041b300c4e6b7008f00a9008f20a9008c
:103778009f00a8009f20a800010d2000914078001c
:1037880080cfb30000c060000024a000d0e0b700e4
:10379800010d200091407800f0c8b30000c060001f
:1037a80001c4b30001407000d0e0b700b342a800e4
:1037b800b1e2a8000080fa00000006000000fa004c
:1037c800f042a800f062a800f442a900f462a9003f
:1037d8000000eb00301088000000eb00401088006b
:1037e80030012000201088000000eb0060108800e5
:1037f8000000eb00101088009620a8009600a90091
:10380800c10a20009140780080cfb30000c060005a
:10381800ace0b700c10a200091407800f0c8b300be
:1038280000c0600001c4b30001407000ace0b70004
:1038380007e2a8000080fa00000006000000fa0075
:10384800803e2000206588008007200040658800b1
:10385800aa2ca900aa0ca900aa4ca9004c2ba900c3
:103868004e0ba9004c4ba9004c6ba9004c0ba900ae
:103878000080fa00000006003600f800809fbe00b5
:10388800829fbe00849fbe00869fbe000c00fa0087
:10389800c0bc200040079800c0bc2000100798005a
:1038a8000040eb00004f780011ccbf000004e0009e
:1038b8006800320050658000610060000000e00090
:1038c80064003200405e800063006000e20f500038
:1038d8003a003a0011c1200091407800c0bc200095
:1038e800170207000000e00030003200cfcbbf0015
:1038f8000cecb700cecbbf000decb70020b5200014
:1039080040079800cccbbf008080fb004e009000a1
:10391800010878004e0090006400400040079800bd
:10392800cecbbf000080fb000000d10040479800cc
:10393800f0bc200030079800150037003e009000ca
:10394800104078000decb7003e0090000000e80041
:10395800300798003e009000104078000cecb7004b
:10396800616080004e009000010878004e009000d1
:103978000080e800400798003e0090000000e80042
:10398800300798004e4090000040e90040479800fa
:103998004e4090000004e000e8ff3a000e6ca800da
:1039a8000040eb0011ecb7002a0037000040eb00a4
:1039b80011ecb7000e8ca80026003700405e80008e
:1039c80063006000e10f500022003a0011ccbf00f4
:1039d800e84f50001c003a000040eb00004f780010
:1039e8000040eb00304f98000e0037001e0090009a
:1039f80090407800214f98002e489000e14f5000e9
:103a08000200320010c0b300004f78001e00900082
:103a18000000e800100798003e4890000040e800c9
:103a2800304f98003e489000e74f5000efff3600b7
:103a38001e04e000020032000e8ca80005003700ca
:103a48000e4ca800030037000e8ca8000040eb00c5
:103a580011ecb70052c2bf00624060000004e000f1
:103a68000700320002003700b0128000304f980083
:103a780052c2bf00624060000004e000faff3a0052
:103a88008500a9000080fa004f03be004f02be0067
:103a98004f01be004f00be003600f900004006008e
:103aa800809fbe000200fa0070608000680060001d
:103ab8000000e0004a003a005065800061006000a4
:103ac8000000e000460032000000eb0050088800cb
:103ad800311120009140780000c8b30000c0600098
:103ae8000004e00001003a0013e1a80011ccbf0077
:103af8000004e0000e003a00c0bc2000b065880059
:103b0800b1658000b012800080487800b065800000
:103b18000000e800b065880011ccbf000040e80054
:103b280011ecb7000040eb00b4ecb7002e003700f2
:103b3800cccbbf00e14f500003003200cccbbf001c
:103b48000004e00020003a000000eb005008880064
:103b5800b1658000b01280008048780011ccbf00a9
:103b68000040e80011ecb70011ccbf00e24f500054
:103b780007003a00b065800010407800f04f500010
:103b880003003a00b065800010407800b4ecb7003c
:103b980011ccbf00e74f500007003a00b4ccbf007b
:103ba800f04f500004003a00b065800010407800e3
:103bb8006940400010ecb700b06580000000e800e4
:103bc800b06588000800370013e1a900b012800032
:103bd800000f78000040eb0011ecb700020037003e
:103be800b0128000000f78008e40a9000080fa0013
:103bf8004f00be0000400600809fbe000200fa0091
:103c0800b1bc200091407800cacbbf0080cf5000e3
:103c180018003100cbcbbf00e14f500002003a0042
:103c280010bc2000c0658800c06580001040780086
:103c38000080fb00a0128800c06580000000e8003a
:103c4800c0658800cbcbbf000040e800cbebb700d5
:103c58000000eb00000f78000200370000000000b1
:103c68001e0fe800400120009e0f1000fbff3600e9
:103c7800040037000040eb00cbebb7000040eb003e
:103c8800caebb7008e60a9000080fa004f00be00a2
:103c9800004006003600f800809fbe00829fbe00ec
:103ca800849fbe00869fbe001000fa00008020009e
:103cb800400798000080200010079800c08020006e
:103cc800300798000040eb00004f780035cbbf006c
:103cd8000004e000760032004140800000302000ff
:103ce8008080600000202000808f50003f003a0054
:103cf80051b3200091407800c080200010010700d7
:103d08000000e00034003200328ba90032aba90079
:103d180032cba90032eba90003c8bf0030ebb700d3
:103d280002c8bf0031ebb70080b7200040079800f9
:103d38008059800000004000800078004e0090000c
:103d480001004000400798000ec8bf000080fb003b
:103d58000000d10040479800f0802000300798000c
:103d6800150037003e0090001040780031ebb70096
:103d78003e0090000000e800300798003e009000e8
:103d88001040780030ebb700815980004e00900059
:103d9800010878004e0090000080e8004007980075
:103da8003e0090000000e800300798004e40900068
:103db8000040e900404798004e4090000004e000b1
:103dc800e8ff3a00322ba800326ba9000040eb0054
:103dd80035ebb700360037000040eb0035ebb70095
:103de800324ba800326ba9003100370041408000f7
:103df800003020008080600000102000808f50007c
:103e08002b003a0035cbbf00e84f500024003a00a1
:103e18000040eb00004f78000040eb00604f980036
:103e2800150037001e00900090407800514f980010
:103e38003e00900090407800414f9800de48900086
:103e48004e48900080cf50000200320010c0b300ee
:103e5800004f78001e0090000000e800100798004e
:103e68003e0090000000e800300798006e4890007f
:103e78000040e800604f98006e489000e74f5000ff
:103e8800e8ff36001e04e00002003200324ba800b2
:103e980001003700320ba800326ba900040037007c
:103ea800324ba8000040eb000be8b700326ba900ca
:103eb80022c2bf00624060000004e0000700320038
:103ec8000200370030118000604f980022c2bf0006
:103ed800624060000004e000faff3a001fe1a90018
:103ee8008760a9000080fa004f03be004f02be00a1
:103ef8004f01be004f00be003600f900004006002a
:103f0800809fbe000200fa000000eb00a0088800b5
:103f1800f11120009140780000c8b30000c0600093
:103f28000004e00001003a001fe1a80035cbbf0003
:103f38000004e0000c003a00c080200040668800c1
:103f4800416680003011800080487800406680001b
:103f58000000e8004066880035cbbf000040e8005c
:103f680035ebb700170037000000eb00a008880009
:103f7800a0322000000f780035cbbf000080fb0086
:103f88009e0f50000a003100416680003011800009
:103f980080487800406680000000e800406688009d
:103fa80035cbbf000040e80035ebb700050037000f
:103fb8004166800030118000804878000040eb00a6
:103fc80035ebb7008560a9000080fa004f00be00fd
:103fd80000400600809fbe000200fa00b180200069
:103fe800914078000ac8bf0080cf50001a00310005
:103ff8000bc8bf00e14f50000d003a0010802000b0
:10400800506688000a00370050668000104078002b
:104018000080fb0020118800506680000000e80046
:10402800506688000bc8bf000040e8000be8b700e6
:1040380023c2bf00624060000004e0000a003a00aa
:10404800b1802000914078000ac8bf0080cf50009e
:10405800edff3900040037000040eb000be8b70023
:104068000040eb000ae8b7008580a9000080fa004c
:104078004f00be00004006000a00fa003007980012
:10408800014f98000080eb00200798000040eb00eb
:10409800304798003e009000000f78000e489000ce
:1040a800304798001d0037001e0078001040780047
:1040b8008080fb002e009000010068002007980017
:1040c8001e0fe8000040eb00204798001000370062
:1040d8002e009000610060000004e000060032003d
:1040e8002e0090008000d10010002a000080680097
:1040f80020079800030037002e0090000000d10030
:10410800200798002e4090000040e80020479800c3
:104118002e409000e74f5000edff36003e409000e3
:104128000040e900304798003e409000e14f4000d1
:10413800ddff3a002e0090000080fa000000060023
:104148001000fa0050079800414f98000080eb00db
:10415800400798000040eb00304798005e00900050
:10416800000f78004e48900000c0e90030479800e2
:104178001d0037001e007800104078008080fb008a
:104188004e00900001006800400798001e0fe800ec
:104198000040eb0020479800100037004e009000c8
:1041a800610060000004e000060032004e0090004c
:1041b8008000d10010002a000080680040079800a5
:1041c800030037004e0090000000d100400798001f
:1041d8002e4090000040e800204798002e409000b4
:1041e800e74f5000edff36003e4090000040e900e8
:1041f800304798003e409000e14f4000ddff3a0014
:104208005e009000000f78004e4890000080fb0090
:104218001e004000008fe9001e0078001040780062
:104228000080fb00300798003e0090004800dd0049
:10423800300798001e0fe8001e0078001040780034
:104248008080fb003e00900001007000300798005d
:104258001e007800104078000080fb0020079800be
:104268002e0090004800dd00200798001e0fe9008e
:104278001e007800104078008080fb002e0090001f
:104288000100700020079800ce0090003e009000ca
:10429800808f500004003200ce0090002e00900065
:1042a800808f500003003a0010002000700798002b
:1042b800020037000000eb00700798007e009000b5
:1042c8000080fa00000006000800fa003007980095
:1042d8003e00900010079800206580002007980095
:1042e800ae0090001e009000808f5000070039003b
:1042f800216580002e009000810050001e00900073
:10430800808f5000faff3900080037009e009000a7
:104318002e009000008f500020658000813e200014
:104328009e805000810f5000fbff3e000080fa0085
:10433800000006000600fa0040479800e0c1b300fc
:10434800004f78004e40900020479800a2ccbf0054
:10435800304798009e80fb003e4090000080fb00a4
:10436800808050002e4090000080fb00808f50001d
:104378000a003500a2ccbf008080fb003e409000c0
:104388000080fb00808050002e4090000080fb00e1
:10439800808f5000f7ff35000b0037002e4190004a
:1043a8009e4078003e40900000c050000040510000
:1043b8001047980021ca2000914078001e409000c4
:1043c80080cf5000fbff39000080fa000000060093
:1043d8000200fa00d0ccbf000004e0000b003a0055
:1043e80010c0b300d0ecb7000040eb00a2ecb7005f
:1043f8000000eb003065880030658000d1ecb70024
:104408000000eb00000f78000c003700d1ccbf0093
:104418008080fb0030658000808f500005003200ee
:104428000040eb00d0ecb70010002000000f78002f
:10443800020037000000eb00000f78001e00780033
:104448000080fa00000006003600f800809fbe00d9
:10445800829fbe00849fbe00869fbe000c00fa00ab
:10446800e0c1200040079800e0c120001007980034
:104478000040eb00004f780063ccbf000004e00070
:1044880062003200d060800063006000e20f5000dc
:104498003a003a0031c6200091407800e0c120007f
:1044a80027ff07000000e0003000320021ccbf00e9
:1044b8005eecb70020ccbf005fecb70060b3200013
:1044c800400798001eccbf008080fb004e00900083
:1044d800010878004e0090000080e800400798002e
:1044e80020ccbf000080fb000000d10040479800ae
:1044f80010c2200030079800150037003e009000d9
:10450800104078005fecb7003e0090000000e80023
:10451800300798003e009000104078005eecb7002d
:10452800f16280004e009000010878004e00900073
:104538000080e800400798003e0090000000e80076
:10454800300798004e4090000040e900404798002e
:104558004e4090000004e000e8ff3a00606ca800bc
:104568000040eb0063ecb700280037000040eb0088
:1045780063ecb700608ca80024003700d06080008e
:1045880063006000e10f500020003a0063ccbf00d8
:10459800e84f500018003a000040eb00004f780048
:1045a8001e00900090407800214f98002e489000ff
:1045b800e14f50000200320010c0b300004f7800f5
:1045c8001e0090000000e800100798001e04e0009c
:1045d800040032004e0ba900604ca900608ca800b2
:1045e8000a0037004e0ba8000040eb0063ecb70050
:1045f800604ca800050037004e0ba9004c2ba80002
:10460800608ca8000040eb0063ecb70032c2bf002a
:10461800624060000004e00007003200020037003a
:10462800b0118000304f980032c2bf006240600075
:104638000004e000faff3a0084e0a9000080fa00d4
:104648004f03be004f02be004f01be004f00be0028
:104658003600f90000400600809fbe000200fa0004
:1046680000638000680060000000e00027003a0056
:104678000000eb003008880063ccbf000004e000b5
:104688000e003a00e0c12000106688001166800024
:10469800b011800080487800106680000000e800b3
:1046a8001066880063ccbf000040e80063ecb700e8
:1046b8000040eb00c0ecb700160037001eccbf006e
:1046c800e14f50000c003a000000eb003008880071
:1046d80011668000b01180008048780063ccbf006c
:1046e8000040e80063ecb700106680000000e800b6
:1046f8001066880007003700b0118000000f7800ae
:104708000040eb0063ecb70002003700b0118000f6
:10471800000f780087c0a9000080fa004f00be0093
:1047280000400600809fbe000200fa00d1c12000b0
:10473800914078001cccbf0080cf50001800310099
:104748001dccbf00e14f500002003a0030c12000ec
:104758002066880020668000104078000080fb00fa
:10476800a0118800206680000000e800206688000c
:104778001dccbf000040e8001decb7000000eb00b6
:10478800000f780002003700000000001e0fe8004c
:10479800400120009e0f1000fbff36000400370088
:1047a8000040eb001decb7000040eb001cecb7002c
:1047b80087e0a9000080fa004f00be000040060014
:1047c8000200fa0020002000305c88001a00070070
:1047d800315c8000900020007e0007000019200056
:1047e800605c880014000700615c8000a000200065
:1047f800780007000000eb00605c88000e000700ee
:10480800615c8000a000200072000700305c80001e
:10481800e20f500003003a0010002000000f78005b
:10482800020037000000eb00000f78001e0078003f
:104838000080fa00000006000000fa0000c7b3007c
:1048480000e8b70070c7b30001e8b70040c6b3007e
:1048580002e8b700d0c3b30003e8b70000c3b30051
:1048680004e8b70040c3b30005e8b70030c3b3009d
:1048780006e8b70000c3b30007e8b70080c0b3007c
:104888000ae8b7000040eb000be8b700326ba8005d
:10489800322ba900320ba9000908a8000928a90091
:1048a80010c0b3000be8b70095c0bf0070406000af
:1048b8000004e00001003a009580a80000c8bf008d
:1048c8000080fb00201188000ac8bf000004e00037
:1048d800fdff3a00326ba9000080fa0000000600d4
:1048e8000400fa0090598000680060000000e000b1
:1048f80036003a0010c0b30000e8b70030c0b3007b
:1049080001e8b7000040eb0002e8b7000040eb0008
:1049180003e8b7000040eb0004e8b70020c2b3008a
:1049280005e8b70060c0b3000ae8b7000040eb0034
:104938000be8b7000040eb0034ebb7000040eb0099
:1049480035ebb700326ba800322ba900320ba90057
:10495800a18020009140780000802000c6fd07005b
:10496800100798001e009000004f78001e40780045
:1049780006e8b7009e00900000f02f00008060005d
:104988004800de00004f78001e40780007e8b700b6
:104998000ac8bf0000c0e8000ae8b7000908a90073
:1049a8000928a80010c0b3000be8b70095c0bf00e5
:1049b800704060000004e00001003a009580a80003
:1049c80000c8bf000080fb00201188000080fa00aa
:1049d800000006000800fa00200798003107980038
:1049e80090598000680060000000e0003c003a0038
:1049f80010c0b30000e8b70060c0b30001e8b7001a
:104a0800ae00900000f02f00008060004800de003b
:104a180002e8b7002e00900003e8b700be0090003f
:104a280000f02f00008060004800de0004e8b700b6
:104a38003e00900005e8b70060c0b3000ae8b70080
:104a48000040eb000be8b7000040eb0034ebb70088
:104a58000040eb0035ebb700326ba800322ba90001
:104a6800320ba900a180200091407800008020002e
:104a780081fd0700100798001e009000004f780085
:104a88001e40780006e8b7009e00900000f02f0056
:104a9800008060004800de00004f78001e4078006b
:104aa80007e8b7000ac8bf0000c0e8000ae8b70076
:104ab8000908a8000928a90010c0b3000be8b7002e
:104ac80095c0bf00704060000004e00001003a009b
:104ad8009580a80000c8bf000080fb002011880056
:104ae8000080fa00000006000800fa00200798007d
:104af8003107980010c0b300c0ebb70060c0b30026
:104b0800c1ebb700ae00900000f02f0000806000fd
:104b18004800de00c2ebb7002e009000c3ebb700e0
:104b2800be00900000f02f00008060004800de000a
:104b3800c4ebb7003e009000c5ebb70060c0b300ff
:104b4800caebb7000040eb00cbebb7000e6ca90036
:104b5800c84ba900c80ba800c82ba900a1bc2000fd
:104b68009140780000bc200043fd07001007980022
:104b78001e009000004f78001e407800c6ebb7007a
:104b88009e00900000f02f00008060004800de00ca
:104b9800004f78001e407800c7ebb700cacbbf00b3
:104ba80000c0e800caebb70010c0b300cbebb700f9
:104bb8009ec0bf00684060000004e00001003a00a9
:104bc8009e60a800c0cbbf000080fb00a012880038
:104bd8000080fa00000006000400fa0010c0b300cc
:104be800c0ebb70030c0b300c1ebb7000040eb002a
:104bf800c2ebb70010c0b300c3ebb7000040eb0036
:104c0800c4ebb70000c1b300c5ebb70060c0b30088
:104c1800caebb7000040eb00cbebb7000040eb005d
:104c2800cbebb700c80ba900c82ba800a1bc20007b
:104c38009140780000bc20000ffd07001007980085
:104c48001e009000004f78001e407800c6ebb700a9
:104c58009e00900000f02f00008060004800de00f9
:104c6800004f78001e407800c7ebb700cacbbf00e2
:104c780000c0e800caebb70053c2bf006440600040
:104c88000004e00004003a005342a8000200370084
:104c98008e60a9009e60a8008ec0bf0068406000ba
:104ca8000004e000faff3a00c0cbbf000080fb0020
:104cb800a0128800cbcbbf000040e800cbebb700c8
:104cc8000080fa00000006000c00fa0020b5200061
:104cd8005007980060b320004007980040c62000a5
:104ce800300798000000eb00200798000d003700ff
:104cf8005e009000900078003e0090000108780067
:104d08005e0090000080e800500798003e00900088
:104d18000080e800300798002e0090000000e800ae
:104d2800200798002e009000f10f5000f0ff360089
:104d38000000eb00200798000d0037004e0090009f
:104d4800900078003e009000010878004e00900026
:104d58000080e800400798003e0090000080e800ce
:104d6800300798002e0090000000e8002007980007
:104d78002e009000ea0f5000f0ff3600a0c3b300e9
:104d8800a0ecb7000040eb00a1ecb70001ca20007e
:104d98009140780040c62000b7fc07001007980033
:104da8001e009000004f78001e4078009eecb7006f
:104db8009e00900000f02f00008060004800de0098
:104dc800004f78001e4078009fecb700a0ccbf00d1
:104dd80000c0e800a0ecb70010c0b300a1ecb70019
:104de8009fc0bf00624060000004e00001003a007c
:104df8009f20a80020638000a01588000080fa008a
:044e080000000600a0
:020000040000fa
:104e0c00cc0c0000040000000200000000000000b8
:104e1c0000000000a20c00000a00000000000000ce
:104e2c00360b00008a00000000000000c00b0000e0
:104e3c005200000000000000d00c00000200000036
:104e4c000200000000000000b40c0000060000008e
:104e5c0000000000ac0c0000080000000200000084
:104e6c00080000000000000005000000ba0c000063
:104e7c000600000000000000c00c0000060000004e
:104e8c0000000000120c00005200000000000000a6
:104e9c00000800003603000000000000c60c0000f3
:104eac000600000000000000640c00003e00000042
:104ebc0000000000d20c0000020000000000000006
:104ecc00f60c0000120000000200000001000200bd
:104edc00000400000800100000000000202b2d0032
:104eec0023300000080d0000080000000200000044
:104efc00686a6c00747a4c0000000000d40c00004e
:104f0c002200000002000000303132003334350042
:104f1c003637380039616200636465006600300022
:104f2c0031323300343536003738390041424300d2
:0c4f3c004445460000000000000000009a
:020000040000fa
:104f48003600f800809fbe00829fbe00849fbe008e
:104f5800869fbe000000fa00206580000000e00087
:104f68002c003a00803e200020658800a2ccbf00bb
:104f7800fe4f500006003a00306580000080ea00cd
:104f8800306588000040eb00a2ecb7002400370031
:104f9800a2ccbf000040e800a2ecb700406580004a
:104fa8000000e00017003a005065800062006000d1
:104fb8000000e0001300320007ff070048fe07006a
:104fc80041ff0700605a8000620060000000e000b6
:104fd80013003a00a2ccbf000080fb000000a20032
:104fe800610060000004e0000d003200605a80009b
:104ff8006c006000e40f50000900320028f8070038
:1050080007003700406580000000e900406588001f
:1050180003003700206580000000e9002065880053
:105028008460a9000080fa004f03be004f02be0052
:105038004f01be004f00be003600f90000400600d8
:10504800809fbe000200fa0011ca2000914078003b
:10505800a0ccbf0080cf500018003100a1ccbf0009
:10506800e14f500002003a0060c6200090668800b8
:1050780090668000104078000080fb00a015880032
:10508800906680000000e80090668800a1ccbf0010
:105098000040e800a1ecb7000000eb00000f78002a
:1050a80002003700000000001e0fe8004001200049
:1050b8009e0f1000fbff3600040037000040eb0095
:1050c800a1ecb7000040eb00a0ecb7008f20a900ce
:1050d8000080fa004f00be0000400600801f7800e4
:1050e8000000fa00d0658000620060000000e00067
:1050f80014003a0008c2bf00614060000004e000ec
:1051080010003a0009c2bf00644060000004e000db
:105118000c003a0008c2bf00684060000004e000cc
:1051280008003200d0658000610060000000e000e7
:1051380004003a00bcccbf000080fb0010108800bf
:10514800ba2ca8008620a9000080fa004f00780039
:04515800004006000d
:00000001FF
