:020000040000fa
:080000000002040000000000f2
:020000040000fa
:0400080044050000ab
:020000040000fa
:04000c00c802000026
:020000040000fa
:04001000ce0200001c
:020000040000fa
:04001400e402000002
:020000040000fa
:04001800ea020000f8
:020000040000fa
:04001c004405000097
:020000040000fa
:040020004405000093
:020000040000fa
:04002400440500008f
:020000040000fa
:04002800440500008b
:020000040000fa
:04002c004405000087
:020000040000fa
:040030004405000083
:020000040000fa
:04003400440500007f
:020000040000fa
:04003800440500007b
:020000040000fa
:04003c004405000077
:020000040000fa
:040040004405000073
:020000040000fa
:04004400440500006f
:020000040000fa
:04004800f0020000c2
:020000040000fa
:04004c004405000067
:020000040000fa
:040050004405000063
:020000040000fa
:04005400440500005f
:020000040000fa
:04005800440500005b
:020000040000fa
:04005c004405000057
:020000040000fa
:040060004405000053
:020000040000fa
:04006400440500004f
:020000040000fa
:04006800440500004b
:020000040000fa
:04006c004405000047
:020000040000fa
:040070004405000043
:020000040000fa
:04007400440500003f
:020000040000fa
:04007800440500003b
:020000040000fa
:04007c004405000037
:020000040000fa
:040080004405000033
:020000040000fa
:04008400440500002f
:020000040000fa
:04008800440500002b
:020000040000fa
:04008c004405000027
:020000040000fa
:040090004405000023
:020000040000fa
:04009400440500001f
:020000040000fa
:04009800440500001b
:020000040000fa
:04009c004405000017
:020000040000fa
:0400a0004405000013
:020000040000fa
:0400a400440500000f
:020000040000fa
:0400a800440500000b
:020000040000fa
:0400ac004405000007
:020000040000fa
:0400b0004405000003
:020000040000fa
:0400b40044050000ff
:020000040000fa
:0400b80044050000fb
:020000040000fa
:0400bc0044050000f7
:020000040000fa
:0400c00044050000f3
:020000040000fa
:0400c40044050000ef
:020000040000fa
:0400c80044050000eb
:020000040000fa
:0400cc0044050000e7
:020000040000fa
:0400d00044050000e3
:020000040000fa
:0400d40044050000df
:020000040000fa
:0400d80044050000db
:020000040000fa
:0400dc0044050000d7
:020000040000fa
:0400e00044050000d3
:020000040000fa
:0400e40044050000cf
:020000040000fa
:0400e80044050000cb
:020000040000fa
:0400ec0044050000c7
:020000040000fa
:0400f00044050000c3
:020000040000fa
:0400f40044050000bf
:020000040000fa
:0400f80044050000bb
:020000040000fa
:0400fc0044050000b7
:020000040000fa
:0401000044050000b2
:020000040000fa
:0401040044050000ae
:020000040000fa
:0401080044050000aa
:020000040000fa
:04010c0044050000a6
:020000040000fa
:0401100044050000a2
:020000040000fa
:04011400440500009e
:020000040000fa
:04011800440500009a
:020000040000fa
:04011c004405000096
:020000040000fa
:040120004405000092
:020000040000fa
:04012400440500008e
:020000040000fa
:04012800440500008a
:020000040000fa
:04012c004405000086
:020000040000fa
:040130004405000082
:020000040000fa
:04013400440500007e
:020000040000fa
:04013800440500007a
:020000040000fa
:04013c004405000076
:020000040000fa
:040140004405000072
:020000040000fa
:04014400440500006e
:020000040000fa
:04014800440500006a
:020000040000fa
:04014c004405000066
:020000040000fa
:040150004405000062
:020000040000fa
:04015400440500005e
:020000040000fa
:04015800440500005a
:020000040000fa
:04015c004405000056
:020000040000fa
:040160004405000052
:020000040000fa
:04016400440500004e
:020000040000fa
:04016800440500004a
:020000040000fa
:04016c004405000046
:020000040000fa
:040170002c0400005b
:020000040000fa
:04017400ea04000099
:020000040000fa
:04017800440500003a
:020000040000fa
:04017c004405000036
:020000040000fa
:040180004405000032
:020000040000fa
:04018400440500002e
:020000040000fa
:04018800440500002a
:020000040000fa
:04018c004405000026
:020000040000fa
:040190004405000022
:020000040000fa
:04019400440500001e
:020000040000fa
:04019800440500001a
:020000040000fa
:04019c004405000016
:020000040000fa
:0402080044050000a9
:020000040000fa
:04020c00c802000024
:020000040000fa
:04021000ce0200001a
:020000040000fa
:04021400e402000000
:020000040000fa
:04021800ea020000f6
:020000040000fa
:04021c004405000095
:020000040000fa
:040220004405000091
:020000040000fa
:04022400440500008d
:020000040000fa
:040228004405000089
:020000040000fa
:04022c004405000085
:020000040000fa
:040230004405000081
:020000040000fa
:04023400440500007d
:020000040000fa
:040238004405000079
:020000040000fa
:04023c004405000075
:020000040000fa
:040240004405000071
:020000040000fa
:04024400440500006d
:020000040000fa
:04024800f0020000c0
:020000040000fa
:04024c004405000065
:020000040000fa
:040250004405000061
:020000040000fa
:04025400440500005d
:020000040000fa
:040258004405000059
:020000040000fa
:04025c004405000055
:020000040000fa
:040260004405000051
:020000040000fa
:04026400440500004d
:020000040000fa
:040268004405000049
:020000040000fa
:04026c004405000045
:020000040000fa
:040270004405000041
:020000040000fa
:04027400440500003d
:020000040000fa
:040278004405000039
:020000040000fa
:04027c004405000035
:020000040000fa
:040280004405000031
:020000040000fa
:04028400440500002d
:020000040000fa
:040288004405000029
:020000040000fa
:04028c004405000025
:020000040000fa
:040290004405000021
:020000040000fa
:04029400440500001d
:020000040000fa
:040298004405000019
:020000040000fa
:04029c004405000015
:020000040000fa
:0402a0004405000011
:020000040000fa
:0402a400440500000d
:020000040000fa
:0402a8004405000009
:020000040000fa
:0402ac004405000005
:020000040000fa
:0402b0004405000001
:020000040000fa
:0402b40044050000fd
:020000040000fa
:0402b80044050000f9
:020000040000fa
:0402bc0044050000f5
:020000040000fa
:0402c00044050000f1
:020000040000fa
:0402c40044050000ed
:020000040000fa
:0402c80044050000e9
:020000040000fa
:0402cc0044050000e5
:020000040000fa
:0402d00044050000e1
:020000040000fa
:0402d40044050000dd
:020000040000fa
:0402d80044050000d9
:020000040000fa
:0402dc0044050000d5
:020000040000fa
:0402e00044050000d1
:020000040000fa
:0402e40044050000cd
:020000040000fa
:0402e80044050000c9
:020000040000fa
:0402ec0044050000c5
:020000040000fa
:0402f00044050000c1
:020000040000fa
:0402f40044050000bd
:020000040000fa
:0402f80044050000b9
:020000040000fa
:0402fc0044050000b5
:020000040000fa
:0403000044050000b0
:020000040000fa
:0403040044050000ac
:020000040000fa
:0403080044050000a8
:020000040000fa
:04030c0044050000a4
:020000040000fa
:0403100044050000a0
:020000040000fa
:04031400440500009c
:020000040000fa
:040318004405000098
:020000040000fa
:04031c004405000094
:020000040000fa
:040320004405000090
:020000040000fa
:04032400440500008c
:020000040000fa
:040328004405000088
:020000040000fa
:04032c004405000084
:020000040000fa
:040330004405000080
:020000040000fa
:04033400440500007c
:020000040000fa
:040338004405000078
:020000040000fa
:04033c004405000074
:020000040000fa
:040340004405000070
:020000040000fa
:04034400440500006c
:020000040000fa
:040348004405000068
:020000040000fa
:04034c004405000064
:020000040000fa
:040350004405000060
:020000040000fa
:04035400440500005c
:020000040000fa
:040358004405000058
:020000040000fa
:04035c004405000054
:020000040000fa
:040360004405000050
:020000040000fa
:04036400440500004c
:020000040000fa
:040368004405000048
:020000040000fa
:04036c004405000044
:020000040000fa
:040370002c04000059
:020000040000fa
:04037400ea04000097
:020000040000fa
:040378004405000038
:020000040000fa
:04037c004405000034
:020000040000fa
:040380004405000030
:020000040000fa
:04038400440500002c
:020000040000fa
:040388004405000028
:020000040000fa
:04038c004405000024
:020000040000fa
:040390004405000020
:020000040000fa
:04039400440500001c
:020000040000fa
:040398004405000018
:020000040000fa
:04039c004405000014
:020000040000fa
:100400004f8720000e7f24000e01880000000000ae
:10041000000020000000e000020032000001200087
:100420002002880014000700990107000000e00086
:1004300003003a00809320000100200002003700f2
:100440000000200001002000810f70000100320038
:1004500014000700000020000000e000020032004d
:100460000000020000000000b608020000000000ca
:100470000040da000000fe004440a9000000200017
:100480000000e0000300320000002000a00188000e
:100490004440a800000006008a1f78008b1f7800e7
:1004a0000000060091018800800478000000eb0045
:1004b0001a003700e284440032a0b4009905ba0063
:1004c000e284440032a0b4009906ba00e2844400f9
:1004d00032a0b4000006eb00476fde00fd07b2005b
:1004e000636ce10003003a00ebff07000000eb0043
:1004f0000a003700606ce10004003a00005deb0088
:100500008b05e900fdff3e00040037006168e10053
:10051000010032000086eb000b00070019c7ba008b
:100520001905ba000e04e00003003a000a00e000da
:10053000e0ff3a0000000600fe07b2009e018800be
:100540008a047800f5ff3700395dba008b05e900b1
:100550000c003200295dba008b05e900080032006a
:100560000c00e00003003a00e284440032a0b40032
:10057000f5ff370019ddba008b05e900faff3a00f4
:100580008904e800e184440032a0b40000000600c1
:100590000000fa008020a900ffff3700801f7800cc
:1005a0000200fa0010c0b300004f78008060a9007c
:1005b0001e4078000004e000fdff3a000080fa00d1
:1005c0004f007800004006000000fa008040a900bb
:1005d000ffff37000000fa008080a900ffff37000e
:1005e0003600f800809fbe00829fbe00849fbe0040
:1005f000869fbe000c00fa00808020001007980043
:1006000080802000400798000040eb00204f9800b9
:10061000d0842000104078000004e0007a0032000e
:100620003040800063006000e10f500076003a0027
:100630005042800063006000e20f500045003a0025
:10064000fa0107000000e0003b003200b08020000b
:10065000904078008084200001487800a08020002d
:10066000904078009084200001487800e0842000c9
:100670001007980080802000104078008080fb00e8
:100680001e009000010878001e00900064004000e9
:1006900010079800a0802000104078000080fb0028
:1006a0000000d10060479800b0802000200798002b
:1006b000170037002e0090009040780090842000b2
:1006c000014878002e0090000000e8002007980004
:1006d0002e0090009040780080842000014878002f
:1006e000414280001e009000010878001e0090002a
:1006f0000080e800100798002e0090000000e8003d
:10070000200798006e4090000040e9006047980084
:100710006e4090000004e000e6ff3a005042800086
:100720000030a00050428800d08420008040eb00c0
:100730000148780034003700d08420008040eb006e
:1007400001487800504280000040a00050428800dc
:100750002d0037005042800063006000e10f500020
:1007600029003a00d084200010407800e84f500063
:100770001f003a000040eb00204f98000040eb00c3
:10078000004f78000c0037004e0090009040780039
:10079000314f98003e489000e14f50000200320077
:1007a00010c0b300204f98004e0090000000e800f9
:1007b000400798001e4fe8001e407800e74f5000a9
:1007c000f1ff36002e4890000004e00004003200e3
:1007d000504280000040a000504288000a003700cc
:1007e000504280000020a0005042880006003700e0
:1007f000504280000040a00050428800d084200079
:100800008040eb0001487800901280006200600098
:100810000000e0000700320002003700b012800044
:10082000004f780090128000620060000000e0003d
:10083000faff3a0013e1a9008500a9000080fa0040
:100840004f03be004f02be004f01be004f00be006e
:100850003600f90000400600809fbe000200fa004a
:1008600050428000680060000000e00053003a0041
:100870003040800063006000e10f50004f003a00fc
:100880000a21ef009108800000002800008060002d
:100890000000e00001003a0013e1a800d08420002d
:1008a000104078000004e00010003a008080200032
:1008b0001040880010408000b11280008140780014
:1008c00001487800104080000000e80010408800d7
:1008d000d0842000104078008040e800d0842000c0
:1008e000014878000468ef0036003700808020005f
:1008f00010407800e14f500004003200808020005a
:10090000104078000004e00025003a000a21ef00c2
:1009100010408000b11280008140780001487800ca
:10092000d0842000104078008040e800d08420006f
:1009300001487800d084200010407800e24f500039
:1009400007003a001040800010407800f04f50003f
:1009500003003a00104080001040780004e8b7001f
:10096000d084200010407800e74f500008003a0083
:1009700004c8bf00f04f500005003a00104080004e
:1009800010407800e9404000c08420000148780011
:10099000104080000000e800104088000900370087
:1009a00013e1a900b1128000010f7800d08420006b
:1009b0008040eb000148780002003700b11280004f
:1009c000010f78008e40a9000080fa004f00be00a1
:1009d00000400600809fbe000200fa00d084200084
:1009e00090407800c08420001040780080cf5000f4
:1009f0001b003100d084200010407800e14f5000ef
:100a000002003a00908020000040880000408000f2
:100a1000104078000080fb00a01288000040800099
:100a20000000e80000408800d084200010407800da
:100a30008040e800d0842000014878000000eb00ee
:100a4000000f780002003700000000001e0fe800d1
:100a50001e007800f40f5000fbff36000600370040
:100a6000d08420008040eb0001487800c084200042
:100a70008040eb00014878008e60a9000080fa00f9
:100a80004f00be00004006000040da000000fe00fb
:040a9000000005005d
:020000040000fa
:100a94000800fa00200798003107980080802000a1
:100aa40011c0b300014878009080200061c0b300f9
:100ab400014878002e0090004800de008040780055
:100ac400a0802000014878002e009000804078002b
:100ad400b0802000014878003e0090004800de000d
:100ae40080407800c0802000014878003e009000db
:100af40080407800d080200001487800c084200025
:100b040061c0b30001487800d08420008040eb002d
:100b140001487800d08420008040eb000148780030
:100b2400504280000030a1005042880050428000b2
:100b34000020a1005042880051428000c0ff2f00d5
:100b4400008060000000a00050428800c0842000a3
:100b54001040780080407800808020007c000700ee
:100b6400000f78001e00780020479800e0802000e5
:100b7400ae409000014878001e0078004800de0076
:100b840020479800f0802000ae4090000148780093
:100b9400c08420001040780080c0e800c084200099
:100ba40001487800d084200011c0b30001487800c7
:100bb400f0048000680060000000e00001003a00da
:100bc4009e60a80080802000104078000080fb0018
:100bd400a01288000080fa00000006000400fa0059
:100be400201780004500de006140600000c0ea007c
:100bf400614060000080fb00610060004500dd0092
:100c0400211780000150a100010070002017880006
:100c14008080200011c0b30001487800908020003b
:100c240031c0b30001487800a08020008040eb0070
:100c340001487800b080200011c0b300014878005a
:100c4400c08020008040eb0001487800d080200064
:100c5400f1c0b30001487800c084200061c0b30033
:100c640001487800d08420008040eb0001487800df
:100c7400d08420008040eb0001487800514280007d
:100c8400c0ff2f00008060000010a00050428800c8
:100c9400c0842000104078008040780080802000cc
:100ca4002b000700000f78001e00780020479800f2
:100cb400e0802000ae409000014878001e007800db
:100cc4004800de0020479800f0802000ae409000ed
:100cd40001487800c08420001040780080c0e800fb
:100ce400c084200001487800911280000040200058
:100cf400008060000000e00005003a005342a800b4
:100d0400040037008e60a9009e60a800010037002f
:100d14000000000070048000680060000000e00033
:100d2400f8ff3a0080802000104078000080fb002b
:100d3400a0128800d0842000104078008040e80091
:100d4400d0842000014878000080fa0000000600ea
:100d54000a00fa0030079800014f98000080eb0069
:100d6400000f78000040eb0020479800be00900080
:100d7400210798008e489000214798001d003700f5
:100d84002e009000104078000080fb001e0f6800c9
:100d94002e0090000000e800200798000040eb00bf
:100da40030479800100037001e0078006100600092
:100db400004078000004e000050032001e007800c6
:100dc4008000d10010002a00008f68000300370063
:100dd4001e0078000000d100000f78003e40900013
:100de4000040e800304798003e409000e74f500034
:100df400edff36002e4090000080fb000000ea006a
:100e04004f00de0000407800ae4090008140e900d1
:100e1400214798000004e000d9ff3a001e00780042
:100e24000080fa00000006000a00fa000080eb00cf
:100e3400000f78000040eb002047980080802000dd
:100e440020079800d08420001040780000c0e900fa
:100e5400204798001d0037002e00900010407800b5
:100e64000080fb001e0f68002e0090000000e800c8
:100e7400200798000040eb0030479800100037002e
:100e84001e00780061006000004078000004e0006b
:100e9400050032001e0078008000d10010002a00f6
:100ea400008f6800030037001e0078000000d100a6
:100eb400000f78003e4090000040e8003047980062
:100ec4003e409000e74f5000edff36002e4090006a
:100ed4000080fb000000ea004f00de0000407800c4
:100ee400ae4090008140e900214798000004e000f2
:100ef400d9ff3a008080200020079800d084200089
:100f0400104078000080fb000080e900ae009000f3
:100f140000804000200798002e00900010407800c8
:100f24000080fb00300798003e0090004800dd0080
:100f3400300798002e0090000000e8002007980079
:100f44002e009000104078000080fb00be0090004e
:100f540001007000300798002e00900010407800c7
:100f64000080fb00400798004e0090004800dd0020
:100f7400400798002e0090000000e9002007980028
:100f84002e009000104078000080fb00ce009000fe
:100f940001007000400798003e0090009e00780019
:100fa400808f5000040032004e0090009e007800b4
:100fb400808f500002003a0010002000010037002a
:100fc4000000eb000080fa00000006000000fa00b8
:100fd400213a8000f08f2f0000806000203a8800c2
:100fe4004567a90000000000113a800000002700b6
:100ff4008080600000002100808f5000faff3a00da
:1010040000000000113a800000022000008060000f
:101014000000e000fbff32000080fa000000060040
:101024000000fa00e082a900e0e2a900e0a2a90021
:10103400e0c2a8000080eb00601988000080eb008b
:1010440050198800e4e2a800e842a800e862a90078
:101054000080fa00000006000000fa008000200072
:1010640080128800004422009012880091128000af
:10107400f0f32f00008060000060a0009012880050
:1010840020022000c012880011358000f00f2c00cf
:10109400808060000070200001007000103588001e
:1010a4003136800000fc2f0000806000c001b300d6
:1010b400303688008e40a9008e60a9009e40a800aa
:1010c4009e60a80061068000f08f2f008080600081
:1010d4000050200001007000600688006106800056
:1010e400f0ff2800808060000000250001007000ef
:1010f400600688005342a80051e2a8001221ef00c4
:101104009500a8008500a90091088000f0fc2f003c
:10111400008060000040a000900888001221a9000f
:10112400204e2000700888000080fa0000000600ad
:101134000200fa00000f7800000000001e00780092
:1011440000f0a7000000ea000000ea004f00de0003
:10115400004078001e0fe9000004e000f7ff3a00a9
:101164000080fa00000006000200fa000000eb0014
:10117400000f780095ff07000648a9000668a8003c
:101184000608a9000628a800a5ff0700b2ff07006b
:10119400e4e2a800e4a2a9000080eb00e4ff070059
:1011a4000080eb00e2ff0700e4e2a900e4a2a8004b
:1011b4000100370000000000111780000004200027
:1011c400008060000000e00008003a0002003700e0
:1011d4000608a8000628a9001117800000042000b2
:1011e400008060000000e000f9ff32003040800021
:1011f40063006000e10f5000eeff3a0050428000af
:10120400680060000000e00013003a001e0078004f
:10121400e30f500010003e00304080006c0060007e
:10122400e80f50000c003a006cfe07000080eb0051
:10123400bfff070070428000e10f500003003a0036
:101244000648a8000668a900010037001e0fe80040
:1012540000000000d8ff37000648a9000668a8006f
:0c1264000000eb00000f7800d3ff370003
:020000040000fa
:101270000608000002000000000000004e08000008
:1012800026000000000000000808000046000000e2
:101290000000000000080000060000000000000040
:0412a000000000004a
:020000040000fa
:020000040002f8
:04aff800bf7900001d
:020000040000fa
:020000040002f8
:04affc007fbf000013
:00000001FF
