:020000040000fa
:080000000002040000000000f2
:020000040000fa
:040008006803000089
:020000040000fa
:04000c00c802000026
:020000040000fa
:04001000ce0200001c
:020000040000fa
:04001400e402000002
:020000040000fa
:04001800ea020000f8
:020000040000fa
:04001c006803000075
:020000040000fa
:040020006803000071
:020000040000fa
:04002400680300006d
:020000040000fa
:040028006803000069
:020000040000fa
:04002c006803000065
:020000040000fa
:040030006803000061
:020000040000fa
:04003400f0020000d6
:020000040000fa
:040038006803000059
:020000040000fa
:04003c006803000055
:020000040000fa
:040040006803000051
:020000040000fa
:04004400680300004d
:020000040000fa
:040048006803000049
:020000040000fa
:04004c006803000045
:020000040000fa
:040050006803000041
:020000040000fa
:04005400680300003d
:020000040000fa
:040058006803000039
:020000040000fa
:04005c006803000035
:020000040000fa
:040060006803000031
:020000040000fa
:04006400680300002d
:020000040000fa
:040068006803000029
:020000040000fa
:04006c002c03000061
:020000040000fa
:040070006803000021
:020000040000fa
:04007400680300001d
:020000040000fa
:040078006803000019
:020000040000fa
:04007c006803000015
:020000040000fa
:040080006803000011
:020000040000fa
:04008400680300000d
:020000040000fa
:040088006803000009
:020000040000fa
:04008c006803000005
:020000040000fa
:040090006803000001
:020000040000fa
:0400940068030000fd
:020000040000fa
:0400980068030000f9
:020000040000fa
:04009c0068030000f5
:020000040000fa
:0400a00068030000f1
:020000040000fa
:0400a40068030000ed
:020000040000fa
:0400a80068030000e9
:020000040000fa
:0400ac0068030000e5
:020000040000fa
:0400b00068030000e1
:020000040000fa
:0400b40068030000dd
:020000040000fa
:0400b80068030000d9
:020000040000fa
:0400bc0068030000d5
:020000040000fa
:0400c00068030000d1
:020000040000fa
:0400c40068030000cd
:020000040000fa
:0400c80068030000c9
:020000040000fa
:0400cc0068030000c5
:020000040000fa
:0400d00068030000c1
:020000040000fa
:0400d40068030000bd
:020000040000fa
:0400d80068030000b9
:020000040000fa
:0400dc0068030000b5
:020000040000fa
:0400e00068030000b1
:020000040000fa
:0400e40068030000ad
:020000040000fa
:0400e80068030000a9
:020000040000fa
:0400ec0068030000a5
:020000040000fa
:0400f00068030000a1
:020000040000fa
:0400f400680300009d
:020000040000fa
:0400f8006803000099
:020000040000fa
:0400fc006803000095
:020000040000fa
:040100006803000090
:020000040000fa
:04010400680300008c
:020000040000fa
:040108006803000088
:020000040000fa
:04010c006803000084
:020000040000fa
:040110006803000080
:020000040000fa
:04011400680300007c
:020000040000fa
:040118006803000078
:020000040000fa
:04011c006803000074
:020000040000fa
:040120006803000070
:020000040000fa
:04012400680300006c
:020000040000fa
:040128006803000068
:020000040000fa
:04012c006803000064
:020000040000fa
:040130006803000060
:020000040000fa
:04013400680300005c
:020000040000fa
:040138006803000058
:020000040000fa
:04013c006803000054
:020000040000fa
:040140006803000050
:020000040000fa
:04014400680300004c
:020000040000fa
:040148006803000048
:020000040000fa
:04014c006803000044
:020000040000fa
:040150006803000040
:020000040000fa
:04015400680300003c
:020000040000fa
:040158006803000038
:020000040000fa
:04015c006803000034
:020000040000fa
:040160006803000030
:020000040000fa
:04016400680300002c
:020000040000fa
:040168006803000028
:020000040000fa
:04016c006803000024
:020000040000fa
:040170006803000020
:020000040000fa
:04017400680300001c
:020000040000fa
:040178006803000018
:020000040000fa
:04017c006803000014
:020000040000fa
:040180006803000010
:020000040000fa
:04018400680300000c
:020000040000fa
:040188006803000008
:020000040000fa
:04018c006803000004
:020000040000fa
:040190006803000000
:020000040000fa
:0401940068030000fc
:020000040000fa
:0401980068030000f8
:020000040000fa
:04019c0068030000f4
:020000040000fa
:040208006803000087
:020000040000fa
:04020c00c802000024
:020000040000fa
:04021000ce0200001a
:020000040000fa
:04021400e402000000
:020000040000fa
:04021800ea020000f6
:020000040000fa
:04021c006803000073
:020000040000fa
:04022000680300006f
:020000040000fa
:04022400680300006b
:020000040000fa
:040228006803000067
:020000040000fa
:04022c006803000063
:020000040000fa
:04023000680300005f
:020000040000fa
:04023400f0020000d4
:020000040000fa
:040238006803000057
:020000040000fa
:04023c006803000053
:020000040000fa
:04024000680300004f
:020000040000fa
:04024400680300004b
:020000040000fa
:040248006803000047
:020000040000fa
:04024c006803000043
:020000040000fa
:04025000680300003f
:020000040000fa
:04025400680300003b
:020000040000fa
:040258006803000037
:020000040000fa
:04025c006803000033
:020000040000fa
:04026000680300002f
:020000040000fa
:04026400680300002b
:020000040000fa
:040268006803000027
:020000040000fa
:04026c002c0300005f
:020000040000fa
:04027000680300001f
:020000040000fa
:04027400680300001b
:020000040000fa
:040278006803000017
:020000040000fa
:04027c006803000013
:020000040000fa
:04028000680300000f
:020000040000fa
:04028400680300000b
:020000040000fa
:040288006803000007
:020000040000fa
:04028c006803000003
:020000040000fa
:0402900068030000ff
:020000040000fa
:0402940068030000fb
:020000040000fa
:0402980068030000f7
:020000040000fa
:04029c0068030000f3
:020000040000fa
:0402a00068030000ef
:020000040000fa
:0402a40068030000eb
:020000040000fa
:0402a80068030000e7
:020000040000fa
:0402ac0068030000e3
:020000040000fa
:0402b00068030000df
:020000040000fa
:0402b40068030000db
:020000040000fa
:0402b80068030000d7
:020000040000fa
:0402bc0068030000d3
:020000040000fa
:0402c00068030000cf
:020000040000fa
:0402c40068030000cb
:020000040000fa
:0402c80068030000c7
:020000040000fa
:0402cc0068030000c3
:020000040000fa
:0402d00068030000bf
:020000040000fa
:0402d40068030000bb
:020000040000fa
:0402d80068030000b7
:020000040000fa
:0402dc0068030000b3
:020000040000fa
:0402e00068030000af
:020000040000fa
:0402e40068030000ab
:020000040000fa
:0402e80068030000a7
:020000040000fa
:0402ec0068030000a3
:020000040000fa
:0402f000680300009f
:020000040000fa
:0402f400680300009b
:020000040000fa
:0402f8006803000097
:020000040000fa
:0402fc006803000093
:020000040000fa
:04030000680300008e
:020000040000fa
:04030400680300008a
:020000040000fa
:040308006803000086
:020000040000fa
:04030c006803000082
:020000040000fa
:04031000680300007e
:020000040000fa
:04031400680300007a
:020000040000fa
:040318006803000076
:020000040000fa
:04031c006803000072
:020000040000fa
:04032000680300006e
:020000040000fa
:04032400680300006a
:020000040000fa
:040328006803000066
:020000040000fa
:04032c006803000062
:020000040000fa
:04033000680300005e
:020000040000fa
:04033400680300005a
:020000040000fa
:040338006803000056
:020000040000fa
:04033c006803000052
:020000040000fa
:04034000680300004e
:020000040000fa
:04034400680300004a
:020000040000fa
:040348006803000046
:020000040000fa
:04034c006803000042
:020000040000fa
:04035000680300003e
:020000040000fa
:04035400680300003a
:020000040000fa
:040358006803000036
:020000040000fa
:04035c006803000032
:020000040000fa
:04036000680300002e
:020000040000fa
:04036400680300002a
:020000040000fa
:040368006803000026
:020000040000fa
:04036c006803000022
:020000040000fa
:04037000680300001e
:020000040000fa
:04037400680300001a
:020000040000fa
:040378006803000016
:020000040000fa
:04037c006803000012
:020000040000fa
:04038000680300000e
:020000040000fa
:04038400680300000a
:020000040000fa
:040388006803000006
:020000040000fa
:04038c006803000002
:020000040000fa
:0403900068030000fe
:020000040000fa
:0403940068030000fa
:020000040000fa
:0403980068030000f6
:020000040000fa
:04039c0068030000f2
:020000040000fa
:100400006f8820000e7f24000e018800000000008d
:10041000000020000000e000020032000001200087
:100420002002880014000700ab0007000000e00075
:1004300003003a00e09a200001002000020037008b
:100440000000200001002000810f70000100320038
:1004500014000700000020000000e000020032004d
:10046000000002000000000064090200000000001b
:100470000040da000000fe004440a90040002000d7
:100480000000e0000300320000002000a00188000e
:100490004440a800000006008a1f78008b1f7800e7
:1004a0000000060091018800800478000000eb0045
:1004b0001a003700e284440032a0b4009905ba0063
:1004c000e284440032a0b4009906ba00e2844400f9
:1004d00032a0b4000006eb00476fde00fd07b2005b
:1004e000636ce10003003a00ebff07000000eb0043
:1004f0000a003700606ce10004003a00005deb0088
:100500008b05e900fdff3e00040037006168e10053
:10051000010032000086eb000b00070019c7ba008b
:100520001905ba000e04e00003003a000a00e000da
:10053000e0ff3a0000000600fe07b2009e018800be
:100540008a047800f5ff3700395dba008b05e900b1
:100550000c003200295dba008b05e900080032006a
:100560000c00e00003003a00e284440032a0b40032
:10057000f5ff370019ddba008b05e900faff3a00f4
:100580008904e800e184440032a0b40000000600c1
:100590000000fa008020a900ffff3700801f7800cc
:1005a0000200fa0010c0b300004f78008060a9007c
:1005b0001e4078000004e000fdff3a000080fa00d1
:1005c0004f007800004006000000fa008040a900bb
:1005d000ffff37000000fa008080a900ffff37000e
:1005e000809fbe000000fa00104480000000e00080
:1005f00012003a00803e200010448800108820003d
:1006000010407800fe4f500006003a001000200015
:1006100020448800108820008040eb0001487800ca
:100620000900370010882000104078008040e80062
:100630001088200001487800030037001044800033
:100640000000e900104488008460a9000080fa00de
:100650004f00be0000400600809fbe000000fa0070
:100660004110800000402000008060000000e00099
:1006700012003a0040108000680060000000e000b6
:100680000800320010408000610060000000e000bf
:100690000b003a0004c8bf000080fb001010880067
:1006a0000700370040108000700060000000e0008c
:1006b000030032000602a800010037000642a8002d
:1006c0008620a9000080fa004f00be00004006000e
:0c06d0000040da000000fe000000050001
:020000040000fa
:0806dc002031000000000000c5
:020000040000fa
:1006e4000000fa000000000030108000610060008b
:1006f4000000e000fcff3a0030108000640060005d
:100704000000e000f8ff3a0030108000680060004c
:100714000000e000f4ff3a00301080007000600038
:100724000000e000f0ff3a004110800000002400c7
:10073400008060000000e000ebff3a000080fa0057
:10074400000006000000fa00e5ff07000602a8000a
:100754000080fa00000006000000fa00e0ff070035
:100764000622a8000080fa00000006000000fa003b
:10077400dbff07000642a8000080fa000000060024
:100784000000fa0006a2a900d5ff07000682a8000f
:100794000080fa00000006000000fa0006a2a8008b
:1007a400cfff07000682a8000080fa0000000600c0
:1007b4000200fa00004f78001e41780041802000ba
:1007c400824878000208a900000000004010800060
:1007d400610060000000e000fcff3a00000000003f
:1007e40030048000620060000000e000fcff320082
:1007f4008620a900401080004f00de0000407800f1
:100804000080fa00000006000600fa00004f78009d
:1008140011479800224798002307980001003700e9
:100824000942a900411080000040200000806000bf
:100834000000e000faff3a00a9ff07001e4078001c
:1008440007000700ae4090001e40900077000700ac
:100854002e009000600007000080fa0000000600ef
:100864000200fa00004f78001e4178001180200039
:10087400824878000040eb0024000700c0032000f9
:100884004901070030c0b30039000700a000200070
:100894004501070030c0b30035000700a000200068
:1008a4004101070030c0b30031000700a000200060
:1008b4003d01070020c0b3002d000700a000200068
:1008c4003901070080c2b300290007004006200058
:1008d40035010700c0c0b300250007004006200012
:1008e4003101070010c0b3002100070040062000ba
:1008f4002d01070060c0b3001d0007004006200062
:10090400290107000080fa00000006000200fa0036
:10091400004f78008bff070001c8bf00a4ff070049
:1009240006c8bf001e407000a1ff07008fff07002c
:100934000080fa00000006000200fa00004f780070
:1009440000c8bf001e4f70001e4078000024a000a5
:10095400eeff07001e4078000024a100ebff070013
:1009640050002000100107000080fa00000006007b
:100974000200fa00004f78000068ef0000cfb300d7
:100984001e406000ecff07001e80fb004400dd00f9
:1009940000407800e8ff07000080fa00000006002d
:1009a4000200fa00004f780010c0b30000e8b7005e
:1009b4009e40780000cfb30000c06000deff070057
:1009c4001e00fb004400dd0000407800daff070051
:1009d4000080fa00000006000400fa0010079800e6
:1009e4000000eb00000f78000000eb00000f78001f
:1009f400060037001e0078009e0090000080400032
:100a040010407800e6ff07001e0fe8001e00780083
:100a14009e00900000804000104078000004e00038
:100a2400f4ff3a000080fa00000006000200fa0019
:100a3400004f7800114798001e80fb00e30f500020
:100a440009003200e40f50000c003200e20f5000a5
:100a54000f003a009e409000f0cbb30000c040006d
:100a6400c3ff07000d0037009e40900030c9b3005b
:100a740000c04000beff0700080037009e40900001
:100a840030cdb30000c04000b9ff070003003700b9
:100a94001e409000f047b000b5ff07000080fa0048
:100aa400000006000000fa0080c0b30006e8b700aa
:100ab4000040eb0095ff07000080fa0000000600ec
:100ac4000000fa000668ef000040eb008fff07000b
:100ad4000080fa00000006000000fa0080c1b300a4
:100ae400a3ff070050002000af0007000080fa00b9
:100af400000006000000fa00c0c1b3009cff07001c
:100b040050002000a80007000080fa000000060042
:100b14000000fa0010c0b30095ff07005000200049
:100b2400a10007000080fa00000006000a00fa0095
:100b340030079800014f98000080eb00000f780008
:100b44000040eb0020479800be0090002107980069
:100b54008e489000214798001d0037002e00900019
:100b6400104078000080fb001e0f68002e009000eb
:100b74000000e800200798000040eb003047980090
:100b8400100037001e00780061006000004078000b
:100b94000004e000050032001e0078008000d1004f
:100ba40010002a00008f6800030037001e00780040
:100bb4000000d100000f78003e4090000040e800a3
:100bc400304798003e409000e74f5000edff36005c
:100bd4002e4090000080fb000000ea004f00de0081
:100be40000407800ae4090008140e9002147980021
:100bf4000004e000d9ff3a001e0078000080fa00eb
:100c0400000006000a00fa000080eb00000f7800e4
:100c14000040eb0020479800408120002007980006
:100c2400908520001040780000c0e900204798001b
:100c34001d0037002e009000104078000080fb005b
:100c44001e0f68002e0090000000e80020079800a6
:100c54000040eb0030479800100037001e00780079
:100c640061006000004078000004e00005003200ec
:100c74001e0078008000d10010002a00008f680058
:100c8400030037001e0078000000d100000f780038
:100c94003e4090000040e800304798003e409000fd
:100ca400e74f5000edff36002e4090000080fb001f
:100cb4000000ea004f00de0000407800ae409000e3
:100cc4008140e900214798000004e000d9ff3a0080
:100cd4004081200020079800908520001040780073
:100ce4000080fb000080e900ae009000008040001e
:100cf400200798002e009000104078000080fb0030
:100d0400300798003e0090004800dd00300798004e
:100d14002e0090000000e800200798002e009000ac
:100d2400104078000080fb00be00900001007000bd
:100d3400300798002e009000104078000080fb00df
:100d4400400798004e0090004800dd0040079800de
:100d54002e0090000000e900200798002e0090006b
:100d6400104078000080fb00ce009000010070006d
:100d7400400798003e0090009e007800808f50004d
:100d8400040032004e0090009e007800808f5000d6
:100d940002003a0010002000010037000000eb00c0
:100da4000080fa00000006000600fa002007980000
:100db400ae009000010f78001044800010079800e6
:100dc400000000009e0090001044800080805000cd
:100dd4001e007800808f5000faff39000000eb00fd
:100de400000f78000080fa00000006000600fa00f8
:100df40020079800ae009000010f780010882000b2
:100e0400104078000080fb001007980000000000ec
:100e140010882000104078008080fb001e009000a5
:100e2400008050009e0f5000f9ff35000080fa004a
:100e3400000006000800fa00200798003107980017
:100e44008080200011c0b300014878009080200009
:100e540061c0b300014878002e0090004800de0015
:100e640080407800a0802000014878002e00900087
:100e740080407800b0802000014878003e00900057
:100e84004800de0080407800c080200001487800df
:100e94003e00900080407800d08020000148780017
:100ea4002081200061c0b300014878003081200017
:100eb4008040eb0001487800308120008040eb0046
:100ec40001487800b04280000030a100b0428800a0
:100ed400804080000020a100804088008140800084
:100ee400c0ff2f00008060000000a0008040880048
:100ef400208120001040780080407800808020000d
:100f04000aff0700000f78001e00780020479800b1
:100f1400e0802000ae409000014878001e00780078
:100f24004800de0020479800f0802000ae4090008a
:100f340001487800208120001040780080c0e8003b
:100f440020812000014878003081200011c0b300c6
:100f540001487800f0048000680060000000e000b0
:100f640001003a009e60a8008080200010407800b4
:100f74000080fb00a01288000080fa000000060038
:100f84000400fa008080200011c0b30001487800fa
:100f94009080200031c0b30001487800a080200078
:100fa4008040eb0001487800b080200011c0b300fd
:100fb40001487800c08020008040eb0001487800a0
:100fc400d0802000f1c0b3000148780020812000c7
:100fd40061c0b30001487800308120008040eb00fc
:100fe40001487800308120008040eb0001487800ff
:100ff40081408000c0ff2f00008060000010a0002e
:1010040080408800208120001040780080407800d3
:1010140080802000c5fe0700000f78001e007800c5
:1010240020479800e0802000ae40900001487800fe
:101034001e0078004800de0020479800f080200061
:10104400ae409000014878002081200010407800d4
:1010540080c0e800208120000148780091128000bf
:1010640000402000008060000000e00005003a001d
:101074005342a800040037008e60a9009e60a800b7
:101084000100370000000000700480006800600068
:101094000000e000f8ff3a00808020001040780053
:1010a4000080fb00a01288003081200010407800ee
:1010b4008040e80030812000014878000080fa0078
:1010c400000006000000fa00213a8000f08f2f0093
:1010d40000806000203a88004567a90000000000f5
:1010e400113a800000002700808060000000210089
:1010f400808f5000faff3a0000000000113a80008f
:1011040000022000008060000000e000fbff3200cd
:101114000080fa00000006000000fa00e062a90066
:10112400e082a900e0e2a900e0a2a900e0c2a800d0
:101134000080eb00601988000080eb0050198800e3
:10114400e4e2a800e842a800e862a9000080fa00ee
:10115400000006000000fa008000200080128800d1
:10116400004422009012880091128000f0f32f00b6
:10117400008060000060a00090128800200220001f
:10118400c012880011358000f00f2c0080806000b0
:101194000070200001007000103588003136800096
:1011a40000fc2f0000806000c001b30030368800ce
:1011b4008e40a9008e60a9009e40a8009e60a800f1
:1011c40061068000f08f2f008080600000502000b6
:1011d400010070006006880061068000f0ff2800ae
:1011e4008080600000002500010070006006880017
:1011f4005342a80051e2a8001221ef009500a80074
:1012040091088000f0fc2f00008060000040a000e6
:10121400900888001221a900204e20007008880040
:101224000080fa00000006000000fa00f042a80066
:10123400f062a800f442a900f462a9000622ef00bb
:101244000822ef0030012000201088000c22ef005b
:101254000222ef009620a8009600a90061058000f4
:1012640080ff2f0000806000600588006105800019
:10127400f0f82f00008060000060a0006005880086
:1012840007e2a8000080fa00000006000200fa004d
:10129400000f7800000000001e00780000f0a70096
:1012a4000000ea000000ea004f00de000040780081
:1012b4001e0fe9000004e000f7ff3a000080fa0086
:1012c400000006000600fa000000eb00000f7800a2
:1012d4000000eb00100798000000eb0020079800c6
:1012e40078ff0700803e20001044880001448000fd
:1012f40030ff2f00008060000030a0000044880010
:1013040001448000c0ff2f00008060000010a00096
:101314000044880080ff070020000700c2ff070088
:10132400e4e2a800e4a2a90010002000affe070038
:10133400e4e2a900e4a2a80030002000abfe07000c
:10134400e336280012c0b30011c0b300e0c4b300f8
:081354002dfd0700faff370030
:020000040000fa
:10135c008008000006000000000000005a08000091
:10136c0026000000000000000808000052000000e9
:10137c000000000000080000060000000000000053
:10138c000608000002000000020000000800000037
:04139c00000000004d
:020000040000fa
:1013a0000000fa000421ef009460a80021088000ea
:1013b000f0fc2f00008060000040a00020088800a2
:1013c0000421a90005e1a800007d20001008880084
:0813d0000080fa000000060095
:020000040000fa
:020000040002f8
:04aff800bf7900001d
:020000040000fa
:020000040002f8
:04affc007fbf000013
:00000001FF
