:020000040000fa
:080000000002040000000000f2
:020000040000fa
:04000800940400005c
:020000040000fa
:04000c00c802000026
:020000040000fa
:04001000ce0200001c
:020000040000fa
:04001400e402000002
:020000040000fa
:04001800ea020000f8
:020000040000fa
:04001c009404000048
:020000040000fa
:040020009404000044
:020000040000fa
:040024009404000040
:020000040000fa
:04002800940400003c
:020000040000fa
:04002c009404000038
:020000040000fa
:040030009404000034
:020000040000fa
:040034009404000030
:020000040000fa
:04003800940400002c
:020000040000fa
:04003c009404000028
:020000040000fa
:040040009404000024
:020000040000fa
:040044009404000020
:020000040000fa
:04004800f0020000c2
:020000040000fa
:04004c009404000018
:020000040000fa
:040050009404000014
:020000040000fa
:040054009404000010
:020000040000fa
:04005800940400000c
:020000040000fa
:04005c009404000008
:020000040000fa
:040060009404000004
:020000040000fa
:040064009404000000
:020000040000fa
:0400680094040000fc
:020000040000fa
:04006c0094040000f8
:020000040000fa
:0400700094040000f4
:020000040000fa
:0400740094040000f0
:020000040000fa
:0400780094040000ec
:020000040000fa
:04007c0094040000e8
:020000040000fa
:0400800094040000e4
:020000040000fa
:0400840094040000e0
:020000040000fa
:0400880094040000dc
:020000040000fa
:04008c0094040000d8
:020000040000fa
:0400900094040000d4
:020000040000fa
:0400940094040000d0
:020000040000fa
:0400980094040000cc
:020000040000fa
:04009c0094040000c8
:020000040000fa
:0400a00094040000c4
:020000040000fa
:0400a40094040000c0
:020000040000fa
:0400a80094040000bc
:020000040000fa
:0400ac0094040000b8
:020000040000fa
:0400b00094040000b4
:020000040000fa
:0400b40094040000b0
:020000040000fa
:0400b80094040000ac
:020000040000fa
:0400bc0094040000a8
:020000040000fa
:0400c00094040000a4
:020000040000fa
:0400c40094040000a0
:020000040000fa
:0400c800940400009c
:020000040000fa
:0400cc009404000098
:020000040000fa
:0400d0009404000094
:020000040000fa
:0400d4009404000090
:020000040000fa
:0400d800940400008c
:020000040000fa
:0400dc009404000088
:020000040000fa
:0400e0009404000084
:020000040000fa
:0400e4009404000080
:020000040000fa
:0400e800940400007c
:020000040000fa
:0400ec009404000078
:020000040000fa
:0400f0009404000074
:020000040000fa
:0400f4009404000070
:020000040000fa
:0400f800940400006c
:020000040000fa
:0400fc009404000068
:020000040000fa
:040100009404000063
:020000040000fa
:04010400940400005f
:020000040000fa
:04010800940400005b
:020000040000fa
:04010c009404000057
:020000040000fa
:040110009404000053
:020000040000fa
:04011400940400004f
:020000040000fa
:04011800940400004b
:020000040000fa
:04011c009404000047
:020000040000fa
:040120009404000043
:020000040000fa
:04012400940400003f
:020000040000fa
:04012800940400003b
:020000040000fa
:04012c009404000037
:020000040000fa
:040130009404000033
:020000040000fa
:04013400940400002f
:020000040000fa
:04013800940400002b
:020000040000fa
:04013c009404000027
:020000040000fa
:040140009404000023
:020000040000fa
:04014400940400001f
:020000040000fa
:04014800940400001b
:020000040000fa
:04014c009404000017
:020000040000fa
:040150009404000013
:020000040000fa
:04015400940400000f
:020000040000fa
:04015800940400000b
:020000040000fa
:04015c009404000007
:020000040000fa
:040160009404000003
:020000040000fa
:0401640094040000ff
:020000040000fa
:0401680094040000fb
:020000040000fa
:04016c0094040000f7
:020000040000fa
:040170008803000000
:020000040000fa
:040174003a04000049
:020000040000fa
:0401780094040000eb
:020000040000fa
:04017c0094040000e7
:020000040000fa
:0401800094040000e3
:020000040000fa
:0401840094040000df
:020000040000fa
:0401880094040000db
:020000040000fa
:04018c0094040000d7
:020000040000fa
:0401900094040000d3
:020000040000fa
:0401940094040000cf
:020000040000fa
:0401980094040000cb
:020000040000fa
:04019c0094040000c7
:020000040000fa
:04020800940400005a
:020000040000fa
:04020c00c802000024
:020000040000fa
:04021000ce0200001a
:020000040000fa
:04021400e402000000
:020000040000fa
:04021800ea020000f6
:020000040000fa
:04021c009404000046
:020000040000fa
:040220009404000042
:020000040000fa
:04022400940400003e
:020000040000fa
:04022800940400003a
:020000040000fa
:04022c009404000036
:020000040000fa
:040230009404000032
:020000040000fa
:04023400940400002e
:020000040000fa
:04023800940400002a
:020000040000fa
:04023c009404000026
:020000040000fa
:040240009404000022
:020000040000fa
:04024400940400001e
:020000040000fa
:04024800f0020000c0
:020000040000fa
:04024c009404000016
:020000040000fa
:040250009404000012
:020000040000fa
:04025400940400000e
:020000040000fa
:04025800940400000a
:020000040000fa
:04025c009404000006
:020000040000fa
:040260009404000002
:020000040000fa
:0402640094040000fe
:020000040000fa
:0402680094040000fa
:020000040000fa
:04026c0094040000f6
:020000040000fa
:0402700094040000f2
:020000040000fa
:0402740094040000ee
:020000040000fa
:0402780094040000ea
:020000040000fa
:04027c0094040000e6
:020000040000fa
:0402800094040000e2
:020000040000fa
:0402840094040000de
:020000040000fa
:0402880094040000da
:020000040000fa
:04028c0094040000d6
:020000040000fa
:0402900094040000d2
:020000040000fa
:0402940094040000ce
:020000040000fa
:0402980094040000ca
:020000040000fa
:04029c0094040000c6
:020000040000fa
:0402a00094040000c2
:020000040000fa
:0402a40094040000be
:020000040000fa
:0402a80094040000ba
:020000040000fa
:0402ac0094040000b6
:020000040000fa
:0402b00094040000b2
:020000040000fa
:0402b40094040000ae
:020000040000fa
:0402b80094040000aa
:020000040000fa
:0402bc0094040000a6
:020000040000fa
:0402c00094040000a2
:020000040000fa
:0402c400940400009e
:020000040000fa
:0402c800940400009a
:020000040000fa
:0402cc009404000096
:020000040000fa
:0402d0009404000092
:020000040000fa
:0402d400940400008e
:020000040000fa
:0402d800940400008a
:020000040000fa
:0402dc009404000086
:020000040000fa
:0402e0009404000082
:020000040000fa
:0402e400940400007e
:020000040000fa
:0402e800940400007a
:020000040000fa
:0402ec009404000076
:020000040000fa
:0402f0009404000072
:020000040000fa
:0402f400940400006e
:020000040000fa
:0402f800940400006a
:020000040000fa
:0402fc009404000066
:020000040000fa
:040300009404000061
:020000040000fa
:04030400940400005d
:020000040000fa
:040308009404000059
:020000040000fa
:04030c009404000055
:020000040000fa
:040310009404000051
:020000040000fa
:04031400940400004d
:020000040000fa
:040318009404000049
:020000040000fa
:04031c009404000045
:020000040000fa
:040320009404000041
:020000040000fa
:04032400940400003d
:020000040000fa
:040328009404000039
:020000040000fa
:04032c009404000035
:020000040000fa
:040330009404000031
:020000040000fa
:04033400940400002d
:020000040000fa
:040338009404000029
:020000040000fa
:04033c009404000025
:020000040000fa
:040340009404000021
:020000040000fa
:04034400940400001d
:020000040000fa
:040348009404000019
:020000040000fa
:04034c009404000015
:020000040000fa
:040350009404000011
:020000040000fa
:04035400940400000d
:020000040000fa
:040358009404000009
:020000040000fa
:04035c009404000005
:020000040000fa
:040360009404000001
:020000040000fa
:0403640094040000fd
:020000040000fa
:0403680094040000f9
:020000040000fa
:04036c0094040000f5
:020000040000fa
:0403700088030000fe
:020000040000fa
:040374003a04000047
:020000040000fa
:0403780094040000e9
:020000040000fa
:04037c0094040000e5
:020000040000fa
:0403800094040000e1
:020000040000fa
:0403840094040000dd
:020000040000fa
:0403880094040000d9
:020000040000fa
:04038c0094040000d5
:020000040000fa
:0403900094040000d1
:020000040000fa
:0403940094040000cd
:020000040000fa
:0403980094040000c9
:020000040000fa
:04039c0094040000c5
:020000040000fa
:100400002f8720000e7f24000e01880000000000ce
:10041000000020000000e000020032000001200087
:100420002002880014000700410107000000e000de
:1004300003003a0080832000010020000200370002
:100440000000200001002000810f70000100320038
:1004500014000700000020000000e000020032004d
:100460000000020000000000d807020000000000a9
:100470000040da000000fe004440a9000000200017
:100480000000e0000300320000002000a00188000e
:100490004440a800000006008a1f78008b1f7800e7
:1004a0000000060091018800800478000000eb0045
:1004b0001a003700e284440032a0b4009905ba0063
:1004c000e284440032a0b4009906ba00e2844400f9
:1004d00032a0b4000006eb00476fde00fd07b2005b
:1004e000636ce10003003a00ebff07000000eb0043
:1004f0000a003700606ce10004003a00005deb0088
:100500008b05e900fdff3e00040037006168e10053
:10051000010032000086eb000b00070019c7ba008b
:100520001905ba000e04e00003003a000a00e000da
:10053000e0ff3a0000000600fe07b2009e018800be
:100540008a047800f5ff3700395dba008b05e900b1
:100550000c003200295dba008b05e900080032006a
:100560000c00e00003003a00e284440032a0b40032
:10057000f5ff370019ddba008b05e900faff3a00f4
:100580008904e800e184440032a0b40000000600c1
:100590000000fa008020a900ffff3700801f7800cc
:1005a0000200fa0010c0b300004f78008060a9007c
:1005b0001e4078000004e000fdff3a000080fa00d1
:1005c0004f007800004006000000fa008040a900bb
:1005d000ffff37000000fa008080a900ffff37000e
:1005e000809fbe000000fa00b08420001040780018
:1005f0000004e000410032007080200010407800cc
:10060000e64f50000f003a00b08420001040780000
:10061000e84f500004003a00404280000010a00063
:100620004042880035003700404280000020a00092
:1006300040428800b08420008040eb0001487800f0
:100640002e0037007080200010407800e34f5000eb
:100650000f003a00b084200010407800e84f5000ae
:1006600004003a00404280000010a0004042880090
:1006700022003700404280000020a0004042880055
:10068000b08420008040eb00014878001b00370058
:100690007080200010407800f04f500011003a00a8
:1006a000a084200090407800b084200010407800a2
:1006b00080cf500004003a00404280000010a000ab
:1006c000404288000d003700404280000020a0001a
:1006d00040428800b08420008040eb000148780050
:1006e00006003700404280000020a0004042880001
:1006f000b08420008040eb000148780013e1a9009d
:100700008500a9000080fa004f00be0000400600ee
:10071000809fbe000200fa0040428000620060003c
:100720000000e0004d003a000a21ef00910880002f
:1007300000002800008060000000e00001003a0096
:1007400013e1a800b0842000104078000004e0000d
:1007500010003a00c0842000104088001040800043
:10076000b11280008140780001487800104080007c
:100770000000e80010408800b0842000104078009d
:100780008040e800b0842000014878000468ef0051
:100790003400370060428000e10f50000300320057
:1007a000604280000000e00025003a000a21ef00ce
:1007b00010408000b112800081407800014878002c
:1007c000b0842000104078008040e800b084200011
:1007d00001487800b084200010407800e24f5000bb
:1007e00007003a001040800010407800f04f5000a1
:1007f00003003a00104080001040780004e8b70081
:10080000b084200010407800e74f500008003a0004
:1008100004c8bf00f04f500005003a0010408000af
:1008200010407800e9404000a08420000148780092
:10083000104080000000e8001040880009003700e8
:1008400013e1a900b1128000010f7800b0842000ec
:100850008040eb000148780002003700b1128000b0
:10086000010f78008e40a9000080fa004f00be0002
:1008700000400600809fbe000200fa00b084200005
:1008800090407800a08420001040780080cf500075
:100890001b003100b084200010407800e14f500070
:1008a00002003a0070802000004088000040800074
:1008b000104078000080fb00a012880000408000fb
:1008c0000000e80000408800b0842000104078005c
:1008d0008040e800b0842000014878000000eb0070
:1008e000000f780002003700000000001e0fe80033
:1008f0001e007800f40f5000fbff360006003700a2
:10090000b08420008040eb0001487800a0842000e3
:100910008040eb00014878008e60a9000080fa005a
:100920004f00be00004006000040da000000fe005c
:0409300000000500be
:020000040000fa
:100934000a00fa000080eb00000f78000040eb0092
:10094400204798006080200020079800b084200091
:100954001040780000c0e900204798001d003700cf
:100964002e009000104078000080fb001e0f6800ed
:100974002e0090000000e800200798000040eb00e3
:1009840030479800100037001e00780061006000b6
:10099400004078000004e000050032001e007800ea
:1009a4008000d10010002a00008f68000300370087
:1009b4001e0078000000d100000f78003e40900037
:1009c4000040e800304798003e409000e74f500058
:1009d400edff36002e4090000080fb000000ea008e
:1009e4004f00de0000407800ae4090008140e900f6
:1009f400214798000004e000d9ff3a0060802000fd
:100a040020079800b0842000104078000080fb008c
:100a14000080e900ae0090000080400020079800ac
:100a24002e009000104078000080fb0030079800f2
:100a34003e0090004800dd00300798002e00900032
:100a44000000e800200798002e0090001040780075
:100a54000080fb00be009000010070003007980089
:100a64002e009000104078000080fb0040079800a2
:100a74004e0090004800dd00400798002e009000d2
:100a84000000e900200798002e0090001040780034
:100a94000080fb00ce009000010070004007980029
:100aa4003e0090009e007800808f500004003200c9
:100ab4004e0090009e007800808f500002003a00a3
:100ac40010002000010037000000eb000080fa0055
:100ad400000006000800fa0020079800310798007b
:100ae4006080200011c0b3000148780070802000ad
:100af40061c0b300014878002e0090004800de0079
:100b04008040780080802000014878002e0090000a
:100b14008040780090802000014878003e009000da
:100b24004800de0080407800a08020000148780062
:100b34003e00900080407800b0802000014878009a
:100b4400a084200061c0b30001487800b084200074
:100b54008040eb0001487800b08420008040eb0026
:100b640001487800404280000010a1004042880003
:100b7400404280000000a10040428800a084200080
:100b8400104078008040780060802000d100070089
:100b9400000f78001e00780020479800c0802000d5
:100ba400ae409000014878001e0078004800de0046
:100bb40020479800d0802000ae4090000148780083
:100bc400a08420001040780080c0e800a0842000a9
:100bd40001487800b084200011c0b30001487800b7
:100be400f0048000680060000000e00001003a00aa
:100bf4009e60a80060802000104078000080fb0008
:100c0400a01288000080fa00000006000400fa0028
:100c14006080200011c0b30001487800708020007b
:100c240031c0b30001487800808020008040eb0090
:100c3400014878009080200011c0b300014878007a
:100c4400a08020008040eb0001487800b0802000a4
:100c5400e1c0b30001487800a084200061c0b30063
:100c640001487800b08420008040eb0001487800ff
:100c7400b08420008040eb0001487800a08420006c
:100c840010407800804078006080200091000700c8
:100c9400000f78001e00780020479800c0802000d4
:100ca400ae409000014878001e0078004800de0045
:100cb40020479800d0802000ae4090000148780082
:100cc400a08420001040780080c0e800a0842000a8
:100cd40001487800911280000040200000806000ec
:100ce4000000e00005003a005342a8000400370069
:100cf4008e60a9009e60a80001003700000000007b
:100d040070048000680060000000e000f8ff3a0012
:100d140060802000104078000080fb00a012880052
:100d2400b0842000104078008040e800b0842000a7
:100d3400014878000080fa00000006000000fa0074
:100d4400213a8000f08f2f0000806000203a880054
:100d54004567a90000000000113a80000000270048
:100d64008080600000002100808f5000faff3a006c
:100d740000000000113a80000002200000806000a2
:100d84000000e000fbff32000080fa0000000600d3
:100d94000000fa00e0e2a900e0a2a900e0c2a80075
:100da4000080eb00601988000080eb005019880077
:100db400e4e2a800e842a800e862a9000080fa0082
:100dc400000006000000fa00800020008012880065
:100dd400004422009012880091128000f0f32f004a
:100de400008060000060a0009012880020022000b3
:100df400c012880011358000f00f2c008080600044
:100e04000070200001007000103588003136800029
:100e140000fc2f0000806000c001b3003036880061
:100e24008e40a9008e60a9009e40a8009e60a80084
:100e340061068000f08f2f00808060000050200049
:100e4400010070006006880061068000f0ff280041
:100e540080806000000025000100700060068800aa
:100e64005342a80051e2a8001221ef009500a80007
:100e74008500a90091088000f0fc2f00008060002c
:100e84000040a000900888001221a900204e2000f4
:100e9400700888000080fa00000006000200fa00d2
:100ea400000f7800000000001e00780000f0a7008a
:100eb4000000ea000000ea004f00de000040780075
:100ec4001e0fe9000004e000f7ff3a000080fa007a
:100ed400000006000a00fa0030079800014f98004d
:100ee4000080eb00000f78000040eb0020479800e2
:100ef400be009000210798008e489000214798007a
:100f04001d0037002e009000104078000080fb0088
:100f14001e0f68002e0090000000e80020079800d3
:100f24000040eb0030479800100037001e007800a6
:100f340061006000004078000004e0000500320019
:100f44001e0078008000d10010002a00008f680085
:100f5400030037001e0078000000d100000f780065
:100f64003e4090000040e800304798003e4090002a
:100f7400e74f5000edff36002e4090000080fb004c
:100f84000000ea004f00de0000407800ae40900010
:100f94008140e900214798000004e000d9ff3a00ad
:100fa4001e0078000080fa00000006000600fa0027
:100fb4000000eb00000f78000000eb001007980021
:100fc4000000eb00200798005cff070070ff07009b
:100fd4007cff0700e4e2a800e4a2a9000080eb0083
:100fe400aeff07000080eb00acff0700e4e2a900bd
:100ff400e4a2a8000300370000000000010037004d
:101004000000000011178000000420000080600030
:101014000000e000f8ff3a00020037001000200052
:10102400000f780011178000000420000080600089
:101034000000e000f9ff32001e007800e10f5000cc
:10104400efff3a00e4e2a800e4a2a9000080eb006c
:1010540092ff07000080eb0090ff0700e4e2a90084
:0c106400e4a2a800e9fe0700e6ff370048
:020000040000fa
:101070004c080000260000000000000006080000e8
:10108000460000000000000000080000060000000c
:08109000000000000000000058
:020000040000fa
:020000040002f8
:04aff800bf7900001d
:020000040000fa
:020000040002f8
:04affc007fbf000013
:00000001FF
