:020000040000fa
:080000000002040000000000f2
:020000040000fa
:10040000cf9320000e7f24000e0188000000000022
:100410000c00070000ed2100010020001100070082
:10042000000020000000e000020032000000020096
:1004300000000000f8120200000000000040da0096
:100440000000fe004440a900000e20000000e00073
:100450000300320000002000a00188004440a800f2
:100460000000060091018800800078000000eb0089
:1004700015003700e280400032a0b4009101ba00bc
:10048000e280400032a0b4009102ba00e280400055
:1004900032a0b4000002eb00472bde00f507b200eb
:1004a000602ce10004003a000059eb008301e900f0
:1004b000fdff3e00040037006128e100010032002a
:1004c0000082eb00040007001101ba000200e00006
:1004d000e8ff3a00000006003159ba008301e90044
:1004e0000c0032002159ba008301e90008003200f3
:1004f0000400e00003003a00e280400032a0b400b3
:10050000f5ff370011d9ba008301e900faff3a007c
:100510008100e800e180400032a0b4000000060045
:1005200098020400000000000040da000000fe0015
:10053000881f780002047800470407000800400084
:100540004f047800000006000000fa00881f7800c1
:10055000000478003fb99700ea81570080007800d6
:100560008029200009000700800078000000e000da
:10057000020035000040eb0000f478000100780034
:100580004f0478000080fa00000006006200fa00c4
:10059000889fbe008a9fbe000004be00020578004e
:1005a0008300780060f92f000f0040002504070049
:1005b00088979f0099979f000000eb00a09f9f00e5
:1005c0009a4578000b80fb000000ea00cf04de00b3
:1005d00050c2b30080cf55000200320009047800f9
:1005e000010037000904e9000800e0000b003400b6
:1005f0001f909700080178008a0078008f9197007b
:100600000300010090979f000000e000930032007b
:100610002f98970000004400a09f9f000905450007
:1006200050c2b30080cf5500040032000b04e0003c
:10063000e3ff3a002f989700890037000000eb0095
:10064000809f9f00f0979f00e0979f00d0979f00aa
:10065000c0979f00b0979f00c09f9f000900370080
:10066000e092200000805000000040002192200015
:10067000e10078004f98970001007000c09f9f0034
:100680000a05e8001a4478008800fb00e092200088
:100690009a010700800078000000e000f0ff3a00b7
:1006a000a0c2b300804f54000e003a00bf889700ec
:1006b0000180e900b08f9f0010007800b09f9f007c
:1006c0000000e00005003d000000ea00b09f9f0030
:1006d0004f9897000020a000c09f9f000a05e800e7
:1006e00010003700b19f9f0003fd2f00f4ff27008b
:1006f000080037003f989700840f50000400320034
:100700006a00b9000000410003004000b09f9f0054
:100710000a05e8001a01fb0003004100e90f500040
:10072000f4ff3600e0c2b3009a4f1000040032001c
:100730000080eb00909f9f008a0478001c00370027
:100740008a04e800a0c2b300994f100007003a00e5
:10075000bf8897000180e900b08f9f0010007800eb
:10076000909f9f008a84e800110037000000eb0092
:10077000909f9f0003fd2f00f4ff27000800370023
:100780001f989700840f5000040032006a00b900df
:100790000000410003004000909f9f008904e80092
:1007a0001901fb0003004100e90f5000f4ff36007f
:1007b000194478008800fb00409320004f01070097
:1007c0000000e00002003a00004478000100370019
:1007d0008904e800a87f9f0080c6b300804f5400c2
:1007e00004003a00994f14000a003a006640500095
:1007f00006003700c0c6b300804f540005003a0021
:10080000994f140003003a0065404000a07f9f000c
:100810008904e8000905e800cbfb2f008b85470021
:100820001901fb0060f92f000f0040000084e80070
:100830008b01780080007800080078000c00070029
:100840000000e00005003a008b0078000800780006
:10085000be0207000000e00059ff3d000080eb00f1
:100860004f05be004f04be000080fa0000000600e5
:10087000889fbe008a1f780000047800010278007b
:100880008244780003057800e0c6b300804f510031
:10089000c600320010003c006b405000804f5100f9
:1008a0001800320005003c0050c2b300804f5100d8
:1008b0000301320080c5b3000f00370040c6b3000b
:1008c000804f51001400320065404000804f5100bd
:1008d000fe003a001000370000c7b300804f5100ff
:1008e000e80032005e00350065404000804f510056
:1008f0005b0032006340400080cf5400f3003a00b8
:10090000570037009180e900010a780078009000d4
:1009100091717800f3003700a8609000c0c6b30062
:1009200080cf50000a003a009400780064805000a4
:10093000000a78001000be004f89de00cf91de0073
:100940000002be0002037800820378001300370023
:1009500010c7b30080cf500003003200a0c6b30020
:1009600080cf500006003a00940078006880500064
:10097000000a78003002be002003be0007003700e6
:100980001480e900000a7800100078000002780066
:10099000cfa2de000503780086037800049cbe0029
:1009a0000694be00a860900080c6b30080cf5000bf
:1009b0000e00320020c6b30080cf500005003a0080
:1009c0000400fb00cf80de00010178008201780086
:1009d0000a00370040c7b30080cf50000300320048
:1009e0006640400080cf500006003a0004007800c6
:1009f000cf80de000101780082017800009cbe00fb
:100a00000294be003800be002801be00e00f500076
:100a1000e08f5800e00f5900e08f590003003d00bf
:100a200078009000d1c2b3000a003700081090008f
:100a30000018a3000300320078009000b1c2b30098
:100a4000040037000008a300530032007800900033
:100a500001c2b300017578000000e8004d003700c6
:100a6000a8609000c0c6b30080cf500006003a00d6
:100a70009400780064805000000a78001002be00e4
:100a80006033b8001300370010c7b30080cf5000a8
:100a900003003200a0c6b30080cf500006003a0029
:100aa0009400780068805000000a78003002be0090
:100ab0002003be00070037001480e900000a780018
:100ac00010007800000278000500200006002000d9
:100ad00007002000049cbe000694be00a8609000a1
:100ae00080c6b30080cf50000e00320020c6b30095
:100af00080cf500005003a000480fb000100200078
:100b000002002000030020000a00370040c7b300a5
:100b100080cf5000030032006640400080cf50007c
:100b200006003a00040078000100200002002000c6
:100b300003002000009cbe000294be00081090003c
:100b40000038a300140032003800be002801be00a7
:100b5000e00f5000e08f5800e00f5900e08f59007f
:100b60000d00320080c7b30080cf54000300320074
:100b700080c5b30080cf540007003a007800900091
:100b800001c3b300017578008000e80009f5780022
:100b90000080e80070049800780090000000450094
:100ba000600498008940780042003700a8609000f7
:100bb000c0c6b30080cf5000250032000a003c00c0
:100bc0006440500080cf50002800320000c0e80090
:100bd00080cf5000140032006840500080cf500099
:100be00022003a000a00370040c7b30080cf50000f
:100bf0001e0032006640400080cf50001b003200d3
:100c00006940500080cf500018003a0006003700bd
:100c10001480e900000a780010007800485c900019
:100c200008487800310037001480e900000a780095
:100c30001002780068089000cf80de000101780083
:100c400082017800009abe000292be0027003700a1
:100c50001480e900000a780010017800680890000c
:100c6000cf80de000089be00200037001480e9003c
:100c7000000a780010007800680c900008087800de
:100c80001a0037001180e900800878001000780011
:100c9000cf80de000101780082017800009cbe0058
:100ca0000294be00780090000000450060049800a7
:100cb00081c7b30008007800190007000b00370057
:100cc00078009000027578000600370078009000e8
:100cd000800045000904e00001003a0059c2b30059
:100ce000894878000000e800700498000000eb00dc
:100cf0004f0578004f04be000000060004003700d6
:100d00000204e00001003a00000005000000e800d5
:100d100010417800814f5100f9ff3a0000000600b1
:100d20002f03b000889fbe008a9fbe008c9fbe002c
:100d30008e1f78000007780010912000c0b79f0038
:100d400080c5b30080cf5000080032000290200020
:100d5000c2b79f007740400080cf500003003a00a8
:100d600083002000b3b79f000a00370080c7b3009c
:100d700080cf500005003200a4002000b4b79f00cf
:100d800080c5b30080cf500002003a00050120006a
:100d9000b5b79f003e04be002e05be0040c6b3009e
:100da00080cf5000030032006540400080cf5000eb
:100db0000b003a00e00f5400e08f5c00e00f5d0094
:100dc000e08f5d0006003d006000b8006011b800d3
:100dd00008045000898458000a0559008b85590081
:100de000bfb39700e88f530003003200f08f530029
:100df00045003a00020037003600200001003700ad
:100e000046002000e00f5400e08f5c00e00f5d0022
:100e1000e08f5d0005003a005e089000810120002f
:100e2000a1b79f000000e000080032003fb197002a
:100e30000200e90008006000cfb19700634078002d
:100e400090df9f0074012000a4b79f008602780005
:100e50008502e900050033008b05d1000a85d30027
:100e60008984d3000884d300f9ff3700089fbe00af
:100e70000a97be00afb397000700e90021fc2f00de
:100e80008f804000008240003fb197008202e9005d
:100e900012003700afb397008703e900a7b79f00a0
:100ea00000806200cfb09700615278003e00be0023
:100eb0002e01be00860378008703e9000500330099
:100ec0008381d1000281d3008180d3000080d300d0
:100ed000f9ff3700009fbe000297be003e00be0033
:100ee0002e01be00e00f5000e08f5800e00f5900c7
:100ef000e08f5900d6003400afb397000700e00040
:100f0000e4ff3c00d2003700ae60900080c6b30022
:100f100080cf50000b00320006003c000104e000ce
:100f2000080032006640500080cf500073003a0045
:100f300004003700c0c6b30080cf50006f003a00f5
:100f400031003700080178000800e00005003a0091
:100f50005e08900081012000a1b79f000000e00022
:100f600009003200bfb19700110009000381d800c9
:100f70008000fd004fb297006440780090df9f0032
:100f800075012000a5b79f00bfb3970011000900ad
:100f90000781d80080017800afb097000100e90018
:100fa00022fc2f000f014100000241000c0037001d
:100fb000bfb29700110009008501d8000001780038
:100fc000afb397008703e900a7b79f000590b9006a
:100fd00000805100cfb09700615278008201780004
:100fe0000300e000030034002fb197000200e0008e
:100ff000efff3c0003007800cf80de0001017800a5
:10100000820178003a0037000806be00e00f540065
:10101000e08f5c0005003a005e089000830120002c
:10102000a3b79f000000e000090032003fb2970024
:101030006121b9000c00be00ad010700cfb29700de
:101040006540780090df9f0077012000a7b79f00e0
:101050003fb297006121b9000c00be009401070067
:101060000006be00afb297000500e90027fc2f0084
:101070008f8343008083430097b79f0011003700a0
:101080003fb197006114b9000801be000c00be001a
:10109000780107000005be00afb197008301e900a9
:1010a000a3b79f000801be0094010700000056008e
:1010b0001fb29700cfb297006552780094b79f0097
:1010c0000a06be00e00f5600e08f5e000300340009
:1010d000afb397000700e000e9ff3c004feade00f5
:1010e000cfa2de000c00be0004017800840178006d
:1010f000009fbe000297be0055003700e00f54006d
:10110000e08f5c00e00f5d00e08f5d0005003a00bd
:101110005e08900081012000a1b79f000000e00060
:101120000d0032003fb1970002027800cfa2de002e
:1011300005037800860378000800be000a01be009f
:10114000220207004fb297006440780090df9f00b2
:1011500075012000a5b79f003fb1970002027800fb
:10116000cfa2de0005037800860378000800be00e9
:101170000a01be000e020700009fbe000297be00db
:10118000afb197000300e90024fc2f000f024200da
:101190000006420020003700bfb297000504780027
:1011a000cfc4de00090578008a0578000802be0079
:1011b0000a03be005fa89700efa897007fa99700d9
:1011c0008fb1970005020700d0b79f00e1b79f00dd
:1011d000f2b79f0083bf9f00afb397008703e9007a
:1011e000a7b79f000802be000a03be006502070001
:1011f0005faa970000005200cfb2970065567800b2
:101200005fb09700efb097007fb197008fb997005c
:10121000009fbe000297be003e00be002e01be0031
:10122000d0af9f00e1af9f00f2af9f0083b79f0058
:10123000e00f5000e08f5800e00f5900e08f590098
:1012400003003400afb097000100e000d2ff3c0083
:101250003fb19700e80f510013003a000e109000c4
:101260000038a30010003200afb19700f78f510093
:1012700006003e0024fc2f000f02420083004200c3
:1012800000c3b300914f100007003200afb29700c7
:101290008502e900a5b79f0000c3b30027fc2f001b
:1012a0008f83430080f37a00afb1970078811100fb
:1012b000120f98006e009000cf91de0024fc2f00ea
:1012c0000f024200afb2970085004200e200070023
:1012d0001e0990005e089000800f510006003d003e
:1012e00002005000000f98000e1090000040a10076
:1012f000001798000f0037000000e0000d003d00cf
:101300000e10900074006000f00f500009003a00c9
:101310007e089000fe009000010050008e089000b2
:1013200001005000020050004240a90001003400ba
:10133000000f98004f0778004f06be004f05be0013
:101340004f04be002f03b100000006000400fa00a5
:10135000889fbe008a9fbe008c1f78000004780022
:101360000106780070089000f8009000010050001d
:10137000880890000100500098089000010050007b
:10138000a808900001005000b8089000010050002b
:10139000c8089000810550000002220090bf9f0005
:1013a00000032300a0bf9f00081090000028a300a6
:1013b00015003a000b00e000130034008b047800a5
:1013c0002a0020008a8f540001003e0009057800a1
:1013d0006151b9005800900048029000ee8057001b
:1013e00004000100500498000000e0008d0032006d
:1013f0006808900000004500600c98008a84540042
:101400004240a900eeff3c00780090000000e000a0
:101410000c0034006101b9005800900048029000af
:101420008c00780004000100500498000000e000e7
:101430007c00320068089000f80090000100400035
:10144000600c9800880c90000900e0001200340045
:101450002a0020008a8f540001003e000905780010
:101460006151b9005800900048029000ec8057008c
:1014700004000100500498000000e0006900320000
:101480006808900000004500600c98008a845400b1
:101490004240a900eeff3c00180890000000e00068
:1014a0000c0034006101b900e80090005800900081
:1014b0004802900004000100500498000000e00081
:1014c0005800320068089000980890000100400021
:1014d000600c9800a80c90000900e0001200340095
:1014e0002a0020008a8f540001003e000905780080
:1014f0006151b9005800900048029000ec805700fc
:1015000004000100500498000000e0004500320093
:101510006808900000004500600c98008a84540020
:101520004240a900eeff3c00380890000000e000b7
:101530000e0034006101b900e80090001808900026
:101540008080400058009000480290000400010094
:10155000500498000000e00032003200680890005b
:10156000b808900001004000600c9800c80c900082
:101570000900e000120034002a0020008a8f540085
:1015800001003e00090578006151b9005800900043
:1015900048029000ec8057000400010050049800bd
:1015a0000000e0001f0032006808900000004500c5
:1015b000600c98008a8454004240a900eeff3c0071
:1015c000081090000028a300180032000b00e00073
:1015d000160034008b0478002a0020008a8f540003
:1015e00001003e00090578006151b90058009000e3
:1015f00048029000ee80570004000100500498005b
:101600000000e0000700320068089000000045007c
:10161000600c98008a8454004240a9000300340002
:10162000edff37000080eb00010037000000eb0009
:101630004f0678004f05be004f04be000080fa0040
:10164000000006000200fa00f1bf9f0001087800c8
:101650000080fa00000006008001eb000200370065
:1016600061f079008301e800828f5100fcff3a00ad
:1016700000000600839f68000100e00002003d00ba
:1016800060001000e08018000300e00002003d0050
:1016900060011100e0811900050007004f00e00023
:1016a00002003b0060001000e0801800000006000f
:1016b0006022b800060220000000d0008180d20025
:1016c0000482d2008582d2000000a00002025200f3
:1016d00083825a00030031000202420083824a00e2
:1016e0000000a1000603e900f3ff3a000000060035
:1016f000efff07000400be0000000600020ab90068
:10170000001bb9000200b8008100420081004300c4
:1017100000000600881f7800000478005001be0019
:101720004000be00040040008580480006014900da
:1017300087814900009cbe000294be000400e100c5
:101740000588e1000690e1000798e1000200310001
:10175000680044001008e8004f047800000006000c
:10176000f4874700889fbe008a9fbe008c9fbe0002
:101770008e1f78000205be000004be00d4b79f0093
:10178000e5b79f00f6b79f0087bf9f000000eb0002
:10179000c0b79f00b0b79f00a0b79f0090b79f0051
:1017a00080b79f000d042000bfb097004fb0970096
:1017b000000140000000e0000f003d004f08de0087
:1017c00000007100c0b79f004d00070001003d0000
:1017d000120020005000070001003d001200200010
:1017e0005500070061000700660007000f00400079
:1017f000c8ff0700220037004f08de000006710016
:10180000ccb79f003e00070001003d001200200001
:101810004100070001003d001200200046000700c3
:10182000520007000fb297009fb297002fb39700a6
:10183000bfb39700590007000000520081805a0092
:1018400002015b0083815b0080b79f0091b79f001e
:10185000a2b79f00b3b79f000007eb004f0007003f
:101860000020e10001a8e10002b0e10003b8e100be
:10187000010031001e0020000e005600c0b79f007e
:101880004fb297000400e000070035001000200070
:10189000010020006011b800080470008984700005
:1018a0000a0571008b8571008d06e900beff3a00c4
:1018b0000400e00003003d00320007000f0040007c
:1018c00094ff07004fa897000000e00004003a00d2
:1018d0000fb497009fb497002fb59700bfb597003e
:1018e0000800be000a01be004f0778004f06be0088
:1018f0004f05be004f04be004f01b10000000600be
:101900000180400090b79f000001eb008fb097006e
:101910000100e000000006000200700090b79f0088
:101920000180400080b79f000001eb00ffa89700f6
:101930000100e000000006000200700080b79f0078
:10194000018040006faa9700cf20de0001007000e8
:10195000f0af9f00040242000800be000a01be0072
:101960004f18de000002720000000600e4af9f0086
:101970000804440089844c000a054d008b854d0005
:10198000000006003fb29700cfb297005fb3970008
:10199000efb3970000fe2f00000006003fb0970055
:1019a000cfb097005fb19700efb19700000006003d
:1019b000881f780018002000881f780068ff070043
:1019c0008f87e9004f04780000000600801feb00bd
:1019d00063ff07008f87e90000000600889fbe00b4
:1019e0008a9fbe008c1f78000205be000004be0066
:1019f000e00f5000e08f5800e00f5900e08f5900d1
:101a00000c003d006000b8006011b80008045000f0
:101a1000898458000a0559008b8559001c00200054
:101a20001f00070008003d00180007000006eb003b
:101a3000050037000006eb001900070002003d001a
:101a40000f0007001c0020000800be000a01be00b5
:101a5000d7ff07000203be000002be000c00e0003a
:101a600001003200060007000400be000601be00af
:101a70004f0678004f05be004f04be000000060070
:101a80006000b8006011b800000037000402500088
:101a9000858258000603590087835900000006001c
:101aa000e00f5200e08f5a00e00f5b00e08f5b0018
:101ab00000000600889fbe008a9fbe008c1f780031
:101ac0000205be000004be00e00f5000e08f580089
:101ad000e00f5900e08f59000a003d006000b80097
:101ae0006011b80008045000898458000a055900a4
:101af0008b8559001c0020001800070007003d00de
:101b0000050037000006eb001400070003003d004d
:101b10006000b8006011b800150007000800be00a2
:101b20000a01be00a9ff07000203be000002be00ba
:101b30000c00e000030032006000b8006011b80043
:101b40000b0007000400be000601be004f0678002f
:101b50004f05be004f04be0000000600e00f52001b
:101b6000e08f5a00e00f5b00e08f5b000000060092
:101b700004025000858258000603590087835900eb
:101b800000000600889fbe008a9fbe008c1f780060
:101b90000205be000004be000006eb00e00f50008e
:101ba000e08f5800e00f5900e08f590007003d001a
:101bb0006000b8006011b800080450008984580023
:101bc0000a0559008b8559001c002000e00f5200c7
:101bd000e08f5a00e00f5b00e08f5b0002003d00e9
:101be0000f0007000c00a2000800be000a01be00a2
:101bf000120007000203be000002be000c00e0005d
:101c000001003200060007000400be000601be000d
:101c10004f0678004f05be004f04be0000000600ce
:101c20006000b8006011b8000402500085825800be
:101c3000060359008783590000000600889fbe00f4
:101c40008a9fbe008c9fbe000404b8000506b80041
:101c50008904460060854e000606b8000a05460065
:101c6000e0854e000706b8008b054600040eb8005c
:101c7000890446000a854e00e0854d00050eb80037
:101c80000a0546008b854e00060eb8008b054600ff
:101c90000416b8000a0546008b854e000516b800ec
:101ca0008b054600041eb8008b0546000800be00e8
:101cb0000a01be004f06be004f05be004f04be0025
:041cc000000006001a
:020000040000fa
:020000040002f8
:04aff800bf7900001d
:020000040000fa
:020000040002f8
:04affc007fbf000013
:020000040000fa
:1000080094020000d2120000d8120000ec12000086
:10001800f212000094020000940200009402000012
:100028009402000094020000940200006a1f00007d
:1000380094020000940200009402000008150000d9
:1000480024170000940200009402000094020000ab
:100058009402000094020000940200009402000040
:1000680094020000be1f00009402000094020000e9
:100078009402000094020000940200009402000020
:100088009402000094020000940200009402000010
:1000980094020000940200002a160000d616000000
:1000a80094020000940200009402000094020000f0
:1000b80094020000940200009402000094020000e0
:1000c80094020000940200009402000094020000d0
:1000d80094020000940200009402000094020000c0
:1000e80094020000940200009402000094020000b0
:1000f80094020000940200009402000094020000a0
:10010800940200009402000094020000940200008f
:10011800940200009402000094020000940200007f
:10012800940200009402000094020000940200006f
:10013800940200009402000094020000940200005f
:10014800940200009402000094020000940200004f
:10015800940200009402000094020000940200003f
:10016800940200009402000032180000de1800001b
:10017800940200009402000094020000940200001f
:10018800940200009402000094020000940200000f
:1001980094020000940200009402000094020000ff
:1001a80094020000940200009402000094020000ef
:1001b80094020000940200009402000094020000df
:1001c80094020000940200009402000094020000cf
:1001d80094020000940200009402000094020000bf
:1001e80094020000940200009402000094020000af
:0801f8009402000094020000d3
:020000040000fa
:1002080094020000d2120000d8120000ec12000084
:10021800f212000094020000940200009402000010
:100228009402000094020000940200006a1f00007b
:1002380094020000940200009402000008150000d7
:1002480024170000940200009402000094020000a9
:10025800940200009402000094020000940200003e
:1002680094020000be1f00009402000094020000e7
:10027800940200009402000094020000940200001e
:10028800940200009402000094020000940200000e
:1002980094020000940200002a160000d6160000fe
:1002a80094020000940200009402000094020000ee
:1002b80094020000940200009402000094020000de
:1002c80094020000940200009402000094020000ce
:1002d80094020000940200009402000094020000be
:1002e80094020000940200009402000094020000ae
:1002f800940200009402000094020000940200009e
:10030800940200009402000094020000940200008d
:10031800940200009402000094020000940200007d
:10032800940200009402000094020000940200006d
:10033800940200009402000094020000940200005d
:10034800940200009402000094020000940200004d
:10035800940200009402000094020000940200003d
:10036800940200009402000032180000de18000019
:10037800940200009402000094020000940200001d
:10038800940200009402000094020000940200000d
:1003980094020000940200009402000094020000fd
:1003a80094020000940200009402000094020000ed
:1003b80094020000940200009402000094020000dd
:1003c80094020000940200009402000094020000cd
:1003d80094020000940200009402000094020000bd
:1003e80094020000940200009402000094020000ad
:0803f8009402000094020000d1
:020000040000fa
:101cc400206900004e65000072000000436f0000b0
:101cd4006e6e000065630000746900006f6e0000a2
:101ce400205400006f2000004735000020650000ec
:101cf400727200006f720000206f000063630000c6
:101d040075720000726500006400000057720000e4
:101d14006974000065200000302e0000314100008d
:101d240068200000546f00002047000035200000a8
:101d3400636f00006d7000006c6500007465000046
:101d44000057000072690000746500002041000023
:101d540068200000546f0000204700003520000078
:101d640065720000726f0000722000006f63000053
:101d74006375000072720000656400000057000083
:101d8400726900007465000020570000686f00004d
:101d94006c6500002041000068200000546f0000c2
:101da4002047000035200000636f00006d700000c4
:101db4006c65000074650000005700007269000043
:101dc4007465000020570000686f00006c65000017
:101dd4002041000068200000546f000020470000ec
:101de4003520000065720000726f00007220000050
:101df4006f63000063750000727200006564000088
:101e040000000000566f00006c7400006167000061
:101e1400653a000000560000002000002020000069
:101e24002020000020200000004300007572000004
:101e3400726500006e7400003a000000410000006a
:101e4400202000002020000020200000202000008e
:101e5400004e00006f770000416800003a00000067
:101e64004168000000460000756c00006c410000f1
:101e7400683a000000250000640000002e00000005
:020000040000fa
:101e84000000fa00bf010700100020008d060700c3
:101e940042f0280011c0b30010c0b3005e00070078
:101ea400b245800091c0b30010c0b3006b000700be
:101eb400d2f02800d1c0b30010c0b3005600070010
:101ec400f2f02800e1c0b30010c0b30052000700d4
:101ed40072f1280011c0b30020c0b3004e00070007
:101ee400c245800091c0b30020c0b3005b0007006e
:101ef400c145800030062000808f500009003e005c
:101f040002f22800c1c0b30020c0b30042000700a1
:101f140022f22800d1c0b30020c0b3003e00070065
:101f24000800370002f22800d1c0b30020c0b3007b
:101f340039000700f2f02800e1c0b30020c0b3006c
:101f440035000700b2f2280011c0b30030c0b3005e
:101f540031000700d245800071c0b30030c0b30027
:101f64003e00070022f32800b1c0b30030c0b30024
:101f74002900070022f22800d1c0b30030c0b3000a
:101f84002500070052f3280011c0b30040c0b3007d
:101f9400210007007246800081c0b30040c0b30036
:101fa4002e00070022f32800c1c0b30040c0b300d4
:101fb40019000700f2f02800e1c0b30040c0b300ec
:101fc400150007000080fa00000006000000fa0077
:101fd400b245800091c0b30010c0b3001f000700d9
:101fe400c245800091c0b30020c0b3001b000700ad
:101ff400d245800071c0b30030c0b30017000700a1
:102004007246800081c0b30040c0b30013000700d3
:102014000080fa00000006000400fa00004f780077
:102024001147980012079800010037000942a900df
:1020340009c2bf00644060000004e000fbff3a00f6
:102044009e4090001e4078000f0107001e00900083
:10205400f60007000080fa00000006000c00fa00f9
:10206400004f9800114f9800520798000e489000b6
:102074000080fb00200798001e4890000080fb00b1
:1020840010079800010037000942a90009c2bf00e7
:10209400644060000004e000fbff3a001e00900072
:1020a400804078002e009000f70007005e0090004a
:1020b400a2002000110009000280d800e6004700b9
:1020c400801f7800d0f32800801f7800010078007a
:1020d4001cf90700e487570066004700d300070097
:1020e400de00900030062000808f500003003e0088
:1020f40010002000000f78000200370020002000ac
:10210400000f78001e009000804078001e007800c8
:1021140000c04000804078002e009000da000700e4
:1021240000f42800c10007001e00900080407800e1
:102134001e00780000c040000040e80080407800a5
:102144002e009000d00007005e009000a200200046
:10215400110009000280d8008000fd00e60047005d
:10216400801f7800d0f32800801f780001007800d9
:10217400f4f80700e487570066004700ab00070047
:102184000080fa00000006000000fa00000037009a
:1021940006c2bf00614060000004e000fcff3a009a
:1021a40006c2bf00644060000004e000f8ff3a008b
:1021b40006c2bf00684060000004e000f4ff3a007b
:1021c40006c2bf00704060000004e000f0ff3a0067
:1021d40009c2bf000044b2000004e000ecff3a0072
:1021e4000080fa00000006000000fa00e6ff070085
:1021f4000602a8000080fa00000006000000fa00b1
:10220400e1ff07000622a8000080fa000000060093
:102214000000fa00dcff07000642a8000080fa0074
:10222400000006000000fa0006a2a900d6ff07007d
:102234000682a8000080fa00000006000000fa00f0
:1022440006a2a800d0ff07000682a8000080fa00ba
:10225400000006000200fa00004f78001e407800db
:10226400f6e8b700f408a900f428a90008c2bf00e2
:10227400614060000004e0000400320086c0bf003a
:10228400624060000004e000f8ff3a0009c2bf00a9
:102294000080fb004700de000080fb000080fa00a5
:1022a400000006000200fa00004f78001e4078008b
:1022b400f8e8b7000040eb0024000700e00120002c
:1022c4007005070030c0b30039000700500020003b
:1022d4006c05070030c0b300350007005000200033
:1022e4006805070030c0b30031000700500020002b
:1022f4006405070020c0b3002d0007005000200033
:102304006005070080c2b3002900070020032000f5
:102314005c050700c0c0b3002500070020032000af
:102324005805070010c0b300210007002003200057
:102334005405070060c0b3001d00070020032000ff
:10234400500507000080fa00000006000200fa00b1
:10235400004f7800a4ff0700f8c8bf00bdff0700c6
:10236400fec8bf001e407000baff0700a8ff0700a8
:102374000080fa00000006000200fa00004f780016
:10238400f7c8bf001e4f70001e4078000024a00054
:10239400eeff0700b0cfb3001e406000ebff070064
:1023a40010002000370507000080fa000000060036
:1023b4000200fa00004f78000040eb00f7e8b70095
:1023c40000cfb3001e406000ebff07001e80fb003f
:1023d4004400dd008040780000cfb30000c06000fe
:1023e400e5ff07000080fa00000006000200fa0082
:1023f400004f780010c0b300f7e8b7009e407800a3
:1024040000cfb30000c06000dbff07001e00fb002c
:102414004400dd008040780000cfb30000c06000bd
:10242400d5ff07000080fa00000006000400fa004f
:10243400100798000000eb00000f78000000eb008c
:10244400000f7800070037001e0078008000780035
:102454001e0090000080400010407800e3ff070059
:102464001e0fe8001e007800800078001e00900017
:1024740000804000104078000004e000f2ff3a00c1
:102484000080fa00000006000400fa00004f780003
:10249400114798001e80fb00100798001e00900052
:1024a400e30f50000c0032001e009000e40f5000b7
:1024b4000e0032001e009000e20f500001003200b6
:1024c4000f0037009e409000f0cbb30000c04000e6
:1024d400b7ff07000d0037009e40900030c9b300dd
:1024e40000c04000b2ff0700080037009e40900083
:1024f40030cdb30000c04000adff0700030037003b
:102504001e409000f047b000a9ff07000080fa00c9
:10251400000006000000fa0080c0b300fee8b70027
:102524000040eb0089ff07000080fa00000006006d
:102534000000fa000040eb00fee8b7000040eb00aa
:1025440082ff07000080fa00000006000000fa0085
:1025540080c1b30096ff070010002000c9040700e3
:102564000080fa00000006000000fa00c0c1b300b9
:102574008fff070010002000c20407000080fa004b
:10258400000006000000fa0010c0b30088ff070036
:1025940010002000bb0407000080fa0000000600c1
:1025a4000000fa008020a900ffff3700801f780098
:1025b4000200fa0010c0b300004f78008060a90048
:1025c4001e04e000feff3a000080fa004f0078008d
:1025d400004006000000fa008040a900ffff370019
:1025e4000000fa008080a900ffff37000c00fa0009
:1025f4000000eb00500798000000eb004007980033
:102604000000eb00300798000000eb002007980062
:102614000000eb00100798000000eb00000f7800aa
:10262400b7040700803e20003047880040012000a6
:1026340050478800ec28a900ec08a900ec48a90040
:102644001308a9001328a900bd0407000605070004
:10265400cb0407000e06070038050700e0c4b300ea
:1026640010ff0700e4e2a800e4a2a9001000200083
:1026740094040700e4e2a900e4a2a80030002000ca
:102684009004070022e6280011c0b30010c0b30074
:1026940061fe070022e6280011c0b30020c0b30089
:1026a4005dfe070022e6280011c0b30030c0b3006d
:1026b40059fe070022e6280011c0b30040c0b30051
:1026c40055fe070000003700e2c2bf000044b2001c
:1026d4000004e00006003a0001003700ec08a800fe
:1026e400e2c2bf000044b2000004e000fbff32007d
:1026f40060478000610060000000e00034003200a8
:1027040060478000620060000000e00030003a0092
:10271400d04780000000e0002d003a0060458000b2
:10272400680060000000e0001c003a005e009000b9
:10273400e30f500019003e00604780006200600013
:102744000000e00015003a00e4e2a80010002000b8
:102754005c040700e4e2a9005405070080458000fa
:10276400e10f500002003a00ec28a80018003700de
:102774005e0090000000e800500798000000eb00a5
:1027840040478800e482a90040478000e10f5000e0
:10279400fdff3200e482a8000d003700ec28a900f8
:1027a400e462a900e4e2a800300020004504070028
:1027b400e442a80073ff070082e6280011c0b300ba
:1027c40010c0b30014fe07000000eb00500798008f
:1027d40060478000620060000000e000800032007a
:1027e400e0478000e10f5000030032004000200069
:1027f4009e0f100006003600a1fd07000000eb004c
:10280400e04788000000eb00000f78002300370049
:102814001e0090000000e00005003a00e4c8bf007c
:102824000080fb002007980010002000100798008b
:10283400e4c8bf008080fb002e00900000805000a0
:10284400f40f5000150036001e009000e10f5000f8
:1028540012003a00e4c2bf000080fb004500de0025
:102864006140600000c0ea006140600061406000b7
:102874004501dd00412e200091407800f0cdb300e9
:1028840000c0600002407000e4e2b700cffd070022
:102894000000eb00100798001e0fe800604780005e
:1028a400640060000000e00027003a0069020700ad
:1028b400c04580000000e00023003a00b1458000dc
:1028c400201c2000808f50001f003e008040eb0041
:1028d4000040eb00db020700d0458000e10f500010
:1028e40006003a00ec48a80082e8280011c0b300b2
:1028f40010c0b300c8fd0700060037001100200017
:1029040070002000ad0407004e0090000000e800b5
:10291400400798004e009000e20f50000a00360075
:10292400e442a900e4e2a80030002000e503070027
:10293400e442a80013ff070032ea280011c0b300e4
:1029440010c0b300b4fd070060478000640060005d
:102954000000e00022003200e482a900c0458000ab
:10296400ea0f50001e003e0071468000d0458000f2
:10297400808f500007003a0010002000d0478800e4
:1029840012ec280011c0b30010c0b300a2fd070070
:102994000600370011002000900020008704070083
:1029a4003e0090000000e800300798003e009000d0
:1029b400e20f50000a003600e442a900e4e2a80055
:1029c40030002000bf030700e442a800edfe07002a
:1029d400f2ed280011c0b30010c0b3008efd070053
:1029e40060458000680060000000e00001003200e3
:1029f400ac68a900a0408000620060000000e00014
:102a040031ff32001428a9002fff37003600f800e8
:102a1400809fbe00829fbe00849fbe00869fbe0032
:102a24000c00fa008081200040079800808120007b
:102a3400100798000040eb00004f78005dc8bf000d
:102a44000004e0006f003200604780006100600015
:102a54000000e0006b00320000478000630060006b
:102a6400e20f500037003a00260307000000e000a0
:102a7400300032001bc8bf0058e8b7001ac8bf00b6
:102a840059e8b700608020004007980018c8bf00cc
:102a94008080fb004e009000010878004e009000fa
:102aa40064004000400798001ac8bf000080fb0083
:102ab4000000d10040479800b08120003007980002
:102ac400150037003e0090001040780059e8b70028
:102ad4003e0090000000e800300798003e0090009f
:102ae4001040780058e8b700c14280004e009000c2
:102af400010878004e0090000080e800400798002c
:102b04003e0090000000e800300798004e4090001e
:102b14000040e900404798004e4090000004e00067
:102b2400e8ff3a005a68a8000040eb005de8b700ef
:102b3400340037000040eb005de8b7005a88a80075
:102b4400300037003043800063006000e10f500024
:102b54002c003a00afc8bf00e84f500024003a00f0
:102b6400818d20009140780018c8bf0080cf5000ac
:102b74001d003a00918d20009140780019c8bf00d3
:102b840080cf500018003a00a18d200091407800b9
:102b94001ac8bf0080cf500013003a00b18d200046
:102ba400914078001bc8bf0080cf50000e003a004f
:102bb400c18d2000914078001cc8bf0080cf500018
:102bc40009003a00d18d2000914078001dc8bf0053
:102bd40080cf500004003a00ac48a8001308a800b5
:102be4001328a90007003700ac88a80005003700a7
:102bf4001308a9001328a900ac88a8000040eb0022
:102c0400afe8b70032c2bf00624060000004e000d9
:102c14000700320002003700b0118000304f9800e6
:102c240032c2bf00624060000004e000faff3a00d4
:102c340084e0a9000080fa004f03be004f02be00ea
:102c44004f01be004f00be003600f90000400600f0
:102c5400809fbe000200fa00d0428000680060003d
:102c64000000e0004a003a00604780006100600014
:102c74000000e000460032000000eb00300888004d
:102c8400111120009140780000c8b30000c060001a
:102c94000004e00001003a0011e1a8005dc8bf0093
:102ca4000004e0000e003a008081200010408800fb
:102cb40011408000b01180008048780010408000ee
:102cc4000000e800104088005dc8bf000040e80034
:102cd4005de8b7000040eb0000e8b7002e003700c5
:102ce40018c8bf00e14f5000030032006ac8bf009b
:102cf4000004e00020003a000000eb0030088800e7
:102d040011408000b0118000804878005dc8bf0089
:102d14000040e8005de8b7005dc8bf00e24f500026
:102d240007003a001040800010407800f04f500037
:102d340003003a00104080001040780000e8b7001b
:102d44005dc8bf00e74f500007003a0000c8bf004d
:102d5400f04f500004003a0010408000104078000a
:102d6400694040005ce8b700104080000000e800c3
:102d7400104088000800370011e1a900b01180005c
:102d8400000f78000040eb005de8b7000200370058
:102d9400b0118000000f780087c0a9000080fa00fd
:102da4004f00be0000400600809fbe000200fa00f3
:102db400318e200091407800e2c8bf0080cf5000df
:102dc40018003100e3c8bf00e14f500002003a0090
:102dd400908d200020408800204080001040780022
:102de4000080fb00a0118800204080000000e80063
:102df40020408800e3c8bf000040e800e3e8b700d3
:102e04000000eb00000f7800020037000000000013
:102e14001e0fe800400120009e0f1000fbff36004b
:102e2400040037000040eb00e3e8b7000040eb008b
:102e3400e2e8b70087e0a9000080fa004f00be0076
:102e4400004006003600f800809fbe00829fbe004e
:102e5400849fbe00869fbe000c00fa00a08620005e
:102e640040079800a0862000100798000040eb005f
:102e7400004f7800afc8bf000004e00065003200d6
:102e840060478000610060000000e00061003200e3
:102e94003043800063006000e20f500037003a00c6
:102ea400180207000000e000300032006dc8bf00c7
:102eb400aae8b7006cc8bf00abe8b700008b2000dd
:102ec400400798006ac8bf008080fb004e00900055
:102ed400010878004e00900064004000400798000c
:102ee4006cc8bf000080fb000000d1004047980080
:102ef400d086200030079800150037003e0090006f
:102f040010407800abe8b7003e0090000000e800f5
:102f1400300798003e00900010407800aae8b700ff
:102f2400514580004e009000010878004e0090004a
:102f34000080e800400798003e0090000000e80090
:102f4400300798004e4090000040e9004047980048
:102f54004e4090000004e000e8ff3a00ac68a8008e
:102f64000040eb00afe8b7002a0037000040eb0058
:102f7400afe8b700ac88a8002600370030438000d3
:102f840063006000e10f500022003a00afc8bf00a8
:102f9400e84f50001c003a000040eb00004f78005e
:102fa4000040eb00304f98000e0037001e009000e8
:102fb40090407800214f98002e489000e14f500037
:102fc4000200320010c0b300004f78001e009000d1
:102fd4000000e800100798003e4890000040e80018
:102fe400304f98003e489000e74f5000efff360006
:102ff4001e04e00002003200ac88a800050037007f
:10300400ac48a80003003700ac88a8000040eb00df
:10301400afe8b70052c2bf00624060000004e000a5
:103024000700320002003700b0128000304f9800d1
:1030340052c2bf00624060000004e000faff3a00a0
:103044008500a9000080fa004f03be004f02be00b5
:103054004f01be004f00be003600f90000400600dc
:10306400809fbe000200fa00604580006800600096
:103074000000e0004a003a00604780006100600000
:103084000000e000460032000000eb005008880019
:10309400311120009140780000c8b30000c06000e6
:1030a4000004e00001003a0013e1a800afc8bf002b
:1030b4000004e0000e003a00a0862000804788004b
:1030c40081478000b01280008048780080478000eb
:1030d4000000e80080478800afc8bf000040e80057
:1030e400afe8b7000040eb00eee8b7002e00370071
:1030f4006ac8bf00e14f5000030032006ac8bf0035
:103104000004e00020003a000000eb0050088800b2
:1031140081478000b012800080487800afc8bf00ab
:103124000040e800afe8b700afc8bf00e24f50006e
:1031340007003a008047800010407800f04f5000ac
:1031440003003a008047800010407800eee8b700a2
:10315400afc8bf00e74f500007003a00eec8bf00f9
:10316400f04f500004003a0080478000104078007f
:1031740069404000aee8b700804780000000e800e6
:10318400804788000800370013e1a900b0128000ce
:10319400000f78000040eb00afe8b70002003700f2
:1031a400b0128000000f78008e40a9000080fa0061
:1031b4004f00be0000400600809fbe000200fa00df
:1031c400918620009140780068c8bf0080cf5000ed
:1031d4001800310069c8bf00e14f500002003a00f6
:1031e400f0852000904788009047800010407800c8
:1031f4000080fb00a0128800904780000000e800d7
:103204009047880069c8bf000040e80069e8b7003b
:103214000000eb00000f78000200370000000000ff
:103224001e0fe800400120009e0f1000fbff360037
:10323400040037000040eb0069e8b7000040eb00f1
:1032440068e8b7008e60a9000080fa004f00be0055
:10325400004006000400fa0010c0b300d8e8b7002c
:1032640010c0b300d9e8b7000040eb00dae8b700bb
:103274000040eb00dbe8b7000040eb00dce8b700ff
:1032840010c0b300dde8b70060c0b300e2e8b700e7
:103294000040eb00e3e8b7005a68a900e048a90041
:1032a400e008a900e028a800218e200091407800c1
:1032b400808d2000e1000700100798001e00900098
:1032c400004f78001e407800dee8b7009e009000b2
:1032d40000f02f00008060004800de00004f7800fe
:1032e4001e407800dfe8b700e2c8bf0000c0e80075
:1032f400e2e8b70033c2bf00644060000004e000ad
:1033040004003a003342a8000200370087e0a90015
:1033140097e0a80087c0bf0001c8b3000140600067
:103324000004e000f9ff3a00d8c8bf00d6e8b700af
:10333400d6c8bf000080fb00a0118800e3c8bf000e
:103344000040e800e3e8b7000080fa00000006004f
:103354000400fa0010c0b300d8e8b70040c0b300be
:10336400d9e8b7000040eb00dae8b70010c0b300ba
:10337400dbe8b7000040eb00dce8b700a0c0b30016
:10338400dde8b70060c0b300e2e8b7000040eb003e
:10339400e3e8b7005a68a900e048a900e008a900da
:1033a400e028a800218e200091407800808d200024
:1033b400a2000700100798001e009000004f78003c
:1033c4001e407800dee8b7009e00900000f02f0059
:1033d400008060004800de00004f78001e40780046
:1033e400dfe8b700e2c8bf0000c0e800e2e8b700c9
:1033f40033c2bf00644060000004e00004003a00ef
:103404003342a8000200370087e0a90097e0a80033
:1034140087c0bf0001c8b300014060000004e000a1
:10342400f9ff3a00d8c8bf000080fb00a011880053
:10343400e3c8bf000040e800e3e8b7000080fa00fa
:10344400000006000600fa00404798005147980023
:1034540010c0b300d8e8b70050c0b300d9e8b70033
:103464000040eb00dae8b7004e409000dbe8b7001c
:103474005e409000dce8b7000040eb00dde8b700f8
:1034840060c0b300e2e8b7000040eb00e3e8b70037
:103494005a68a900e048a900e008a800e028a900ab
:1034a400218e200091407800808d20006300070069
:1034b400100798001e009000004f78001e4078000e
:1034c400dee8b7009e00900000f02f00008060004e
:1034d4004800de00004f78001e407800dfe8b700a7
:1034e400e2c8bf0000c0e800e2e8b70033c2bf0092
:1034f400644060000004e00004003a003342a80085
:103504000200370087e0a90097e0a80087c0bf0049
:1035140001c8b300014060000004e000f9ff3a0074
:10352400d8c8bf000080fb00a0118800e3c8bf001a
:103534000040e800e3e8b7000080fa00000006005d
:103544000600fa00404798005147980010c0b300a5
:10355400d8e8b70060c0b300d9e8b7000040eb007a
:10356400dae8b7004e409000dbe8b7000040eb001b
:10357400dce8b7005e409000dde8b70060c0b3004f
:10358400e2e8b7000040eb00e3e8b7005a68a9009e
:10359400e048a900e008a800e028a900218e200046
:1035a40091407800808d20002400070010079800c7
:1035b4001e009000004f78001e407800dee8b7003f
:1035c4009e00900000f02f00008060004800de00a4
:1035d400004f78001e407800dfe8b700e2c8bf0063
:1035e40000c0e800e2e8b70033c2bf0064406000f6
:1035f4000004e00004003a003342a800020037004f
:1036040087e0a90097e0a80087c0bf0001c8b30005
:10361400014060000004e000f9ff3a00d8c8bf0090
:103624000080fb00a0118800e3c8bf000040e80050
:10363400e3e8b7000080fa00000006000a00fa0080
:1036440030079800014f98000080eb002007980095
:103654000040eb00304798003e009000000f7800d7
:103664000e489000304798001d0037001e00780077
:10367400104078008080fb002e009000010068005c
:10368400200798001e0fe8000040eb002047980038
:10369400100037002e009000610060000004e0007c
:1036a400060032002e0090008000d10010002a0095
:1036b4000080680020079800030037002e00900067
:1036c4000000d100200798002e4090000040e80040
:1036d400204798002e409000e74f5000edff360041
:1036e4003e4090000040e900304798003e40900082
:1036f400e14f4000ddff3a002e0090000080fa0008
:10370400000006000c00fa000080eb00400798005f
:103714000040eb0030479800a0862000000f78009e
:10372400afc8bf0000c0e900304798001d00370053
:103734001e007800104078008080fb004e0090004e
:1037440001006800400798001e0fe8000040eb00ed
:1037540020479800100037004e0090006100600080
:103764000004e000060032004e0090008000d1000a
:1037740010002a000080680040079800030037000a
:103784004e0090000000d100400798002e409000a9
:103794000040e800204798002e409000e74f50007a
:1037a400edff36003e4090000040e90030479800ad
:1037b4003e409000e14f4000ddff3a00a08620002b
:1037c400000f7800afc8bf000080fb001e0040005f
:1037d400008fe9001e007800104078000080fb0094
:1037e400300798003e0090004800dd003007980044
:1037f4001e0fe8001e007800104078008080fb0057
:103804003e00900001007000300798001e00780010
:10381400104078000080fb00200798002e009000e4
:103824004800dd00200798001e0fe9001e00780004
:10383400104078008080fb002e0090000100700092
:1038440020079800ce0090003e009000808f50002a
:1038540004003200ce0090002e009000808f5000b3
:1038640003003a00100020005007980002003700bf
:103874000000eb00500798005e0090000080fa0002
:10388400000006000600fa00200798002e009000b1
:10389400000f780030478000100798009e009000c9
:1038a40030478000808050001e007800808f5000d8
:1038b400faff39000000eb00000f78000080fa00e6
:1038c400000006000600fa00200798002e00900071
:1038d400000f7800e4c8bf000080fb0010079800c8
:1038e400e4c8bf008080fb001e00900000805000f0
:1038f4009e0f5000faff35000080fa000000060019
:103904000000fa0045c7bf0081cfb300014060004a
:1039140045e7b7004567a90043c7bf000047b200a9
:10392400f04f5000fcff3a0042c7bf000042b20013
:103934000004e000fcff32000080fa0000000600f2
:103944000000fa00e042a900e062a900e082a900b8
:10395400e0e2a900e0a2a900e0c2a8000080eb0018
:10396400601988000080eb0050198800e4e2a80088
:10397400e842a800e862a9000080fa0000000600fe
:103984000000fa008000200080118800004422001a
:103994009011880032c2bf00f043b20001c4b300ea
:1039a4000140700032e2b700f0192000c011880015
:1039b400616a20009140780000ccb30000c0600030
:1039c400a040b300a6e6b700116d20009140780036
:1039d40000ccb30000c060005040b300d1e6b70093
:1039e40087c0a90087e0a90097c0a80097e0a800b5
:1039f400310b20009140780080cfb30000c06000fc
:103a04005040b300b3e0b700310b20009140780080
:103a1400f0c8b30000c0600001c5b30001407000ed
:103a2400b3e0b7003342a80031e2a8000000eb0085
:103a34008008880094e0a8000111200091407800db
:103a4400f0ccb30000c060000044a00010e1b70057
:103a54001021a900204e20006008880011e1a80070
:103a64000080fa00000006000000fa008000200038
:103a740080128800004422009012880052c2bf00c5
:103a8400f043b20001c4b3000140700052e2b70039
:103a940020022000c0128800316a20009140780082
:103aa40000ccb30000c060007040b300a3e6b700d0
:103ab400616c20009140780000ccb30000c060002d
:103ac400c041b300c6e6b7008e40a9008e60a900cd
:103ad4009e40a8009e60a800cdc0bf007040b30007
:103ae400cde0b700d10c20009140780000c7b300ae
:103af40000c07000cde0b7005342a80051e2a80016
:103b04000000eb00900888009500a8002111200017
:103b140091407800f0ccb30000c060000044a000e5
:103b240012e1b7001221a900204e2000700888007d
:103b340013e1a8000080fa00000006000000fa006b
:103b4400f042a800f062a800f442a900f462a900bf
:103b54000000eb00301088000000eb0040108800eb
:103b640030012000201088000000eb006010880065
:103b74000000eb00101088009620a8009600a90011
:103b8400c10a20009140780080cfb30000c06000db
:103b9400ace0b700c10a200091407800f0c8b3003f
:103ba40000c0600001c4b30001407000ace0b70085
:103bb40007e2a8000080fa00000006000800fa00ee
:103bc400200798003107980010c0b3005ee8b700e2
:103bd40060c0b3005fe8b700ae00900000f02f00b3
:103be400008060004800de0060e8b7002e0090000e
:103bf40061e8b700be00900000f02f000080600074
:103c04004800de0062e8b7003e00900063e8b700b9
:103c140060c0b30068e8b7000040eb0069e8b70093
:103c2400ac68a9006648a9006608a8006628a9002f
:103c34008186200091407800e08520007ffe070007
:103c4400100798001e009000004f78001e40780076
:103c540064e8b7009e00900000f02f000080600030
:103c64004800de00004f78001e40780065e8b70089
:103c740068c8bf0000c0e80068e8b70010c0b3001f
:103c840069e8b7009ec0bf00684060000004e0001f
:103c940001003a009e60a8005ec8bf000080fb00df
:103ca400a01288000080fa00000006000400fa0058
:103cb40010c0b3005ee8b70030c0b3005fe8b700df
:103cc4000040eb0060e8b70010c0b30061e8b70043
:103cd4000040eb0062e8b700f0c0b30063e8b7004f
:103ce40060c0b30068e8b7000040eb0069e8b700c3
:103cf4000040eb0069e8b7006608a9006628a80040
:103d04008186200091407800e08520004bfe07006a
:103d1400100798001e009000004f78001e407800a5
:103d240064e8b7009e00900000f02f00008060005f
:103d34004800de00004f78001e40780065e8b700b8
:103d440068c8bf0000c0e80068e8b70053c2bf00fd
:103d5400644060000004e00004003a005342a800fc
:103d6400020037008e60a9009e60a8008ec0bf00cc
:103d7400684060000004e000faff3a005ec8bf003b
:103d84000080fb00a012880069c8bf000040e80062
:0c3d940069e8b7000080fa00000006009b
:020000040000fa
:103da000fa0800000400000002000000000001000a
:103db00000000000e40800000a000000000000000d
:103dc000b008000026000000000000005e080000af
:103dd0005200000000000000ee0800000600000095
:103de00000000000fe0800000200000002000000c9
:103df00008000000f40800000600000000000000b9
:103e0000000800005e00000000000000d60800006e
:103e10000e00000000000000220900001200000057
:103e20000200000001000200000400000800100071
:103e300000000000202b2d0023300000340900007a
:103e40000800000002000000686a6c00747a4c00f0
:103e50000000000000090000220000000200000035
:103e60003031320033343500363738003961620082
:103e7000636465006600300031323300343536004b
:103e800037383900414243004445460000000000f5
:043e9000000000002e
:020000040000fa
:103e94000000fa000000eb00200888009460a800ed
:103ea4004110200091407800f0ccb30000c06000c5
:103eb4000044a00004e1b7000421a90005e1a80022
:103ec400007d2000100888000080fa000000060031
:103ed4003600f800809fbe00829fbe00849fbe0013
:103ee400869fbe000000fa00304780000000e0001a
:103ef40016003a00803e200030478800e4c8bf0026
:103f0400fe4f500005003a00100020004047880092
:103f14000040eb00e4e8b7000f003700e4c8bf003e
:103f24000040e800e4e8b700504780000000e000eb
:103f340002003a005dff0700070037005047800089
:103f44000000e90050478800030037003047800034
:103f54000000e900304788008460a9000080fa006e
:103f64004f03be004f02be004f01be004f00be0013
:103f74003600f90000400600801f78000000fa00b7
:103f8400a0478000620060000000e00014003a00d6
:103f940008c2bf00614060000004e00010003a0065
:103fa40009c2bf00644060000004e0000c003a0055
:103fb40008c2bf00684060000004e000080032004e
:103fc400a0478000610060000000e00004003a00a7
:103fd400f6c8bf000080fb0010108800f428a80079
:103fe4008620a9000080fa004f00780000400600f7
:00000001FF
