:020000040000fa
:080000000002040000000000f2
:020000040000fa
:100400006f9420000e7f24000e0188000000000081
:100410000c000700e00d2200010020001100070081
:10042000000020000000e000020032000000020096
:1004300000000000f8120200000000000040da0096
:100440000000fe004440a900000e20000000e00073
:100450000300320000002000a00188004440a800f2
:100460000000060091018800800078000000eb0089
:1004700015003700e280400032a0b4009101ba00bc
:10048000e280400032a0b4009102ba00e280400055
:1004900032a0b4000002eb00472bde00f507b200eb
:1004a000602ce10004003a000059eb008301e900f0
:1004b000fdff3e00040037006128e100010032002a
:1004c0000082eb00040007001101ba000200e00006
:1004d000e8ff3a00000006003159ba008301e90044
:1004e0000c0032002159ba008301e90008003200f3
:1004f0000400e00003003a00e280400032a0b400b3
:10050000f5ff370011d9ba008301e900faff3a007c
:100510008100e800e180400032a0b4000000060045
:1005200098020400000000000040da000000fe0015
:10053000881f780002047800470407000800400084
:100540004f047800000006000000fa00881f7800c1
:10055000000478003fb99700ea81570080007800d6
:100560008029200009000700800078000000e000da
:10057000020035000040eb0000f478000100780034
:100580004f0478000080fa00000006006200fa00c4
:10059000889fbe008a9fbe000004be00020578004e
:1005a0008300780060f92f000f0040002504070049
:1005b00088979f0099979f000000eb00a09f9f00e5
:1005c0009a4578000b80fb000000ea00cf04de00b3
:1005d00050c2b30080cf55000200320009047800f9
:1005e000010037000904e9000800e0000b003400b6
:1005f0001f909700080178008a0078008f9197007b
:100600000300010090979f000000e000930032007b
:100610002f98970000004400a09f9f000905450007
:1006200050c2b30080cf5500040032000b04e0003c
:10063000e3ff3a002f989700890037000000eb0095
:10064000809f9f00f0979f00e0979f00d0979f00aa
:10065000c0979f00b0979f00c09f9f000900370080
:10066000809320000080500000004000c1922000d4
:10067000e10078004f98970001007000c09f9f0034
:100680000a05e8001a4478008800fb0080932000e7
:100690009a010700800078000000e000f0ff3a00b7
:1006a000a0c2b300804f54000e003a00bf889700ec
:1006b0000180e900b08f9f0010007800b09f9f007c
:1006c0000000e00005003d000000ea00b09f9f0030
:1006d0004f9897000020a000c09f9f000a05e800e7
:1006e00010003700b19f9f0003fd2f00f4ff27008b
:1006f000080037003f989700840f50000400320034
:100700006a00b9000000410003004000b09f9f0054
:100710000a05e8001a01fb0003004100e90f500040
:10072000f4ff3600e0c2b3009a4f1000040032001c
:100730000080eb00909f9f008a0478001c00370027
:100740008a04e800a0c2b300994f100007003a00e5
:10075000bf8897000180e900b08f9f0010007800eb
:10076000909f9f008a84e800110037000000eb0092
:10077000909f9f0003fd2f00f4ff27000800370023
:100780001f989700840f5000040032006a00b900df
:100790000000410003004000909f9f008904e80092
:1007a0001901fb0003004100e90f5000f4ff36007f
:1007b000194478008800fb00e09320004f010700f7
:1007c0000000e00002003a00004478000100370019
:1007d0008904e800a87f9f0080c6b300804f5400c2
:1007e00004003a00994f14000a003a006640500095
:1007f00006003700c0c6b300804f540005003a0021
:10080000994f140003003a0065404000a07f9f000c
:100810008904e8000905e800cbfb2f008b85470021
:100820001901fb0060f92f000f0040000084e80070
:100830008b01780080007800080078000c00070029
:100840000000e00005003a008b0078000800780006
:10085000be0207000000e00059ff3d000080eb00f1
:100860004f05be004f04be000080fa0000000600e5
:10087000889fbe008a1f780000047800010278007b
:100880008244780003057800e0c6b300804f510031
:10089000c600320010003c006b405000804f5100f9
:1008a0001800320005003c0050c2b300804f5100d8
:1008b0000301320080c5b3000f00370040c6b3000b
:1008c000804f51001400320065404000804f5100bd
:1008d000fe003a001000370000c7b300804f5100ff
:1008e000e80032005e00350065404000804f510056
:1008f0005b0032006340400080cf5400f3003a00b8
:10090000570037009180e900010a780078009000d4
:1009100091717800f3003700a8609000c0c6b30062
:1009200080cf50000a003a009400780064805000a4
:10093000000a78001000be004f89de00cf91de0073
:100940000002be0002037800820378001300370023
:1009500010c7b30080cf500003003200a0c6b30020
:1009600080cf500006003a00940078006880500064
:10097000000a78003002be002003be0007003700e6
:100980001480e900000a7800100078000002780066
:10099000cfa2de000503780086037800049cbe0029
:1009a0000694be00a860900080c6b30080cf5000bf
:1009b0000e00320020c6b30080cf500005003a0080
:1009c0000400fb00cf80de00010178008201780086
:1009d0000a00370040c7b30080cf50000300320048
:1009e0006640400080cf500006003a0004007800c6
:1009f000cf80de000101780082017800009cbe00fb
:100a00000294be003800be002801be00e00f500076
:100a1000e08f5800e00f5900e08f590003003d00bf
:100a200078009000d1c2b3000a003700081090008f
:100a30000018a3000300320078009000b1c2b30098
:100a4000040037000008a300530032007800900033
:100a500001c2b300017578000000e8004d003700c6
:100a6000a8609000c0c6b30080cf500006003a00d6
:100a70009400780064805000000a78001002be00e4
:100a80006033b8001300370010c7b30080cf5000a8
:100a900003003200a0c6b30080cf500006003a0029
:100aa0009400780068805000000a78003002be0090
:100ab0002003be00070037001480e900000a780018
:100ac00010007800000278000500200006002000d9
:100ad00007002000049cbe000694be00a8609000a1
:100ae00080c6b30080cf50000e00320020c6b30095
:100af00080cf500005003a000480fb000100200078
:100b000002002000030020000a00370040c7b300a5
:100b100080cf5000030032006640400080cf50007c
:100b200006003a00040078000100200002002000c6
:100b300003002000009cbe000294be00081090003c
:100b40000038a300140032003800be002801be00a7
:100b5000e00f5000e08f5800e00f5900e08f59007f
:100b60000d00320080c7b30080cf54000300320074
:100b700080c5b30080cf540007003a007800900091
:100b800001c3b300017578008000e80009f5780022
:100b90000080e80070049800780090000000450094
:100ba000600498008940780042003700a8609000f7
:100bb000c0c6b30080cf5000250032000a003c00c0
:100bc0006440500080cf50002800320000c0e80090
:100bd00080cf5000140032006840500080cf500099
:100be00022003a000a00370040c7b30080cf50000f
:100bf0001e0032006640400080cf50001b003200d3
:100c00006940500080cf500018003a0006003700bd
:100c10001480e900000a780010007800485c900019
:100c200008487800310037001480e900000a780095
:100c30001002780068089000cf80de000101780083
:100c400082017800009abe000292be0027003700a1
:100c50001480e900000a780010017800680890000c
:100c6000cf80de000089be00200037001480e9003c
:100c7000000a780010007800680c900008087800de
:100c80001a0037001180e900800878001000780011
:100c9000cf80de000101780082017800009cbe0058
:100ca0000294be00780090000000450060049800a7
:100cb00081c7b30008007800190007000b00370057
:100cc00078009000027578000600370078009000e8
:100cd000800045000904e00001003a0059c2b30059
:100ce000894878000000e800700498000000eb00dc
:100cf0004f0578004f04be000000060004003700d6
:100d00000204e00001003a00000005000000e800d5
:100d100010417800814f5100f9ff3a0000000600b1
:100d20002f03b000889fbe008a9fbe008c9fbe002c
:100d30008e1f780000077800b0912000c0b79f0098
:100d400080c5b30080cf500008003200a290200080
:100d5000c2b79f007740400080cf500003003a00a8
:100d600083002000b3b79f000a00370080c7b3009c
:100d700080cf500005003200a4002000b4b79f00cf
:100d800080c5b30080cf500002003a00050120006a
:100d9000b5b79f003e04be002e05be0040c6b3009e
:100da00080cf5000030032006540400080cf5000eb
:100db0000b003a00e00f5400e08f5c00e00f5d0094
:100dc000e08f5d0006003d006000b8006011b800d3
:100dd00008045000898458000a0559008b85590081
:100de000bfb39700e88f530003003200f08f530029
:100df00045003a00020037003600200001003700ad
:100e000046002000e00f5400e08f5c00e00f5d0022
:100e1000e08f5d0005003a005e089000810120002f
:100e2000a1b79f000000e000080032003fb197002a
:100e30000200e90008006000cfb19700634078002d
:100e400090df9f0074012000a4b79f008602780005
:100e50008502e900050033008b05d1000a85d30027
:100e60008984d3000884d300f9ff3700089fbe00af
:100e70000a97be00afb397000700e90021fc2f00de
:100e80008f804000008240003fb197008202e9005d
:100e900012003700afb397008703e900a7b79f00a0
:100ea00000806200cfb09700615278003e00be0023
:100eb0002e01be00860378008703e9000500330099
:100ec0008381d1000281d3008180d3000080d300d0
:100ed000f9ff3700009fbe000297be003e00be0033
:100ee0002e01be00e00f5000e08f5800e00f5900c7
:100ef000e08f5900d6003400afb397000700e00040
:100f0000e4ff3c00d2003700ae60900080c6b30022
:100f100080cf50000b00320006003c000104e000ce
:100f2000080032006640500080cf500073003a0045
:100f300004003700c0c6b30080cf50006f003a00f5
:100f400031003700080178000800e00005003a0091
:100f50005e08900081012000a1b79f000000e00022
:100f600009003200bfb19700110009000381d800c9
:100f70008000fd004fb297006440780090df9f0032
:100f800075012000a5b79f00bfb3970011000900ad
:100f90000781d80080017800afb097000100e90018
:100fa00022fc2f000f014100000241000c0037001d
:100fb000bfb29700110009008501d8000001780038
:100fc000afb397008703e900a7b79f000590b9006a
:100fd00000805100cfb09700615278008201780004
:100fe0000300e000030034002fb197000200e0008e
:100ff000efff3c0003007800cf80de0001017800a5
:10100000820178003a0037000806be00e00f540065
:10101000e08f5c0005003a005e089000830120002c
:10102000a3b79f000000e000090032003fb2970024
:101030006121b9000c00be00ad010700cfb29700de
:101040006540780090df9f0077012000a7b79f00e0
:101050003fb297006121b9000c00be009401070067
:101060000006be00afb297000500e90027fc2f0084
:101070008f8343008083430097b79f0011003700a0
:101080003fb197006114b9000801be000c00be001a
:10109000780107000005be00afb197008301e900a9
:1010a000a3b79f000801be0094010700000056008e
:1010b0001fb29700cfb297006552780094b79f0097
:1010c0000a06be00e00f5600e08f5e000300340009
:1010d000afb397000700e000e9ff3c004feade00f5
:1010e000cfa2de000c00be0004017800840178006d
:1010f000009fbe000297be0055003700e00f54006d
:10110000e08f5c00e00f5d00e08f5d0005003a00bd
:101110005e08900081012000a1b79f000000e00060
:101120000d0032003fb1970002027800cfa2de002e
:1011300005037800860378000800be000a01be009f
:10114000220207004fb297006440780090df9f00b2
:1011500075012000a5b79f003fb1970002027800fb
:10116000cfa2de0005037800860378000800be00e9
:101170000a01be000e020700009fbe000297be00db
:10118000afb197000300e90024fc2f000f024200da
:101190000006420020003700bfb297000504780027
:1011a000cfc4de00090578008a0578000802be0079
:1011b0000a03be005fa89700efa897007fa99700d9
:1011c0008fb1970005020700d0b79f00e1b79f00dd
:1011d000f2b79f0083bf9f00afb397008703e9007a
:1011e000a7b79f000802be000a03be006502070001
:1011f0005faa970000005200cfb2970065567800b2
:101200005fb09700efb097007fb197008fb997005c
:10121000009fbe000297be003e00be002e01be0031
:10122000d0af9f00e1af9f00f2af9f0083b79f0058
:10123000e00f5000e08f5800e00f5900e08f590098
:1012400003003400afb097000100e000d2ff3c0083
:101250003fb19700e80f510013003a000e109000c4
:101260000038a30010003200afb19700f78f510093
:1012700006003e0024fc2f000f02420083004200c3
:1012800000c3b300914f100007003200afb29700c7
:101290008502e900a5b79f0000c3b30027fc2f001b
:1012a0008f83430080f37a00afb1970078811100fb
:1012b000120f98006e009000cf91de0024fc2f00ea
:1012c0000f024200afb2970085004200e200070023
:1012d0001e0990005e089000800f510006003d003e
:1012e00002005000000f98000e1090000040a10076
:1012f000001798000f0037000000e0000d003d00cf
:101300000e10900074006000f00f500009003a00c9
:101310007e089000fe009000010050008e089000b2
:1013200001005000020050004240a90001003400ba
:10133000000f98004f0778004f06be004f05be0013
:101340004f04be002f03b100000006000400fa00a5
:10135000889fbe008a9fbe008c1f78000004780022
:101360000106780070089000f8009000010050001d
:10137000880890000100500098089000010050007b
:10138000a808900001005000b8089000010050002b
:10139000c8089000810550000002220090bf9f0005
:1013a00000032300a0bf9f00081090000028a300a6
:1013b00015003a000b00e000130034008b047800a5
:1013c0002a0020008a8f540001003e0009057800a1
:1013d0006151b9005800900048029000ee8057001b
:1013e00004000100500498000000e0008d0032006d
:1013f0006808900000004500600c98008a84540042
:101400004240a900eeff3c00780090000000e000a0
:101410000c0034006101b9005800900048029000af
:101420008c00780004000100500498000000e000e7
:101430007c00320068089000f80090000100400035
:10144000600c9800880c90000900e0001200340045
:101450002a0020008a8f540001003e000905780010
:101460006151b9005800900048029000ec8057008c
:1014700004000100500498000000e0006900320000
:101480006808900000004500600c98008a845400b1
:101490004240a900eeff3c00180890000000e00068
:1014a0000c0034006101b900e80090005800900081
:1014b0004802900004000100500498000000e00081
:1014c0005800320068089000980890000100400021
:1014d000600c9800a80c90000900e0001200340095
:1014e0002a0020008a8f540001003e000905780080
:1014f0006151b9005800900048029000ec805700fc
:1015000004000100500498000000e0004500320093
:101510006808900000004500600c98008a84540020
:101520004240a900eeff3c00380890000000e000b7
:101530000e0034006101b900e80090001808900026
:101540008080400058009000480290000400010094
:10155000500498000000e00032003200680890005b
:10156000b808900001004000600c9800c80c900082
:101570000900e000120034002a0020008a8f540085
:1015800001003e00090578006151b9005800900043
:1015900048029000ec8057000400010050049800bd
:1015a0000000e0001f0032006808900000004500c5
:1015b000600c98008a8454004240a900eeff3c0071
:1015c000081090000028a300180032000b00e00073
:1015d000160034008b0478002a0020008a8f540003
:1015e00001003e00090578006151b90058009000e3
:1015f00048029000ee80570004000100500498005b
:101600000000e0000700320068089000000045007c
:10161000600c98008a8454004240a9000300340002
:10162000edff37000080eb00010037000000eb0009
:101630004f0678004f05be004f04be000080fa0040
:10164000000006000200fa00f1bf9f0001087800c8
:101650000080fa00000006008001eb000200370065
:1016600061f079008301e800828f5100fcff3a00ad
:1016700000000600839f68000100e00002003d00ba
:1016800060001000e08018000300e00002003d0050
:1016900060011100e0811900050007004f00e00023
:1016a00002003b0060001000e0801800000006000f
:1016b0006022b800060220000000d0008180d20025
:1016c0000482d2008582d2000000a00002025200f3
:1016d00083825a00030031000202420083824a00e2
:1016e0000000a1000603e900f3ff3a000000060035
:1016f000efff07000400be0000000600020ab90068
:10170000001bb9000200b8008100420081004300c4
:1017100000000600881f7800000478005001be0019
:101720004000be00040040008580480006014900da
:1017300087814900009cbe000294be000400e100c5
:101740000588e1000690e1000798e1000200310001
:10175000680044001008e8004f047800000006000c
:10176000f4874700889fbe008a9fbe008c9fbe0002
:101770008e1f78000205be000004be00d4b79f0093
:10178000e5b79f00f6b79f0087bf9f000000eb0002
:10179000c0b79f00b0b79f00a0b79f0090b79f0051
:1017a00080b79f000d042000bfb097004fb0970096
:1017b000000140000000e0000f003d004f08de0087
:1017c00000007100c0b79f004d00070001003d0000
:1017d000120020005000070001003d001200200010
:1017e0005500070061000700660007000f00400079
:1017f000c8ff0700220037004f08de000006710016
:10180000ccb79f003e00070001003d001200200001
:101810004100070001003d001200200046000700c3
:10182000520007000fb297009fb297002fb39700a6
:10183000bfb39700590007000000520081805a0092
:1018400002015b0083815b0080b79f0091b79f001e
:10185000a2b79f00b3b79f000007eb004f0007003f
:101860000020e10001a8e10002b0e10003b8e100be
:10187000010031001e0020000e005600c0b79f007e
:101880004fb297000400e000070035001000200070
:10189000010020006011b800080470008984700005
:1018a0000a0571008b8571008d06e900beff3a00c4
:1018b0000400e00003003d00320007000f0040007c
:1018c00094ff07004fa897000000e00004003a00d2
:1018d0000fb497009fb497002fb59700bfb597003e
:1018e0000800be000a01be004f0778004f06be0088
:1018f0004f05be004f04be004f01b10000000600be
:101900000180400090b79f000001eb008fb097006e
:101910000100e000000006000200700090b79f0088
:101920000180400080b79f000001eb00ffa89700f6
:101930000100e000000006000200700080b79f0078
:10194000018040006faa9700cf20de0001007000e8
:10195000f0af9f00040242000800be000a01be0072
:101960004f18de000002720000000600e4af9f0086
:101970000804440089844c000a054d008b854d0005
:10198000000006003fb29700cfb297005fb3970008
:10199000efb3970000fe2f00000006003fb0970055
:1019a000cfb097005fb19700efb19700000006003d
:1019b000881f780018002000881f780068ff070043
:1019c0008f87e9004f04780000000600801feb00bd
:1019d00063ff07008f87e90000000600889fbe00b4
:1019e0008a9fbe008c1f78000205be000004be0066
:1019f000e00f5000e08f5800e00f5900e08f5900d1
:101a00000c003d006000b8006011b80008045000f0
:101a1000898458000a0559008b8559001c00200054
:101a20001f00070008003d00180007000006eb003b
:101a3000050037000006eb001900070002003d001a
:101a40000f0007001c0020000800be000a01be00b5
:101a5000d7ff07000203be000002be000c00e0003a
:101a600001003200060007000400be000601be00af
:101a70004f0678004f05be004f04be000000060070
:101a80006000b8006011b800000037000402500088
:101a9000858258000603590087835900000006001c
:101aa000e00f5200e08f5a00e00f5b00e08f5b0018
:101ab00000000600889fbe008a9fbe008c1f780031
:101ac0000205be000004be00e00f5000e08f580089
:101ad000e00f5900e08f59000a003d006000b80097
:101ae0006011b80008045000898458000a055900a4
:101af0008b8559001c0020001800070007003d00de
:101b0000050037000006eb001400070003003d004d
:101b10006000b8006011b800150007000800be00a2
:101b20000a01be00a9ff07000203be000002be00ba
:101b30000c00e000030032006000b8006011b80043
:101b40000b0007000400be000601be004f0678002f
:101b50004f05be004f04be0000000600e00f52001b
:101b6000e08f5a00e00f5b00e08f5b000000060092
:101b700004025000858258000603590087835900eb
:101b800000000600889fbe008a9fbe008c1f780060
:101b90000205be000004be000006eb00e00f50008e
:101ba000e08f5800e00f5900e08f590007003d001a
:101bb0006000b8006011b800080450008984580023
:101bc0000a0559008b8559001c002000e00f5200c7
:101bd000e08f5a00e00f5b00e08f5b0002003d00e9
:101be0000f0007000c00a2000800be000a01be00a2
:101bf000120007000203be000002be000c00e0005d
:101c000001003200060007000400be000601be000d
:101c10004f0678004f05be004f04be0000000600ce
:101c20006000b8006011b8000402500085825800be
:101c3000060359008783590000000600889fbe00f4
:101c40008a9fbe008c9fbe000404b8000506b80041
:101c50008904460060854e000606b8000a05460065
:101c6000e0854e000706b8008b054600040eb8005c
:101c7000890446000a854e00e0854d00050eb80037
:101c80000a0546008b854e00060eb8008b054600ff
:101c90000416b8000a0546008b854e000516b800ec
:101ca0008b054600041eb8008b0546000800be00e8
:101cb0000a01be004f06be004f05be004f04be0025
:041cc000000006001a
:020000040000fa
:020000040002f8
:04aff800bf7900001d
:020000040000fa
:020000040002f8
:04affc007fbf000013
:020000040000fa
:1000080094020000d2120000d8120000ec12000086
:10001800f212000094020000940200009402000012
:100028009402000094020000940200006a2000007c
:100038009402000094020000940200003e1c00009c
:10004800361a000094020000940200009402000096
:100058009402000094020000940200009402000040
:10006800940200005821000094020000940200004d
:100078009402000094020000940200009402000020
:100088009402000094020000940200009402000010
:100098009402000094020000381d0000ae1d00000c
:1000a80094020000940200009402000094020000f0
:1000b80094020000940200009402000094020000e0
:1000c80094020000940200009402000094020000d0
:1000d80094020000940200009402000094020000c0
:1000e80094020000940200009402000094020000b0
:1000f80094020000940200009402000094020000a0
:10010800940200009402000094020000940200008f
:10011800940200009402000094020000940200007f
:10012800940200009402000094020000940200006f
:10013800940200009402000094020000940200005f
:10014800940200009402000094020000940200004f
:10015800940200009402000094020000940200003f
:100168009402000094020000441b0000f01b0000f1
:10017800940200009402000094020000940200001f
:10018800940200009402000094020000940200000f
:1001980094020000940200009402000094020000ff
:1001a80094020000940200009402000094020000ef
:1001b80094020000940200009402000094020000df
:1001c80094020000940200009402000094020000cf
:1001d80094020000940200009402000094020000bf
:1001e80094020000940200009402000094020000af
:0801f8009402000094020000d3
:020000040000fa
:1002080094020000d2120000d8120000ec12000084
:10021800f212000094020000940200009402000010
:100228009402000094020000940200006a2000007a
:100238009402000094020000940200003e1c00009a
:10024800361a000094020000940200009402000094
:10025800940200009402000094020000940200003e
:10026800940200005821000094020000940200004b
:10027800940200009402000094020000940200001e
:10028800940200009402000094020000940200000e
:100298009402000094020000381d0000ae1d00000a
:1002a80094020000940200009402000094020000ee
:1002b80094020000940200009402000094020000de
:1002c80094020000940200009402000094020000ce
:1002d80094020000940200009402000094020000be
:1002e80094020000940200009402000094020000ae
:1002f800940200009402000094020000940200009e
:10030800940200009402000094020000940200008d
:10031800940200009402000094020000940200007d
:10032800940200009402000094020000940200006d
:10033800940200009402000094020000940200005d
:10034800940200009402000094020000940200004d
:10035800940200009402000094020000940200003d
:100368009402000094020000441b0000f01b0000ef
:10037800940200009402000094020000940200001d
:10038800940200009402000094020000940200000d
:1003980094020000940200009402000094020000fd
:1003a80094020000940200009402000094020000ed
:1003b80094020000940200009402000094020000dd
:1003c80094020000940200009402000094020000cd
:1003d80094020000940200009402000094020000bd
:1003e80094020000940200009402000094020000ad
:0803f8009402000094020000d1
:020000040000fa
:101cc400206900004e65000072000000436f0000b0
:101cd4006e6e000065630000746900006f6e0000a2
:101ce400205400006f2000004735000020650000ec
:101cf400727200006f720000206f000063630000c6
:101d040075720000726500006400000057720000e4
:101d14006974000065200000302e0000314100008d
:101d240068200000546f00002047000035200000a8
:101d3400636f00006d7000006c6500007465000046
:101d44000057000072690000746500002041000023
:101d540068200000546f0000204700003520000078
:101d640065720000726f0000722000006f63000053
:101d74006375000072720000656400000057000083
:101d8400726900007465000020570000686f00004d
:101d94006c6500002041000068200000546f0000c2
:101da4002047000035200000636f00006d700000c4
:101db4006c65000074650000005700007269000043
:101dc4007465000020570000686f00006c65000017
:101dd4002041000068200000546f000020470000ec
:101de4003520000065720000726f00007220000050
:101df4006f63000063750000727200006564000088
:101e040000000000566f00006c7400006167000061
:101e1400653a000000560000002000002020000069
:101e24002020000020200000004300007572000004
:101e3400726500006e7400003a000000410000006a
:101e4400202000002020000020200000202000008e
:101e5400004e00006f770000416800003a00000067
:101e64004168000000460000756c00006c410000f1
:101e7400683a000000250000640000002e00000005
:020000040000fa
:101e84000000fa00bf01070010c0b300610507009d
:101e940042f0280011c0b30010c0b3005e00070078
:101ea4000246800091c0b30010c0b3006b0007006d
:101eb400d2f02800d1c0b30010c0b3005600070010
:101ec400f2f02800e1c0b30010c0b30052000700d4
:101ed40072f1280011c0b30020c0b3004e00070007
:101ee4001246800091c0b30020c0b3005b0007001d
:101ef4001146800030062000808f500009003e000b
:101f040002f22800c1c0b30020c0b30042000700a1
:101f140022f22800d1c0b30020c0b3003e00070065
:101f24000800370002f22800d1c0b30020c0b3007b
:101f340039000700f2f02800e1c0b30020c0b3006c
:101f440035000700b2f2280011c0b30030c0b3005e
:101f5400310007002246800071c0b30030c0b300d6
:101f64003e00070022f32800b1c0b30030c0b30024
:101f74002900070022f22800d1c0b30030c0b3000a
:101f84002500070052f3280011c0b30040c0b3007d
:101f940021000700c246800081c0b30040c0b300e6
:101fa4002e00070022f32800c1c0b30040c0b300d4
:101fb40019000700f2f02800e1c0b30040c0b300ec
:101fc400150007000080fa00000006000000fa0077
:101fd4000246800091c0b30010c0b3001f00070088
:101fe4001246800091c0b30020c0b3001b0007005c
:101ff4002246800071c0b30030c0b3001700070050
:10200400c246800081c0b30040c0b3001300070083
:102014000080fa00000006000400fa00004f780077
:102024001147980012079800010037000942a900df
:1020340009c2bf00644060000004e000fbff3a00f6
:102044009e4090001e4078000f0107001e00900083
:10205400f60007000080fa00000006000c00fa00f9
:10206400004f9800114f9800520798000e489000b6
:102074000080fb00200798001e4890000080fb00b1
:1020840010079800010037000942a90009c2bf00e7
:10209400644060000004e000fbff3a001e00900072
:1020a400804078002e009000f70007005e0090004a
:1020b400a2002000110009000280d800e6004700b9
:1020c400801f7800d0f32800801f7800010078007a
:1020d4001cf90700e487570066004700d300070097
:1020e400de00900030062000808f500003003e0088
:1020f40010002000000f78000200370020002000ac
:10210400000f78001e009000804078001e007800c8
:1021140000c04000804078002e009000da000700e4
:1021240000f42800c10007001e00900080407800e1
:102134001e00780000c040000040e80080407800a5
:102144002e009000d00007005e009000a200200046
:10215400110009000280d8008000fd00e60047005d
:10216400801f7800d0f32800801f780001007800d9
:10217400f4f80700e487570066004700ab00070047
:102184000080fa00000006000000fa00000037009a
:1021940006c2bf00614060000004e000fcff3a009a
:1021a40006c2bf00644060000004e000f8ff3a008b
:1021b40006c2bf00684060000004e000f4ff3a007b
:1021c40006c2bf00704060000004e000f0ff3a0067
:1021d40009c2bf000044b2000004e000ecff3a0072
:1021e4000080fa00000006000000fa00e6ff070085
:1021f4000602a8000080fa00000006000000fa00b1
:10220400e1ff07000622a8000080fa000000060093
:102214000000fa00dcff07000642a8000080fa0074
:10222400000006000000fa0006a2a900d6ff07007d
:102234000682a8000080fa00000006000000fa00f0
:1022440006a2a800d0ff07000682a8000080fa00ba
:10225400000006000200fa00004f78001e407800db
:1022640004e9b7000209a9000229a90008c2bf00b5
:10227400614060000004e0000400320086c0bf003a
:10228400624060000004e000f8ff3a0009c2bf00a9
:102294000080fb004700de000080fb000080fa00a5
:1022a400000006000200fa00004f78001e4078008b
:1022b40006e9b7000040eb0024000700e00120001d
:1022c4004504070030c0b300390007005000200067
:1022d4004104070030c0b30035000700500020005f
:1022e4003d04070030c0b300310007005000200057
:1022f4003904070020c0b3002d000700500020005f
:102304003504070080c2b300290007002003200021
:1023140031040700c0c0b3002500070020032000db
:102324002d04070010c0b300210007002003200083
:102334002904070060c0b3001d000700200320002b
:10234400250407000080fa00000006000200fa00dd
:10235400004f7800a4ff070006c9bf00bdff0700b7
:1023640008c9bf001e407000baff0700a8ff07009d
:102374000080fa00000006000200fa00004f780016
:1023840005c9bf001e4f70001e4078000024a00045
:10239400eeff0700b0cfb3001e406000ebff070064
:1023a400100020000c0407000080fa000000060062
:1023b4000200fa00004f78000040eb0005e9b70086
:1023c40000cfb3001e406000ebff07001e80fb003f
:1023d4004400dd008040780000cfb30000c06000fe
:1023e400e5ff07000080fa00000006000200fa0082
:1023f400004f780010c0b30005e9b7009e40780094
:1024040000cfb30000c06000dbff07001e00fb002c
:102414004400dd008040780000cfb30000c06000bd
:10242400d5ff07000080fa00000006000400fa004f
:10243400100798000000eb00000f78000000eb008c
:10244400000f7800070037001e0078008000780035
:102454001e0090000080400010407800e3ff070059
:102464001e0fe8001e007800800078001e00900017
:1024740000804000104078000004e000f2ff3a00c1
:102484000080fa00000006000400fa00004f780003
:10249400114798001e80fb00100798001e00900052
:1024a400e30f50000c0032001e009000e40f5000b7
:1024b4000e0032001e009000e20f500001003200b6
:1024c4000f0037009e409000f0cbb30000c04000e6
:1024d400b7ff07000d0037009e40900030c9b300dd
:1024e40000c04000b2ff0700080037009e40900083
:1024f40030cdb30000c04000adff0700030037003b
:102504001e409000f047b000a9ff07000080fa00c9
:10251400000006000000fa0080c0b30008e9b7001c
:102524000040eb0089ff07000080fa00000006006d
:102534000000fa000040eb0008e9b7000040eb009f
:1025440082ff07000080fa00000006000000fa0085
:1025540080c1b30096ff0700100020009e0307000f
:102564000080fa00000006000000fa00c0c1b300b9
:102574008fff070010002000970307000080fa0077
:10258400000006000000fa0010c0b30088ff070036
:1025940010002000900307000080fa0000000600ed
:1025a4000000fa008020a900ffff3700801f780098
:1025b4000200fa0010c0b300004f78008060a90048
:1025c4001e04e000feff3a000080fa004f0078008d
:1025d400004006000000fa008040a900ffff370019
:1025e4000000fa008080a900ffff37000c00fa0009
:1025f4000000eb00500798000000eb004007980033
:102604000000eb00300798000000eb002007980062
:102614000000eb00100798000000eb00000f7800aa
:1026240074050700803e20007047880040012000a8
:1026340090478800f428a900f408a900f448a900e8
:102644001c08a9001e08a9001c28a9007905070078
:10265400c2050700870507008d060700f40507007b
:10266400e0c4b3000fff0700e4e2a800e4a2a9005d
:1026740010c0b30067030700e4e2a900e4a2a800c5
:1026840030c0b3006303070022e6280011c0b30082
:1026940010c0b30060fe070022e6280011c0b3009a
:1026a40020c0b3005cfe070022e6280011c0b3007e
:1026b40030c0b30058fe070022e6280011c0b30062
:1026c40040c0b30054fe070000003700e2c2bf0060
:1026d4000044b2000004e00006003a0001003700a4
:1026e400f408a800e2c2bf000044b2000004e00005
:1026f400fbff3200a0478000610060000000e000a2
:1027040036003200a0478000620060000000e00054
:1027140032003a00b04780000000e0002f003a0089
:10272400b0458000680060000000e0001e003a0030
:102734005e009000e30f50001b003e00a0478000a5
:10274400620060000000e00017003a00e4e2a80024
:1027540010c0b3002f030700e4e2a900100607002d
:10276400d0458000e10f500004003a00f428a8008e
:102774000000eb0050079800180037005e0090003e
:102784000000e800500798000000eb008047880034
:10279400e482a90080478000e10f50000f003a0056
:1027a400e482a8000d003700f428a900e462a9001f
:1027b400e4e2a80030c0b30016030700e442a80016
:1027c40070ff070082e6280011c0b30010c0b300f8
:1027d40011fe07000000eb0050079800a04780009e
:1027e400620060000000e000c8003200d0478000b2
:1027f4000000e00030003a0010c0b30005030700f9
:10280400c0478000e10f5000030032003000200078
:102814009e0f10000600360099fd07000000eb0033
:10282400c04788000000eb00000f7800200037004c
:102834001e0090000000e00004003a008047800081
:10284400200798001000200010079800814780009e
:102854002e009000808f5000150032001e00900062
:10286400e10f500012003a00e4c2bf000080fb00f8
:102874004500de006140600000c0ea006140600085
:10288400614060004501dd00412e20009140780048
:10289400f0cdb30000c0600002407000e4e2b70075
:1028a400cafd07000000eb00100798001e0fe800a7
:1028b40010002000d0478800a0478000640060001a
:1028c4000000e0006b003a00d0478000e10f5000a8
:1028d40068003a0030408000e10f500063003a0085
:1028e400e0408000620060000000e00002003a0066
:1028f400910007005d00370080408000010820003f
:10290400010060000000e00004003200f04080009c
:10291400610060000000e00005003a001c08a80007
:1029240080c0eb000040eb003801070001003700d5
:102934001c08a900104680000000e0004b003a008b
:1029440001468000201c2000808f500047003e007c
:102954008040800001082000010060000000e000c9
:1029640004003a00f0408000610060000000e000d4
:1029740005003a001c08a8008040eb000040eb0072
:1029840022010700010037001c08a9004040800014
:102994000000e00004003a00f040800061006000a4
:1029a4000000e00005003a001c08a80080c0eb000d
:1029b40010c0b30015010700010037001c08a9006e
:1029c4008040800001042000010060000000e0005d
:1029d40004003200f0408000610060000000e0006c
:1029e40005003a001c08a80080c0eb0010c0b3002a
:1029f40006010700010037001c08a90020468000da
:102a0400e10f500006003a00f448a80082e82800cc
:102a140011c0b30010c0b3007ffd070006003700eb
:102a24001100200070002000210507004e009000d6
:102a34000000e800400798004e009000e20f5000ac
:102a44000a003600e442a900e4e2a80030c0b30062
:102a540070020700e442a800cafe070032ea280018
:102a640011c0b30010c0b3006bfd07000000eb0001
:102a7400d0478800a0478000640060000000e000a8
:102a840022003200e482a90010468000ea0f5000c0
:102a94001e003e00c146800020468000808f50000a
:102aa40007003a0010002000b047880012ec28000c
:102ab40011c0b30010c0b30057fd07000600370073
:102ac4001100200090002000f90407003e0090004f
:102ad4000000e800300798003e009000e20f50002c
:102ae4000a003600e442a900e4e2a80030c0b300c2
:102af40048020700e442a800a2fe0700f2ed280005
:102b040011c0b30010c0b30043fd0700b0458000fe
:102b1400680060000000e00001003200b668a9000f
:102b240020438000680060000000e000e7fe3200ff
:102b34006468a900e5fe37000000fa001c08a8003c
:102b440022c0b3008040eb000040eb00ef00070020
:102b540010c0b3002f020700f04080006100600045
:102b64000000e000f5ff32001c08a8000041eb0063
:102b74008040eb0040c0b300e400070010c0b30085
:102b840024020700f0408000610060000000e000c3
:102b9400f5ff32001c08a8000041eb008040eb0068
:102ba40050c0b300d900070010c0b30019020700d9
:102bb400f0408000610060000000e000f5ff32009a
:102bc4001c08a80002cab300f1c0b30070c0b3006f
:102bd400ce00070010c0b3000e020700f0408000d2
:102be400610060000000e000f5ff32001c08a8004e
:102bf40042c6b3008040eb0080c0b300c3000700ae
:102c040010c0b30003020700f040800061006000c0
:102c14000000e000f5ff32001c28a8000080fa0044
:102c2400000006000400fa0010c0b300e0e8b7009a
:102c340010c0b300e1e8b7000040eb00e2e8b700e1
:102c44000040eb00e3e8b7000040eb00e4e8b70025
:102c540010c0b300e5e8b700e808a900e828a80018
:102c640060c0b300eae8b7000040eb00ebe8b7004f
:102c74006468a900e848a900a18e2000914078006a
:102c8400008e2000e2000700100798001e0090004c
:102c9400004f78001e407800e6e8b7009e009000e0
:102ca40000f02f00008060004800de00004f780034
:102cb4001e407800e7e8b700eac8bf0000c0e8009b
:102cc400eae8b70033c2bf00644060000004e000db
:102cd40004003a003342a8000200370087e0a9004c
:102ce40097e0a80087c0bf0001c8b300014060009e
:102cf4000004e000f9ff3a00e0c8bf000080fb00d8
:102d0400a0118800ebc8bf000040e800ebe8b70062
:102d14000080fa00000006000400fa0010c0b300ae
:102d2400e0e8b70040c0b300e1e8b7000040eb00c2
:102d3400e2e8b7000040eb00e3e8b7000040eb0036
:102d4400e4e8b700a0c0b300e5e8b700e808a900cc
:102d5400e828a80060c0b300eae8b7000040eb0030
:102d6400ebe8b7006468a900e848a900a18e200038
:102d740091407800008e2000a500070010079800fd
:102d84001e009000004f78001e407800e6e8b7006f
:102d94009e00900000f02f00008060004800de00dc
:102da400004f78001e407800e7e8b700eac8bf008b
:102db40000c0e800eae8b70033c2bf006440600026
:102dc4000004e00004003a003342a8000200370087
:102dd40087e0a90097e0a80087c0bf0001c8b3003e
:102de400014060000004e000f9ff3a00e0c8bf00c1
:102df4000080fb00a0118800ebc8bf000040e80081
:102e0400ebe8b7000080fa00000006000600fa00b4
:102e1400404798005147980010c0b300e0e8b7005d
:102e240050c0b300e1e8b7000040eb00e2e8b700af
:102e34004e409000e3e8b7005e409000e4e8b7003d
:102e44000040eb00e5e8b700e808a800e828a9007e
:102e540060c0b300eae8b7000040eb00ebe8b7005d
:102e64006468a900e848a9001e08a900a18e2000f2
:102e740091407800008e200065000700100798003c
:102e84001e009000004f78001e407800e6e8b7006e
:102e94009e00900000f02f00008060004800de00db
:102ea400004f78001e407800e7e8b700eac8bf008a
:102eb40000c0e800eae8b70033c2bf006440600025
:102ec4000004e00004003a003342a8000200370086
:102ed40087e0a90097e0a80087c0bf0001c8b3003d
:102ee400014060000004e000f9ff3a00e0c8bf00c0
:102ef4000080fb00a0118800ebc8bf000040e80080
:102f0400ebe8b7000080fa00000006000800fa00b1
:102f140040479800514798006247980010c0b3009a
:102f2400e0e8b70060c0b300e1e8b7000040eb00a0
:102f3400e2e8b7004e409000e3e8b7005e4090003e
:102f4400e4e8b7006e409000e5e8b700e808a800a0
:102f5400e828a90060c0b300eae8b7000040eb002d
:102f6400ebe8b7006468a900e848a9001e08a900b6
:102f7400a18e200091407800008e200024000700dc
:102f8400100798001e009000004f78001e40780043
:102f9400e6e8b7009e00900000f02f00008060007b
:102fa4004800de00004f78001e407800e7e8b700d4
:102fb400eac8bf0000c0e800eae8b70033c2bf00b7
:102fc400644060000004e00004003a003342a800ba
:102fd4000200370087e0a90097e0a80087c0bf007f
:102fe40001c8b300014060000004e000f9ff3a00aa
:102ff400e0c8bf000080fb00a0118800ebc8bf0040
:103004000040e800ebe8b7000080fa00000006008a
:103014000a00fa0030079800014f98000080eb0086
:10302400200798000040eb00304798003e009000d5
:10303400000f78000e489000304798001d003700bc
:103044001e007800104078008080fb002e00900065
:1030540001006800200798001e0fe8000040eb0004
:1030640020479800100037002e0090006100600097
:103074000004e000060032002e0090008000d10021
:1030840010002a0000806800200798000300370021
:103094002e0090000000d100200798002e409000e0
:1030a4000040e800204798002e409000e74f500071
:1030b400edff36003e4090000040e90030479800a4
:1030c4003e409000e14f4000ddff3a002e009000aa
:1030d4000080fa00000006000c00fa000080eb00fb
:1030e400400798000040eb003047980040872000dc
:1030f400000f7800b9c8bf0000c0e900304798004d
:103104001d0037001e007800104078008080fb000e
:103114004e00900001006800400798001e0fe80070
:103124000040eb0020479800100037004e0090004c
:10313400610060000004e000060032004e009000d0
:103144008000d10010002a00008068004007980029
:10315400030037004e0090000000d10040079800a3
:103164002e4090000040e800204798002e40900038
:10317400e74f5000edff36003e4090000040e9006c
:10318400304798003e409000e14f4000ddff3a0098
:1031940040872000000f7800b9c8bf000080fb0002
:1031a4001e004000008fe9001e00780010407800e7
:1031b4000080fb00300798003e0090004800dd00ce
:1031c400300798001e0fe8001e00780010407800b9
:1031d4008080fb003e0090000100700030079800e2
:1031e4001e007800104078000080fb002007980043
:1031f4002e0090004800dd00200798001e0fe90013
:103204001e007800104078008080fb002e009000a3
:103214000100700020079800ce0090003e0090004e
:10322400808f500004003200ce0090002e009000e9
:10323400808f500003003a001000200050079800cf
:10324400020037000000eb00500798005e00900079
:103254000080fa00000006000c00fa000080eb0079
:10326400400798000040eb0030479800208220007f
:10327400000f780067c8bf0000c0e900304798001d
:103284001d0037001e007800104078008080fb008d
:103294004e00900001006800400798001e0fe800ef
:1032a4000040eb0020479800100037004e009000cb
:1032b400610060000004e000060032004e0090004f
:1032c4008000d10010002a000080680040079800a8
:1032d400030037004e0090000000d1004007980022
:1032e4002e4090000040e800204798002e409000b7
:1032f400e74f5000edff36003e4090000040e900eb
:10330400304798003e409000e14f4000ddff3a0016
:1033140020822000000f780067c8bf000080fb00f7
:103324001e004000008fe9001e0078001040780065
:103334000080fb00300798003e0090004800dd004c
:10334400300798001e0fe8001e0078001040780037
:103354008080fb003e009000010070003007980060
:103364001e007800104078000080fb0020079800c1
:103374002e0090004800dd00200798001e0fe90091
:103384001e007800104078008080fb002e00900022
:103394000100700020079800ce0090003e009000cd
:1033a400808f500004003200ce0090002e00900068
:1033b400808f500003003a0010002000500798004e
:1033c400020037000000eb00500798005e009000f8
:1033d4000080fa00000006000600fa0020079800aa
:1033e4002e009000000f78007047800010079800ae
:1033f400704780009e009000008050009e0f500097
:10340400fbff39000000eb00000f78000080fa0099
:10341400000006000400fa00204798002e409000a7
:10342400004f7800ecc8bf00104798001e40900081
:10343400fe4f500002003a000040eb001047980095
:10344400ecc8bf008080fb001e4090000080fb00a1
:10345400808050001e80fb00808f5000f8ff3500f4
:103464000080fa00000006003600f800809fbe00cd
:10347400829fbe00849fbe00869fbe000c00fa009f
:1034840040872000400798004087200010079800dc
:103494000040eb00004f7800b9c8bf000004e00012
:1034a40065003200a0478000610060000000e00079
:1034b400610032008043800063006000e20f50002e
:1034c40037003a0004ff07000000e000300032003b
:1034d40077c8bf00b4e8b70076c8bf00b5e8b70046
:1034e400a08b20004007980074c8bf008080fb00b8
:1034f4004e009000010878004e00900064004000e7
:103504004007980076c8bf000080fb000000d1008f
:103514004047980070872000300798001500370056
:103524003e00900010407800b5e8b7003e009000df
:103534000000e800300798003e009000104078003a
:10354400b4e8b700a14580004e009000010878005f
:103554004e0090000080e800400798003e00900074
:103564000000e800300798004e4090000040e90059
:10357400404798004e4090000004e000e8ff3a0005
:10358400b668a8000040eb00b9e8b7002a0037008d
:103594000040eb00b9e8b700b688a8002600370061
:1035a4008043800063006000e10f500022003a0075
:1035b400b9c8bf00e84f50001c003a000040eb00bf
:1035c400004f78000040eb00304f98000e003700a9
:1035d4001e00900090407800214f98002e489000e3
:1035e400e14f50000200320010c0b300004f7800d9
:1035f4001e0090000000e800100798003e4890006c
:103604000040e800304f98003e489000e74f5000db
:10361400efff36001e04e00002003200b688a80066
:1036240005003700b648a80003003700b688a80094
:103634000040eb00b9e8b70052c2bf00624060002e
:103644000004e0000700320002003700b0128000de
:10365400304f980052c2bf00624060000004e00096
:10366400faff3a008500a9000080fa004f03be006b
:103674004f02be004f01be004f00be003600f900ed
:1036840000400600809fbe000200fa00b0458000a2
:10369400680060000000e0004a003a00a047800093
:1036a400610060000000e000460032000000eb0012
:1036b40050088800311120009140780000c8b30000
:1036c40000c060000004e00001003a0013e1a8001b
:1036d400b9c8bf000004e0000e003a004087200093
:1036e400f0478800f1478000b012800080487800dd
:1036f400f04780000000e800f0478800b9c8bf0028
:103704000040e800b9e8b7000040eb00fce8b7006f
:103714002e00370074c8bf00e14f50000300320090
:1037240074c8bf000004e00020003a000000eb0071
:1037340050088800f1478000b0128000804878006b
:10374400b9c8bf000040e800b9e8b700b9c8bf0075
:10375400e24f500007003a00f04780001040780024
:10376400f04f500003003a00f0478000104078000a
:10377400fce8b700b9c8bf00e74f500007003a00a3
:10378400fcc8bf00f04f500004003a00f04780002e
:103794001040780069404000b8e8b700f047800066
:1037a4000000e800f04788000800370013e1a90092
:1037b400b0128000000f78000040eb00b9e8b700b9
:1037c40002003700b0128000000f78008e40a9007c
:1037d4000080fa004f00be0000400600809fbe003b
:1037e4000200fa00318720009140780072c8bf00bf
:1037f40080cf50001800310073c8bf00e14f500063
:1038040002003a00908620000048880000488000aa
:10381400104078000080fb00a0128800004880005f
:103824000000e8000048880073c8bf000040e800ba
:1038340073e8b7000000eb00000f780002003700c7
:10384400000000001e0fe800400120009e0f100041
:10385400fbff3600040037000040eb0073e8b700bc
:103864000040eb0072e8b7008e60a9000080fa0007
:103874004f00be00004006003600f800809fbe00e6
:10388400829fbe00849fbe00869fbe000c00fa008b
:103894002082200040079800208220001007980012
:1038a4000040eb00004f780067c8bf000004e00050
:1038b4005b0032004047800063006000e20f50006c
:1038c40037003a0064fe07000000e00030003200d8
:1038d40025c8bf0062e8b70024c8bf0063e8b7008a
:1038e400608020004007980022c8bf008080fb0051
:1038f4004e009000010878004e0090000080e8001f
:103904004007980024c8bf000080fb000000d100dd
:103914004047980050822000300798001500370077
:103924003e0090001040780063e8b7003e0090002d
:103934000000e800300798003e0090001040780036
:1039440062e8b700114380004e009000010878003f
:103954004e0090000080e800400798003e00900070
:103964000000e800300798004e4090000040e90055
:10397400404798004e4090000004e000e8ff3a0001
:103984006468a8000040eb0067e8b7002400370033
:103994000040eb0067e8b70064a8a80020003700e7
:1039a4004047800063006000e10f50001c003a00b3
:1039b40067c8bf00e84f500015003a000040eb0014
:1039c400004f78001e00900090407800214f98002e
:1039d4002e489000e14f50000200320010c0b300a6
:1039e400004f78001e0090000000e80010079800c7
:1039f4001e04e000030032006448a90064a8a80083
:103a0400070037001c08a9001e08a800040037009e
:103a14001c08a80064a8a8000040eb0067e8b700f1
:103a240032c2bf00624060000004e00007003200c0
:103a340002003700b0118000304f980032c2bf003e
:103a4400624060000004e000faff3a0084e0a9004c
:103a54000080fa004f03be004f02be004f01be00bb
:103a64004f00be003600f90000400600809fbe00f3
:103a74000200fa0020438000680060000000e000bb
:103a84002f003a000000eb003008880011112000dc
:103a94009140780000c8b30000c060000004e0005a
:103aa40001003a0011e1a80067c8bf000004e0006b
:103ab4000e003a002082200010408800114080004f
:103ac400b011800080487800104080000000e800b9
:103ad4001040880067c8bf000040e80067e8b700ee
:103ae4000040eb0000e8b7001700370022c8bf0011
:103af400e14f50000c003a000000eb003008880051
:103b040011408000b01180008048780067c8bf0071
:103b14000040e80067e8b700104080000000e800bb
:103b2400104088000800370011e1a900b01180009e
:103b3400000f78000040eb0067e8b7000200370090
:103b4400b0118000000f780087c0a9000080fa003f
:103b54004f00be0000400600809fbe000200fa0035
:103b6400b18e200091407800eac8bf0080cf500099
:103b740018003100ebc8bf00e14f500002003a00ca
:103b8400108e2000204088002040800010407800e3
:103b94000080fb00a0118800204080000000e800a5
:103ba40020408800ebc8bf000040e800ebe8b70005
:103bb4000000eb00000f7800020037000000000056
:103bc4001e0fe800400120009e0f1000fbff36008e
:103bd400040037000040eb00ebe8b7000040eb00c6
:103be400eae8b70087e0a9000080fa004f00be00b1
:103bf400004006000000fa0045c7bf0081cfb300b3
:103c04000140600045e7b7004567a90043c7bf000e
:103c14000047b200f04f5000fcff3a0042c7bf001b
:103c24000042b2000004e000fcff32000080fa0011
:103c3400000006000000fa00e042a900e062a900ca
:103c4400e082a900e0e2a900e0a2a900e0c2a80085
:103c54000080eb00601988000080eb005019880098
:103c6400e4e2a800e842a800e862a9000080fa00a3
:103c7400000006000000fa00a00020008011880067
:103c8400004422009011880032c2bf00f043b20009
:103c940001c4b3000140700032e2b700f019200003
:103ca400c0118800616a20009140780000ccb30004
:103cb40000c06000a040b300a6e6b700116d20006c
:103cc4009140780000ccb30000c060005040b300c5
:103cd400d1e6b70087c0a90087e0a90097c0a80073
:103ce40097e0a800310b20009140780080cfb3000a
:103cf40000c060005040b300b3e0b700310b2000b7
:103d040091407800f0c8b30000c0600001c5b30062
:103d140001407000b3e0b7003342a80031e2a800cc
:103d24000000eb008008880094e0a8000111200046
:103d340091407800f0ccb30000c060000044a000c3
:103d440010e1b7001021a90080a9230060088800b1
:103d540011e1a8000080fa00000006000000fa004b
:103d64008000200080128800004422009012880005
:103d740052c2bf00f043b20001c4b300014070005e
:103d840052e2b70020022000c0128800316a2000ed
:103d94009140780000ccb30000c060007040b300d4
:103da400a3e6b700616c20009140780000ccb3001a
:103db40000c06000c041b300c6e6b7008e40a90051
:103dc4008e60a9009e40a8009e60a800cdc0bf00e0
:103dd4007040b300cde0b700d10c200091407800d2
:103de40000c7b30000c07000cde0b7005342a80084
:103df40051e2a8000000eb00900888009500a8009c
:103e04002111200091407800f0ccb30000c0600084
:103e14000044a00012e1b7001221a900204e2000a6
:103e24007008880013e1a8000080fa000000060072
:103e34000000fa00f042a800f062a800f442a900d1
:103e4400f462a9000000eb00301088000000eb00d1
:103e54004010880030012000201088000000eb0092
:103e6400601088000000eb00101088009620a80065
:103e74009600a900c10a20009140780080cfb300c9
:103e840000c06000ace0b700c10a20009140780097
:103e9400f0c8b30000c0600001c4b300014070006a
:103ea400ace0b70007e2a8000080fa0000000600ba
:103eb4000800fa00200798003107980010c0b300ea
:103ec40068e8b70060c0b30069e8b700ae009000ce
:103ed40000f02f00008060004800de006ae8b700b0
:103ee4002e0090006be8b700be00900000f02f0099
:103ef400008060004800de006ce8b7003e009000df
:103f04006de8b70060c0b30072e8b7000040eb0092
:103f140073e8b700b668a9007048a9007008a80043
:103f24007028a90021872000914078008086200015
:103f340037fc0700100798001e009000004f78001f
:103f44001e4078006ee8b7009e00900000f02f003d
:103f5400008060004800de00004f78001e407800ba
:103f64006fe8b70072c8bf0000c0e80072e8b7008d
:103f740010c0b30073e8b7009ec0bf006840600083
:103f84000004e00001003a009e60a80068c8bf0079
:103f94000080fb00a01288000080fa0000000600e8
:103fa4000400fa0010c0b30068e8b70030c0b300e2
:103fb40069e8b7000040eb006ae8b70010c0b3003e
:103fc4006be8b7000040eb006ce8b700f0c0b3004a
:103fd4006de8b70060c0b30072e8b7000040eb00c2
:103fe40073e8b7000040eb0073e8b7007008a9005d
:103ff4007028a80021872000914078008086200046
:1040040003fc0700100798001e009000004f780082
:104014001e4078006ee8b7009e00900000f02f006c
:10402400008060004800de00004f78001e407800e9
:104034006fe8b70072c8bf0000c0e80072e8b700bc
:1040440053c2bf00644060000004e00004003a0072
:104054005342a800020037008e60a9009e60a800a9
:104064008ec0bf00684060000004e000faff3a0020
:1040740068c8bf000080fb00a012880073c8bf009e
:104084000040e80073e8b7000080fa000000060072
:104094000000fa000000eb00200888009460a800eb
:1040a4004110200091407800f0ccb30000c06000c3
:1040b4000044a00004e1b7000421a90005e1a80020
:1040c400007d2000100888000080fa00000006002f
:1040d4003600f800809fbe00829fbe00849fbe0011
:1040e400869fbe000000fa00704780000000e000d8
:1040f40026003a00803e200070478800ecc8bf00cc
:10410400fe4f500006003a00804780000080ea001d
:10411400804788000040eb00ece8b7001e00370041
:10412400ecc8bf000040e800ece8b700904780000e
:104134000000e00011003a00a04780006100600028
:104144000000e0000d00320095ff0700d04580001c
:10415400e10f500002003a00f428a80001003700e3
:10416400f428a900e0408000610060000000e00045
:1041740009003a00e8fa070007003700904780007a
:104184000000e90090478800030037007047800072
:104194000000e900704788008460a9000080fa00ec
:1041a4004f03be004f02be004f01be004f00be00d1
:0841b4003600f900004006008e
:020000040000fa
:1041bc00f6080000060000000200000000000100ec
:1041cc0000000000ec0800000a00000000000000e5
:1041dc00ba0800002600000000000000680800007b
:1041ec005200000000000000fc0800000600000067
:1041fc00000000000809000002000000020000009e
:10420c000800000002090000060000000000000089
:10421c00000800006800000000000000e00800003a
:10422c000c000000000000002c090000120000002f
:10423c000200000001000200000400000800100051
:10424c0000000000202b2d00233000003e09000050
:10425c000800000002000000686a6c00747a4c00d0
:10426c00000000000a09000022000000020000000b
:10427c003031320033343500363738003961620062
:10428c00636465006600300031323300343536002b
:10429c0037383900414243004445460000000000d5
:0442ac00000000000e
:020000040000fa
:1042b000801f78000000fa00104880006200600053
:1042c0000000e00014003a0008c2bf006140600036
:1042d0000004e00010003a0009c2bf006440600022
:1042e0000004e0000c003a0008c2bf006840600013
:1042f0000004e00008003200104880006100600007
:104300000000e00004003a0004c9bf000080fb0088
:10431000101088000229a8008620a9000080fa0059
:084320004f0078000040060088
:00000001FF
